:020000040800F2
:1000000000000220010A0008FD0900083569000807
:10001000FD090008FD090008FD09000800000000B6
:10002000000000000000000000000000FD090008C2
:10003000FD09000800000000FD090008B96800087B
:10004000FD090008FD090008FD090008FD09000878
:10005000FD090008FD090008FD090008FD09000868
:10006000FD090008FD090008FD09000851560008B7
:100070005D560008FD09000869560008755600081D
:10008000CD030108314B0008FD090008FD090008F7
:10009000FD090008FD090008FD090008FD09000828
:1000A000FD090008FD090008FD090008FD09000818
:1000B000A1F70008ADF70008B9F70008654B000884
:1000C000FD090008714B0008FD09000829620008BD
:1000D00035620008010201083102010865020108C9
:1000E000FD090008FD09000800000000FD090008E6
:1000F000FD090008FD090008FD090008FD090008C8
:10010000FD090008FD090008C5F700084162000864
:1001100099020108CD020108FD090008FD09000847
:10012000FD090008FD0900086562000899620008E1
:1001300001040108FD090008FD090008FD09000887
:1001400000000000000000000000000000000000AF
:10015000FD090008FD090008FD0900080103010868
:100160007D4B0008FD090008C9680008ED6800081B
:10017000FD09000811690008FD090008FD090008D3
:10018000FD090008FD0900083503010865030108A1
:100190004D62000859620008FD090008FD090008C9
:1001A000FD090008FD090008FD090008FD09000817
:1001B00071530008FD090008FD090008FD09000849
:1001C000FD090008FD090008FD090008FD090008F7
:1001D000FD090008FD090008FD090008FD090008E7
:1001E000FD090008FD090008FD090008FD090008D7
:1001F000FD090008FD090008FD090008FD090008C7
:10020000FD090008FD090008FD090008FD090008B6
:10021000FD090008FD090008FD090008FD090008A6
:10022000FD090008FD090008FD09000800000000A4
:10023000FD090008FD09000800000000FD09000894
:10024000FD090008FD090008FD090008FD09000876
:10025000FD090008FD090008FD090008FD09000866
:10026000FD090008FD090008FD090008FD09000856
:10027000FD090008FD0900089903010800000000BD
:10028000FD090008FD090008FD0900080000000044
:0802900000000000FD09000858
:1002A00010B5054C237833B9044B13B10448AFF3B0
:1002B00000800123237010BD1804002400000000FA
:1002C000F44A010808B5034B1BB103490348AFF3D7
:1002D000008008BD000000001C040024F44A01084E
:1002E00001F0FF01102A2BDB10F0070F08D010F8E7
:1002F000013B013A8B422DD010F0070F42B3F6D1EB
:10030000F0B441EA012141EA014122F007047FF003
:1003100000070023F0E80256083C85EA010586EA5A
:10032000010685FA47F5A3FA87F586FA47F6A5FA96
:1003300087F68EB9EED1F0BC01F0FF0102F00702A2
:1003400032B110F8013B013A83EA010313B1F8D14D
:100350000020704701387047002D06BF354603382E
:10036000073815F0010F07D1013015F4807F02BF67
:10037000013015F4C03F0130F0BC0138704700BFB8
:1003800081F0004102E000BF83F0004330B54FEA46
:1003900041044FEA430594EA050F08BF90EA020FB3
:1003A0001FBF54EA000C55EA020C7FEA645C7FEA46
:1003B000655C00F0E2804FEA5454D4EB5555B8BF69
:1003C0006D420CDD2C4480EA020281EA030382EADA
:1003D000000083EA010180EA020281EA0303362D6C
:1003E00088BF30BD11F0004F4FEA01314FF4801C3F
:1003F0004CEA113102D0404261EB410113F0004F51
:100400004FEA03334CEA133302D0524263EB430307
:1004100094EA050F00F0A780A4F10104D5F1200EA5
:100420000DDB02FA0EFC22FA05F2801841F1000100
:1004300003FA0EF2801843FA05F359410EE0A5F1D4
:1004400020050EF1200E012A03FA0EFC28BF4CF005
:10045000020C43FA05F3C01851EBE37101F00045BB
:1004600007D54FF0000EDCF1000C7EEB00006EEBC8
:100470000101B1F5801F1BD3B1F5001F0CD3490852
:100480005FEA30004FEA3C0C04F101044FEA4452A9
:1004900012F5800F80F09A80BCF1004F08BF5FEA30
:1004A000500C50F1000041EB045141EA050130BD10
:1004B0005FEA4C0C404141EB0101013C28BFB1F522
:1004C000801FE9D291F0000F04BF01460020B1FA6D
:1004D00081F308BF2033A3F10B03B3F120020CDA40
:1004E0000C3208DD02F1140CC2F10C0201FA0CF01E
:1004F00021FA02F10CE002F11402D8BFC2F1200C83
:1005000001FA02F120FA0CFCDCBF41EA0C01904038
:10051000E41AA2BF01EB0451294330BD6FEA040481
:100520001F3C1CDA0C340EDC04F11404C4F120026C
:1005300020FA04F001FA02F340EA030021FA04F37E
:1005400045EA030130BDC4F10C04C4F1200220FAD5
:1005500002F001FA04F340EA0300294630BD21FA13
:1005600004F0294630BD94F0000F83F4801306BFD9
:1005700081F480110134013D4EE77FEA645C18BFCD
:100580007FEA655C29D094EA050F08BF90EA020F64
:1005900005D054EA000C04BF1946104630BD91EA5C
:1005A000030F1EBF0021002030BD5FEA545C05D15F
:1005B0004000494128BF41F0004130BD14F580049E
:1005C0003CBF01F5801130BD01F0004545F0FE4112
:1005D00041F470014FF0000030BD7FEA645C1ABF47
:1005E000194610467FEA655C1CBF0B46024650EA7E
:1005F000013406BF52EA033591EA030F41F40021AA
:1006000030BD00BF90F0000F04BF0021704730B52F
:100610004FF4806404F132044FF000054FF0000104
:1006200050E700BF90F0000F04BF0021704730B5C5
:100630004FF4806404F1320410F0004548BF40429A
:100640004FF000013EE700BF42004FEAE2014FEAEF
:1006500031014FEA02701FBF12F07F4393F07F4FCA
:1006600081F06051704732F07F4208BF704793F0CD
:100670007F4F04BF41F40021704730B54FF46074E0
:1006800001F0004521F000411CE700BF50EA0102E3
:1006900008BF704730B54FF000050AE050EA01028C
:1006A00008BF704730B511F0004502D5404261EBFC
:1006B00041014FF4806404F132045FEA915C3FF43D
:1006C000D8AE4FF003025FEADC0C18BF03325FEADA
:1006D000DC0C18BF033202EBDC02C2F1200300FA8B
:1006E00003FC20FA02F001FA03FE40EA0E0021FAB0
:1006F00002F11444BDE600BF53B94AB9002908BF4E
:1007000000281CBF4FF0FF314FF0FF3000F074B9EC
:10071000ADF1080C6DE904CE00F006F8DDF804E058
:10072000DDE9022304B070472DE9F047089D044637
:100730008E46002B4DD18A42944669D9B2FA82F294
:1007400052B101FA02F3C2F1200120FA01F10CFAD0
:1007500002FC41EA030E94404FEA1C48210CBEFB08
:10076000F8F61FFA8CF708FB16E341EA034306FB91
:1007700007F199420AD91CEB030306F1FF3080F020
:100780001F81994240F21C81023E63445B1AA4B26D
:10079000B3FBF8F008FB103344EA034400FB07F70F
:1007A000A7420AD91CEB040400F1FF3380F00A8150
:1007B000A74240F207816444023840EA0640E41B45
:1007C00000261DB1D4400023C5E900433146BDE8F1
:1007D000F0878B4209D9002D00F0EF800026C5E993
:1007E000000130463146BDE8F087B3FA83F6002EAB
:1007F0004AD18B4202D3824200F2F980841A61EB23
:10080000030301209E46002DE0D0C5E9004EDDE740
:1008100002B9FFDEB2FA82F2002A40F09280A1EB28
:100820000C014FEA1C471FFA8CFE0126200CB1FB7D
:10083000F7F307FB131140EA01410EFB03F0884276
:1008400008D91CEB010103F1FF3802D2884200F203
:10085000CB804346091AA4B2B1FBF7F007FB101195
:1008600044EA01440EFB00FEA64508D91CEB040433
:1008700000F1FF3102D2A64500F2BB800846A4EB8E
:100880000E0440EA03409CE7C6F12007B34022FA79
:1008900007FC4CEA030C20FA07F401FA06F31C43A8
:1008A000F9404FEA1C4900FA06F3B1FBF9F8200CB5
:1008B0001FFA8CFE09FB181140EA014108FB0EF0FB
:1008C000884202FA06F20BD91CEB010108F1FF3A4B
:1008D00080F08880884240F28580A8F10208614457
:1008E000091AA4B2B1FBF9F009FB101144EA014165
:1008F00000FB0EFE8E4508D91CEB010100F1FF3410
:100900006CD28E456AD90238614440EA0840A0FBA7
:100910000294A1EB0E01A142C846A64656D353D07D
:100920005DB1B3EB080261EB0E0101FA07F722FAA1
:1009300006F3F1401F43C5E9007100263146BDE8CA
:10094000F087C2F12003D8400CFA02FC21FA03F32D
:10095000914001434FEA1C471FFA8CFEB3FBF7F0AE
:1009600007FB10360B0C43EA064300FB0EF69E42D3
:1009700004FA02F408D91CEB030300F1FF382FD26C
:100980009E422DD9023863449B1B89B2B3FBF7F614
:1009900007FB163341EA034106FB0EF38B4208D9ED
:1009A0001CEB010106F1FF3816D28B4214D9023E2E
:1009B0006144C91A46EA004638E72E46284605E74C
:1009C0000646E3E61846F8E64B45A9D2B9EB02081D
:1009D00064EB0C0E0138A3E74646EAE7204694E7AD
:1009E0004046D1E7D0467BE7023B614432E73046E0
:1009F00009E76444023842E7704700BFFEE700BFE2
:100A00000B480C4A904203D0121A0B4912F03EFBDD
:100A10000A480B4A904203D0121A002112F044FBFC
:100A200006F0B0F912F006FB02F04CFBFEE700BF47
:100A30000000002418040024244B0108180400249A
:100A4000403D0024704700BF704700BF49424FF44B
:100A500080621430C9B212F027BB00BF704700BFDC
:100A60004020704780207047704700BF1348144BE8
:100A7000008803EB800393ED000A70B5B8EEC00A5E
:100A8000104C16460D46204684ED020A11F0F2FF86
:100A900084ED080A86B100240A4811F009FED5E960
:100AA000000300EB840003EB8403013480ED000AB3
:100AB000A64283ED000AEFD170BD00BF34040024CC
:100AC000040000249008002410B5044640F21441AC
:100AD00011F0E1FF204610BD2DE9F041B02482B0B5
:100AE00000F1080600F1100500F11408002728465F
:100AF0008DF807400134394603F0C6FE6423012215
:100B00000DF107013046E4B205F0F2FD3946284602
:100B10008DF8077003F0B8FE012264230DF1070180
:100B2000304605F0E5FD1023394628468DF807309C
:100B300003F0AAFE642301220DF10701304605F0FF
:100B4000D7FD0121284603F09FFE80224146642301
:100B50003046904405F0CCFDB82CC7D102B0BDE8BA
:100B6000F08100BF2DE9F04F85B0A1F1200504AC64
:100B70009DF83870009104E90C00EBB25E2B00F296
:100B80009580036880465D4ADB689DF80840934283
:100B90009DF8096040F094808020B8F80430234428
:100BA000834200F38380D8F80030554A9B68934213
:100BB00040F088804020B8F80620931901928342C3
:100BC00074DC002E00F0898006FB05F56FF0004014
:100BD000039B964628442E44B8F804A003EB40003B
:100BE000023B03EB460B30F8026FBCB30EF0070379
:100BF0004FF0010C4FEADE0251460CFA03FC0AF1F9
:100C000014034FFA8CFC03EBC21200236FEA0C09A9
:100C100042440EE07F2907D8BEF13F0F04D8157873
:100C20009FB14CEA050515700133013201319C4238
:100C300014D006FA03F52D04ECD47F29F4D8BEF1C4
:100C40003F0FF1D81578002FEBD0013309EA0505E5
:100C5000013201319C4202F8015CEAD158450EF1A3
:100C6000010EC0D1D8F8003054442449DA68A4B247
:100C70008A422DD1802084421CD29B68204AA8F849
:100C80000440934221D14020019B834207D3D8F8EE
:100C900000301B4A9B68934229D13F230193DDE931
:100CA0000003A8F8063005B0BDE8F08F002005B0BD
:100CB000BDE8F08FDA6811498A4211D17F24DCE760
:100CC00098476AE74046984775E740469847DBE70C
:100CD00040469047D8F80030CDE7B8F804A0C1E707
:100CE000404690470138D8F8003084B2C5E7404606
:100CF0009847013883B20193D1E700BF650A000825
:100D0000610A00082DE9F04F89B008AC9DF84870E1
:100D1000019104E90C000B78002B00F0AB801A461F
:100D20009DF818809DF81930064645469046039375
:100D3000079B0593A8F12004E3B25E2B00F29E808E
:100D400033685E4ADB68934240F09B808020B38822
:100D50002B44834200F392803368594A9B68934244
:100D600040F092804020F188039A02918B188342D0
:100D700000F38480002A00F0918002FB04F46FF0FD
:100D80000049059BA1441444B6F804B003EB49099B
:100D9000023BCDF8108003EB44030C469A4639F829
:100DA00002CFA5B304F007034FF0010EE208594645
:100DB0000EFA03FE0BF114034FFA8EFE03EBC21280
:100DC00000236FEA0E0832440DE07F2906D83F2C3D
:100DD00004D8107897B14EEA000010700133013248
:100DE0000131AB4213D00CFA03F00004EDD47F299B
:100DF000F4D83F2CF2D81078002FECD0013308EA59
:100E0000000001320131AB4202F8010CEBD1D145B7
:100E100004F10104C3D1DDF8108032680BEB050446
:100E20002649D368A4B28B4234D18020844204D3B3
:100E3000D36822498B423AD17F249368204AB480F8
:100E4000934224D14020029B834206D333681C4A3C
:100E50009B68934225D13F230293029BF380019B21
:100E60001878404507D113F8018F0193B8F1000FAE
:100E70007FF460AF002009B0BDE8F08F4FF00008AC
:100E8000EDE73046984762E7304698476BE73046D3
:100E90009847D8E7304698473268C7E7B6F804B0B5
:100EA000BBE730469847431E9BB20293D5E73046D6
:100EB00098470138326884B2BFE700BF650A00086E
:100EC000610A00087F291ED83F2A1CD86BB1D308BD
:100ED0004FF0010C02F0070201EBC3130CFA02F20F
:100EE000C1180B7D1A430A757047D3084FF0010CE7
:100EF00002F0070201EBC3130CFA02FCC1180A7DD1
:100F000022EA0C020A7570472DE9F04F83B05C1A93
:100F10000C9E002C9DF83490A6EB0208B8BF6442EA
:100F2000B8F1000FB8BFC8F100088B428CBF4FF07A
:100F3000010A4FF0FF3A9642A4EB080C51D84FF04B
:100F4000FF357F2B019512D83F2E10D8F50806F0FB
:100F5000070E012703EBC5150544B9F1000F47D073
:100F600007FA0EF795F814E047EA0E072F75964238
:100F700001D18B4229D0C8F100077F2914D83F2A1C
:100F800012D8D50802F0070B4FF0010E01EBC51582
:100F90000544B9F1000F1BD00EFA0BFE95F814B002
:100FA0004EEA0B0E85F814E0B7EB4C0F4FEA4C05F8
:100FB00002DAACEB080C5144AC4202DD019DA444C2
:100FC0002A449942D9D19642D7D103B0BDE8F08FD7
:100FD0000EFA0BFB95F814E02EEA0B0E85F814E0E0
:100FE000E2E701257F2B0195C5D83F2EAED9C2E798
:100FF00007FA0EFE2F7D964227EA0E072F75B8D00E
:10100000B9E700BF000000002DE9F04F2DED068B81
:1010100083B01F4680460D469DF85030164601931A
:10102000139B002BC0F22182129A134406EE103A51
:10103000DDED127AB8EEC66B9FEDCD4BB8EEE77BD7
:101040009FEDCD5B27EE047B26EE046B87EE050B50
:1010500086EE05ABF7EEC08BB0EE680A11F020FD0E
:1010600007EE907AB7EECAABF8EE679AB0EE408A18
:10107000B0EE680A11F010FE60EE698AB0EE4A0A1E
:1010800011F00EFDB0EE409AB0EE4A0A11F004FEE7
:1010900020EE690A29EE888A29EE899A70EE687A2C
:1010A000F0EE006A39EE487A67EEA77AE7EE077A43
:1010B000F4EEE67AF1EE10FA06D5139BB42B40F36A
:1010C00096804FF0010901E04FF0000901247842B9
:1010D0004FF0000C0095E31B214627462246A34013
:1010E000B9F1000F6AD1424206EE90CACCF100017C
:1010F00007EE102AB8EEE66A07EE901A06EE900A9E
:10110000B8EEC77A139A66EE084AF8EEE77AB42A80
:1011100027EE284AF8EEE66A67EE885A74EEC43A7B
:1011200026EEA85A26EE096A66EE806A67EE897A8C
:1011300027EE007AF5EEC03A40F3F280F1EE10FAB5
:1011400000F17F8176EE473A74EEC54AF5EEC03A7B
:10115000F1EE10FAF5EEC04ACCBF01220022F1EE0A
:1011600010FA00F1778136EE666A35EEC55AB5EEB3
:10117000C06AF1EE10FAB5EEC05ACCBF01210021D1
:10118000F1EE10FA00F16F8177EEE66AF5EEC06AD3
:10119000F1EE10FACCBF0127002775EEC45AF5EE28
:1011A000C05AF1EE10FA00F1478177EEC77AF5EEFA
:1011B000C07AF1EE10FACCBF01240024002A40F0DE
:1011C0008A80002964D1BFB9C4BB9C4558DB0CF1AF
:1011D000010C03EB4C0E1CEB000F0EF1010E00F0A6
:1011E000C08098424FDB734600287FF779AF03B089
:1011F000BDEC068BBDE8F08F009DA6EB0C0E00EB5E
:10120000050ABAF17F0FDFD8BEF13F0FDCD84FEAF5
:10121000DE0B019D0AEBCB1A002D00F0B1800EF021
:10122000070BC2444FF0010E0EFA0BFE9AF814B0F1
:101230004EEA0B0E8AF814E0002CC6D0009DA6EBF7
:101240000C0EA5EB000ABAF17F0FBED8BEF13F0F1E
:10125000BBD84FEADE0B019D0AEBCB1A002D00F044
:10126000AE800EF0070BC2444FF0010E9C450EFA03
:101270000BFE9AF814B04EEA0B0E8AF814E0A6DAC8
:1012800098429E46AFDA01300EEB40030133ABE7E4
:10129000009D0CEB060E00EB050ABAF17F0F92D809
:1012A000BEF13F0F8FD84FEADE0B019D0AEBCB1A40
:1012B000002D73D00EF0070BC2444FF0010E0EFA52
:1012C0000BFE9AF814B04EEA0B0E8AF814E0002FC9
:1012D0003FF47AAF90E7009D0CEB060EA5EB000AF9
:1012E000BAF17F0F3FF66DAFBEF13F0F3FF669AF2A
:1012F0004FEADE0B019D0AEBCB1A002D6DD00EF0EC
:10130000070BC2444FF0010E0EFA0BFE9AF814B010
:101310004EEA0B0E8AF814E000293FF454AFB7E709
:10132000F1EE10FA7ED44A4674EEC54AF5EEC04A94
:10133000F1EE10FA6CD4002135EEC55AB5EEC05A64
:10134000F1EE10FA5AD4002775EEC45AF5EEC05AE1
:10135000F1EE10FA3FF529AF0024002A3FF431AF37
:10136000B9E798428FDB00233BE700BFAFF3008073
:101370007A008BFCFA2109400000000000806640E2
:10138000C2444FF0010B0EF0070E0BFA0EFE9AF856
:1013900014B02BEA0E0E8AF814E015E7C2444FF0A1
:1013A000010B0EF0070E0BFA0EFE9AF814B02BEAA2
:1013B0000E0E8AF814E0002F3FF406AF1CE7C2447B
:1013C0004FF0010B0EF0070E0BFA0EFE9AF814B058
:1013D0002BEA0E0E8AF814E0F7E6C2444FF0010B38
:1013E0000EF0070E0BFA0EFE9AF814B02BEA0E0E52
:1013F0008AF814E000293FF4E6AE49E777EEE66AA2
:10140000F5EEC06AF1EE10FACCBF012700279BE78A
:1014100036EE666AB5EEC06AF1EE10FACCBF012175
:10142000002189E776EE473AF5EEC03AF1EE10FA80
:10143000CCBF0122002277E70124002A3FF4C1AE8D
:1014400049E774EEC54A0122F5EEC04AF1EE10FA02
:101450007FF589AE35EEC55A0121B5EEC05AF1EEE1
:1014600010FA7FF591AE012797E6DDE912231344C8
:1014700006EE102A1293139B5B421393D8E500BF2C
:101480002DE9F04F89B01D46884606901046129C03
:1014900010F8013B13999DF85060009233B100227F
:1014A00010F8013B0132002BFAD193B22A78687808
:1014B00012FB03F302B21BB223EAE373082900F222
:1014C000A681DFE811F0010113011F013301410181
:1014D0004F0166016F010900A18827880F44B4F904
:1014E0000610FF1A0029BFB2C0F2FE806488069879
:1014F00004EB6104C280A4EB52028380078094B2A3
:101500004480A64AD8F8003011460192DA688A422F
:1015100040F08B818020B84205D8DA6801998A4270
:1015200040F098817F279E4A9B68A8F804709342F8
:10153000039240F087814020A04207D8D8F80030BD
:10154000039A9B68934240F080813F24009BA8F857
:10155000064093F800B06B782C7804936B6807937F
:10156000BBF1000F00F0AC80ABF12005EBB25E2BBD
:1015700000F22C81D8F80030019ADB68934240F0E9
:1015800028818020B8F8043023449842C0F21E819C
:10159000D8F80030039A9B68934240F01D814020A8
:1015A000B8F80610049A02918B189842C0F20E8186
:1015B000002A00F01C8102FB05F56FF0004E079B2E
:1015C000AE441544CDF814B003EB4E0E023BB8F810
:1015D00004A003EB45030D469B463EF8027FA4B3EF
:1015E00005F007034FF0010CEA0851460CFA03FC22
:1015F0000AF114034FFA8CFC03EBC21200236FEACA
:101600000C0942440DE07F2906D83F2D04D81078FC
:1016100096B14CEA000010700133013201319C4256
:1016200013D007FA03F00004EDD47F29F4D83F2D3E
:10163000F2D81078002EECD0013309EA0000013214
:1016400001319C4202F8010CEBD1F34505F1010593
:10165000C3D1DDF814B0D8F800200AEB04050199D5
:10166000D368ADB28B4240F0BD808020854205D367
:10167000D36801998B4240F0C3807F259368039A19
:10168000A8F80450934240F0AA804020029B834275
:1016900008D3D8F80030039A9B68934240F0AA80A0
:1016A0003F230293029BA8F80630009A13785B450B
:1016B00006D112F801BF0092BBF1000F7FF454AFC6
:1016C000069809B0BDE8F08FB4F904102788002906
:1016D000B8BF013107EB6107B4F90610A7EB630748
:1016E0000029BFB2BFF602AF0131FFE6B4F90070C6
:1016F0000699B4F902400F80BFB24C80A4B28B802F
:10170000CA80FEE6B4F9041027880029B4F9024023
:10171000B8BF013107EB610706998B80A7EB630324
:101720004C80A4B29FB2CA800F80EAE6A1882788C5
:10173000B4F902400F4406998B80FB1A4C80A4B286
:101740009FB2CA800F80DCE6E78861883944B4F92B
:101750000070081A069984B20F808B80BFB2CA80CD
:101760004C80CEE6B4F9041027880029B8BF0131B7
:1017700007EB6107A7EB6307B4F802C0BFB2E488C8
:10178000069964448B80201ACA800F8084B24C80F2
:10179000B7E62788A1880F44FF1AEDE7650A00081D
:1017A000610A0008B4F90610B4F9007000296488D1
:1017B0000698B8BF0131C28004EB610407808380C2
:1017C000BFB2A4EB520294B244809AE64FF0000BF1
:1017D0006BE740469847D5E640469847E0E64046E6
:1017E000984753E740469847D8F800203EE7B8F8B6
:1017F00004A030E740469847013883B2029351E78E
:10180000404698470138D8F8002085B236E7D8F826
:1018100000300024069A1349148054809480D480A8
:10182000DA6801918A4205D0274640469047D8F8A9
:10183000003070E69B680C4AA8F80440934203927B
:101840003FF484AE4046984776E6404698470138D4
:1018500084B27BE6404690470138D8F8003087B222
:1018600061E600BF650A0008610A00082DE9F04F33
:1018700087B09DF84850109C2E4601959DF8445025
:101880009EB399422ED89946A24228D87F2916465F
:1018900094BF0023012308E09CF814804EEA080E50
:1018A0008CF814E00136B44219D33F2EFAD8002B3D
:1018B000F8D14FEAD60C06F0070E4FF0010801EB05
:1018C000CC1C08FA0EFE8444002DE5D19CF814B01F
:1018D00001362BEA0E0AB4428CF814A0E5D201318D
:1018E0008945D1D207B0BDE8F08FA3EB0108B8F16C
:1018F000000FB8BFC8F100089942C0F04E817F2B9D
:101900004FF0FF3A94BF002601263F2A009694BF6D
:10191000002701270297A6B99FB9D60802F0070C45
:10192000012703EBC6160644002D00F0948107FA48
:101930000CF796F814C047EA0C0737750026029694
:101940000096994200F09781464694468E46BEF135
:101950007F0F16D8BCF13F0F13D84FEADC070CF00D
:10196000070B4FF001090EEBC7170744002D00F0DD
:10197000398109FA0BF997F814B049EA0B0987F88D
:101980001490770018BFD644B84502DD46440CF1E8
:10199000FF3C7345DBD16245D9D100260496A4EB08
:1019A0000209009FB9F1000FB8BFC9F100093F2C2F
:1019B00094BF00260126A242C9F100080396C0F098
:1019C0002381002F40F05081002E40F04D814FF0D8
:1019D000FF360096E60803EBC6160644002D00F01D
:1019E0001E814FF0010C04F007070CFA07F796F878
:1019F00014C047EA0C07377500260396A24200F090
:101A00003D81C44616461F4605927F2F15D83F2EAE
:101A100013D84FEAD60E06F0070B4FF0010A07EB7A
:101A2000CE1E8644002D00F0E6800AFA0BFA9EF8DE
:101A300014B04AEA0B0A8EF814A0B8EB4C0F4FEA28
:101A40004C0E02DAACEB090C013FBEF1000F01D0E5
:101A5000009A1644BB42D8D1B442D6D1059AA1EB24
:101A6000030EBEF1000FB8BFCEF1000E7F2994BF68
:101A70004FF0000A4FF0010A99428CBF4FF0010964
:101A80004FF0FF39BAF1000F13D1039E8EB9E6086B
:101A900001EBC6160644002D00F0D3804FF0010C78
:101AA00004F007070CFA07F796F814C047EA0C078A
:101AB0003775049E26BB774626467F2B14D83F2ECB
:101AC00012D84FEAD60C06F0070B4FF0010803EBD3
:101AD000CC1C8444002D73D008FA0BF89CF814B089
:101AE00048EA0B088CF814805FEA470C18BF4B4497
:101AF000E64501DD7744013E9942DED1B442DCD1B6
:101B0000A2EB040EBEF1000FB8BFCEF1000EA24250
:101B10008CBF4FF001084FF0FF38CEF1000CBAF146
:101B2000000F0ED1029B63B9D30802F0070701260C
:101B300001EBC3130344002D7CD0BE401F7D3E4308
:101B40001E75019B002B7FF4CDAE66460B467F2BA6
:101B500012D83F2C10D8E70804F0070A4FF001090B
:101B600003EBC7170744A5B309FA0AF997F814A0BD
:101B700049EA0A0987F81490BCEB460F4FEA46077A
:101B800002DAA6EB0E06013B07B144449942DED1CE
:101B9000A242DCD107B0BDE8F08F3F2A4FF0010A26
:101BA00094BF002601267F2B029694BF00270127B1
:101BB0000097002E7FF4C8AE002F3FF4AEAEC3E610
:101BC00008FA0BFB9CF8148028EA0B088CF81480A8
:101BD0008AE709FA0AFA97F8149029EA0A0987F8B5
:101BE0001490C9E709FA0BFB97F8149029EA0B093E
:101BF00087F81490C5E60AFA0BFB9EF814A02AEAAF
:101C00000B0A8EF814A018E797BB8EBB012600962E
:101C1000E60803EBC6160644002D7FF4E2AE01276A
:101C200004F0070C039507FA0CFC377D27EA0C0734
:101C30003775E3E606FA07F71E7D26EA07061E75E6
:101C40007FE7012704F0070C07FA0CFC377D27EA31
:101C50000C0737752DE707FA0CFC377D029527EA4C
:101C60000C07009537756CE64FF0FF360096C5E619
:101C700001260096C5E60126049690E60126019607
:101C8000EDE600BF2DE9F04F934D89B00A26002400
:101C900001230DF11D0205F11800009695F82C1096
:101CA0008DF81D4003F006F895F8302002230096C9
:101CB000A04218BF42F0010295F82C1005F118005F
:101CC00085F830200DF11E0203F01CF895F8302045
:101CD000BDF81E30A04218BF42F00102C3F30B034F
:101CE00085F830207D4A7E4D13800AE07D4B1B88AD
:101CF0002341DB0700F1E68001340C2C1DD0774B2B
:101D00001B882341DA07F1D5764B1B882341DF0777
:101D1000F2D40121744801F0C9FA2246734970488F
:101D200011F0BAFA6D4B724A01211B8811702341E0
:101D3000DE07DBD501340C2CE1D1DFF8C8B14FF45C
:101D40008062FF210BF1140011F0AEF9694A002105
:101D50002B781478CBF804105178526804910592CE
:101D6000002B6ED05E4A0292203BDAB25E2A68D81F
:101D7000BBF8049009EB0408B8F1800F61DCBBF8F4
:101D80000620049903920A44402A5ADC002943D0D1
:101D9000049A6FF0004C039D02FB03F39C44134430
:101DA000059AA2F1020A02EB4C0C0AEB430A3CF83A
:101DB000026F6CB305F007030127EA0849469F400C
:101DC00009F114037FB203EBC21200236FEA070E7E
:101DD0005A440CE07F2905D83F2D03D810780EEA2D
:101DE00000001070013301320131A34210D006FA15
:101DF00003F00004EED47F29F4D83F2DF2D81078F8
:101E00000133013201313843A34202F8010CEED113
:101E1000D44505F10105CAD1039A1FFA88F8029941
:101E20003F2A11F8013F28BF3F22B8F17F0F0291EE
:101E300028BF4FF07F08ABF80620ABF80480002BDA
:101E400092D12D4EB02400252C488DF81E4001342F
:101E5000294602F019FD642301220DF11E012848D4
:101E6000E4B204F045FC294624488DF81E5002F0E7
:101E70000BFD012264230DF11E01214804F038FC02
:101E8000102329461D488DF81E3002F0FDFC642306
:101E900001220DF11E011A4804F02AFC0121174805
:101EA00002F0F2FC8022314664231548164404F007
:101EB0001FFCB82CC7D1094B0A4A1B88138009B0F4
:101EC000BDE8F08F0021084801F0F0F92021084B0F
:101ED000002229801A700FE74009002434040024EE
:101EE000C00800248C08002450080024C8390108C8
:101EF0004C080024B40100244C04002448040024AD
:101F0000400400243804002484B02DE9F04182B05C
:101F10000125064604460DF124088572274688E807
:101F20000E00BDF84C3026F8083F304602F0C2FBE8
:101F3000BDF84E30A57127F8043F384602F0BAFBD1
:101F40004146204604F04EFB0021384602F09CFC3E
:101F50000A2004F05FFD2946384602F095FC0A206D
:101F600004F058FDAE23304600218DF8073002F012
:101F70008BFC2A460DF107016423204604F0B8FBD0
:101F8000D523304600218DF8073002F07DFC2A462B
:101F90000DF107016423204604F0AAFB802330469C
:101FA00000218DF8073002F06FFC2A460DF1070181
:101FB0006423204604F09CFBA823304600218DF8C2
:101FC000073002F061FC2A460DF107016423204628
:101FD00004F08EFB3F23304600218DF8073002F0DD
:101FE00053FC2A460DF107016423204604F080FBD0
:101FF000DA23304600218DF8073002F045FC2A46EE
:102000000DF107016423204604F072FB12233046D1
:1020100000218DF8073002F037FC2A460DF1070148
:102020006423204604F064FB0021D32330460F468E
:102030008DF8073002F028FC2A4664230DF10701D1
:10204000204604F055FB394630468DF8077002F003
:102050001BFC2A460DF107016423204604F048FBCF
:102060004023394630468DF8073002F00DFC2A46F1
:102070000DF107016423204604F03AFBA6233946FC
:1020800030468DF8073002F0FFFB2A460DF10701BC
:102090006423204604F02CFBA423394630468DF8F7
:1020A000073002F0F1FB2A460DF1070164232046B8
:1020B00004F01EFB8D23394630468DF8073002F0C0
:1020C000E3FB2A460DF107016423204604F010FBD0
:1020D0001423394630468DF8073002F0D5FB2A46E6
:1020E0000DF107016423204604F002FBA1233946C9
:1020F00030468DF8073002F0C7FB2A460DF1070184
:102100006423204604F0F4FAC823394630468DF89B
:10211000073002F0B9FB2A460DF10701642320467F
:1021200004F0E6FA8123394630468DF8073002F094
:10213000ABFB2A460DF107016423204604F0D8FAD0
:102140008F23394630468DF8073002F09DFB2A4632
:102150000DF107016423204604F0CAFAD923394659
:1021600030468DF8073002F08FFB2A460DF107014B
:102170006423204604F0BCFA2523394630468DF806
:10218000073002F081FB2A460DF107016423204647
:1021900004F0AEFADB23394630468DF8073002F002
:1021A00073FB2A460DF107016423204604F0A0FAD0
:1021B0003423394630468DF8073002F065FB2A4655
:1021C0000DF107016423204604F092FAAF2339464B
:1021D00030468DF8073002F057FB64232A460DF194
:1021E0000701204604F084FA02B0BDE8F04104B0D3
:1021F000704700BF2DE9F04FCF4B9FB0CF4C4FF051
:10220000000914934FF00108A36040F20C635A22B6
:10221000A246A382102322740DF1200E8DF85C30AB
:1022200013ADF34604F11C0C0A27CDF84C9041265F
:10223000C4E90098BAE80F00DAF800A0AEE80F0091
:10224000CEF800A0BBE80F00ACE80F0029468CF8E0
:1022500000A004F118004FF05E0ACDE9158902F0E4
:1022600093FC009794F830302A4694F82C10484597
:1022700018BF43F0010304F118008DF84CA084F856
:10228000303043468DF84D9002F014FD009708AAB7
:1022900094F8303094F82C10484518BF43F00103EF
:1022A00004F1180084F83030434602F02BFD00970B
:1022B00094F830302A4694F82C10484518BF43F063
:1022C000010304F1180084F83030022302F0F2FC1C
:1022D000009794F830302A4694F82C10484518BFDF
:1022E00043F0010304F1180084F8303080238DF8A6
:1022F0004C3063238DF84D30022302F0DBFC009755
:1023000094F830302A4694F82C10484518BF43F012
:10231000010304F118008DF84CA084F830309DF8CA
:1023200020308DF84D30022302F0C4FC94F8303098
:10233000484518BF43F00103404684F8303004F0AC
:1023400069FB43462A46009704F1180094F82C10C4
:102350008DF84CA08DF84D9002F0ACFC00974346F0
:1023600094F8302094F82C10484518BF42F0010230
:1023700004F1180084F8302008AA02F0C3FC00978A
:1023800094F830302A4694F82C10484518BF43F092
:10239000010304F118008DF84CA084F830300223BA
:1023A0008DF84D9002F086FC94F8303094F814B01B
:1023B000484518BF43F0010394F815A084F8303065
:1023C0000A274FF000094FF05E0894F82C10012303
:1023D0002A465B4800978DF84D908DF84C8002F0AE
:1023E00069FC94F830100123009708AA484518BFEB
:1023F00041F00101524884F8301094F82C1002F09A
:1024000081FC94F8301002230097484518BF41F032
:1024100001012A464A4884F8301094F82C1002F042
:1024200049FC94F8301002230097484518BF41F04A
:1024300001012A46424884F8301094F82C108DF897
:102440004C608DF84DB002F035FC94F830C002239A
:102450009DF82020484518BF4CF0010C00978DF8DE
:102460004D202A4684F830C094F82C1034488DF85A
:102470004C8002F01FFC94F83010012300972A468C
:10248000484518BF41F001012D488DF84D9084F862
:10249000301094F82C108DF84C8002F00BFC94F85E
:1024A00030100123009708AA484518BF41F00101E8
:1024B000234884F8301094F82C1002F023FC94F890
:1024C000301002230097484518BF41F001012A4609
:1024D0001B4884F8301094F82C1002F0EBFB94F8B1
:1024E00030C0721C0097484518BF4CF0010C022305
:1024F00094F82C1002368DF84C202A4684F830C00F
:10250000F6B20F488DF84DA002F0D4FB94F830C01D
:1025100002239DF82020484518BF4CF0010C00977D
:102520008DF84D202A4694F82C10054884F830C0C8
:102530008DF84C8006E000BF010801094009002425
:102540005809002402F0B6FB94F83030484518BF13
:1025500043F00103592E84F830307FF431AF0097F7
:102560002A4694F82C100123C54801268DF84D9079
:102570008DF84C8002F09EFB009708AA94F830304A
:1025800094F82C10484518BF43F00103BC4884F868
:102590003030012302F0B6FB009794F830302A4621
:1025A00094F82C10484518BF43F00103B44884F850
:1025B0003030022302F07EFB009794F830302A4638
:1025C00094F82C10484518BF43F00103AC488DF82F
:1025D0004D6084F830302B238DF84C30022302F00C
:1025E00069FB009794F830302A4694F82C1048453F
:1025F00018BF43F00103A2488DF84C8084F83030B6
:102600009DF820308DF84D30022302F053FB0097E7
:1026100094F830302A4694F82C10484518BF43F0FF
:10262000010397488DF84D9084F8303033468DF88B
:102630004C8002F03FFB009708AA94F8303094F8E1
:102640002C10484518BF43F001038D4884F8303002
:10265000334602F057FB009794F830302A4694F83E
:102660002C10484518BF43F00103854884F83030EA
:10267000022302F01FFB009794F830302A4694F8AA
:102680002C10484518BF43F001037D488DF84D607C
:1026900084F830302C238DF84C30022302F00AFBF2
:1026A000009794F830302A4694F82C10484518BF0B
:1026B00043F0010372488DF84C8084F830309DF867
:1026C00020308DF84D30022302F0F4FA009794F890
:1026D00030302A4694F82C10484518BF43F00103C7
:1026E00067488DF84D9084F8303033468DF84C8033
:1026F00002F0E0FA009708AA94F8303094F82C1011
:10270000484518BF43F001035D4884F83030334634
:1027100002F0F8FA009794F830302A4694F82C101A
:10272000484518BF43F00103554884F83030022370
:1027300002F0C0FA009794F830302A4694F82C1032
:10274000484518BF43F001034D4884F830302D232D
:102750008DF84C300E238DF84D30022302F0AAFA8A
:10276000009794F830302A4694F82C10484518BF4A
:1027700043F0010342488DF84C8084F830309DF8D6
:1027800020308DF84D30022302F094FA009794F82F
:1027900030302A4694F82C10484518BF43F0010306
:1027A00037488DF84D9084F8303033468DF84C80A2
:1027B00002F080FA009708AA94F8303094F82C10B0
:1027C000484518BF43F001032D4884F830303346A4
:1027D00002F098FA009794F830302A4694F82C10BA
:1027E000484518BF43F00103254884F830300223E0
:1027F00002F060FA009794F830302A4694F82C10D2
:10280000484518BF43F001031D488DF84D9084F8EA
:1028100030302E238DF84C30022302F04BFA009713
:1028200094F830302A4694F82C10484518BF43F0ED
:10283000010313488DF84C8084F830309DF8203027
:102840008DF84D30022302F035FA009794F83030BD
:102850002A4694F82C10484518BF43F00103084855
:102860008DF84D9084F8303033468DF84C8002F06E
:1028700021FA009708AA94F8303094F82C1001E05F
:1028800058090024484518BF43F00103C64884F89E
:102890003030334602F036FA009794F830302A464A
:1028A00094F82C10484518BF43F00103BE4884F843
:1028B0003030022302F0FEF9009794F830302A46B7
:1028C00094F82C10484518BF43F00103B6488DF822
:1028D0004D6084F830302F238DF84C30022302F005
:1028E000E9F9009794F830302A4694F82C104845BE
:1028F00018BF43F00103AC488DF84C8084F83030A9
:102900009DF820308DF84D30022302F0D3F9009766
:1029100094F830302A4694F82C10484518BF43F0FC
:102920000103A1488DF84D9084F8303033468DF87E
:102930004C8002F0BFF9009708AA94F8303094F860
:102940002C10484518BF43F00103974884F83030F5
:10295000334602F0D7F9009794F830302A4694F8BD
:102960002C10484518BF43F001038F4884F83030DD
:10297000022302F09FF9009794F830302A4694F829
:102980002C10484518BF43F00103874884F83030C5
:1029900030238DF84C3005238DF84D30022302F0A2
:1029A00089F9009794F830302A4694F82C1048455D
:1029B00018BF43F001037C488DF84C8084F8303018
:1029C0009DF820308DF84D30022302F073F9009706
:1029D00094F830302A4694F82C10484518BF43F03C
:1029E000010371488DF84D9084F8303033468DF8EE
:1029F0004C8002F05FF9009708AA94F8303094F800
:102A00002C10484518BF43F00103674884F8303064
:102A1000334602F077F9009794F830302A4694F85C
:102A20002C10484518BF43F001035F4884F830304C
:102A3000022302F03FF9009794F830302A4694F8C8
:102A40002C10484518BF43F0010357488DF84D60DE
:102A500084F8303031238DF84C30022302F02AF90B
:102A6000009794F830302A4694F82C10484518BF47
:102A700043F001034C488DF84C8084F830309DF8C9
:102A800020308DF84D30022302F014F9009794F8AD
:102A900030302A4694F82C10484518BF43F0010303
:102AA00041488DF84D9084F8303033468DF84C8095
:102AB00002F000F9009708AA94F8303094F82C102E
:102AC000484518BF43F00103374884F83030334697
:102AD00002F018F9009794F830302A4694F82C1038
:102AE000484518BF43F001032F4884F830300223D3
:102AF00002F0E0F8009794F830302A4694F82C1051
:102B0000484518BF43F0010327488DF84D9084F8DD
:102B1000303032238DF84C30022302F0CBF800978E
:102B200094F830302A4694F82C10484518BF43F0EA
:102B300001031D488DF84C8084F830309DF820301A
:102B40008DF84D30022302F0B5F8009794F830303C
:102B50002A4694F82C10484518BF43F00103124848
:102B60008DF84D9084F8303033468DF84C8002F06B
:102B7000A1F8009708AA94F8303094F82C10484532
:102B800018BF43F00103084884F83030334602F0A0
:102B9000B9F8009794F830302A4694F82C1048453C
:102BA00018BF43F0010301E058090024C64884F827
:102BB0003030022302F07EF8009794F830302A4635
:102BC00094F82C10484518BF43F00103BE488DF817
:102BD0004D9084F8303033238DF84C30022302F0CE
:102BE00069F8009794F830302A4694F82C1048453C
:102BF00018BF43F00103B4488DF84C8084F830309E
:102C00009DF820308DF84D30022302F053F80097E4
:102C100094F830302A4694F82C10484518BF43F0F9
:102C20000103A9488DF84D9084F8303033468DF873
:102C30004C8002F03FF8009708AA94F8303094F8DE
:102C40002C10484518BF43F001039F4884F83030EA
:102C5000334602F057F8009794F830302A4694F83B
:102C60002C10484518BF43F00103974884F83030D2
:102C7000022302F01FF8009794F830302A4694F8A7
:102C80002C10484518BF43F001038F488DF84D9034
:102C900084F8303034238DF84C30022302F00AF8E7
:102CA000009794F830302A4694F82C10484518BF05
:102CB00043F0010384488DF84C8084F830309DF84F
:102CC00020308DF84D30022301F0F4FF009794F886
:102CD00030302A4694F82C10484518BF43F00103C1
:102CE00079488DF84D9084F8303033468DF84C801B
:102CF00001F0E0FF009708AA94F8303094F82C1007
:102D0000484518BF43F001036F4884F8303033461C
:102D100001F0F8FF009794F830302A4694F82C1010
:102D2000484518BF43F00103674884F83030022358
:102D300001F0C0FF009794F830302A4694F82C1028
:102D4000484518BF43F001035F488DF84D9084F863
:102D5000303035238DF84C30022301F0ABFF009763
:102D600094F830302A4694F82C10484518BF43F0A8
:102D7000010355488DF84C8084F830309DF82030A0
:102D80008DF84D30022301F095FF009794F8303014
:102D90002A4694F82C10484518BF43F001034A48CE
:102DA0008DF84D9084F8303033468DF84C8001F02A
:102DB00081FF009708AA94F8303094F82C10484509
:102DC00018BF43F00103404884F83030334601F027
:102DD00099FF009794F830302A4694F82C10484513
:102DE00018BF43F00103384884F83030022301F063
:102DF00061FF009794F830302A4694F82C1048452B
:102E000018BF43F0010330488DF84D9084F83030FE
:102E10005B238DF84C30022301F04CFF009794F8AF
:102E200030302A4694F82C10484518BF43F001036F
:102E300025488DF84C8084F830309DF820308DF88E
:102E40004D30022301F036FF009794F830302A46C7
:102E500094F82C10484518BF43F001031A488DF828
:102E60004D9084F8303033468DF84C8001F022FFCD
:102E7000009708AA94F8303094F82C10484518BFF1
:102E800043F00103104884F83030334601F03AFF34
:102E9000009794F830302A4694F82C10484518BF13
:102EA00043F00103084884F83030022301F002FFA8
:102EB000009794F830302A4694F82C10484518BFF3
:102EC00043F0010302E000BF580900247A4884F867
:102ED00030305C238DF84C3010238DF84D300223B8
:102EE00001F0E8FE009794F830302A4694F82C1050
:102EF000484518BF43F001036F488DF84C8084F8B3
:102F000030309DF820308DF84D30022301F0D2FE94
:102F1000009794F830302A4694F82C10484518BF92
:102F200043F0010364488DF84D9084F83030334607
:102F30008DF84C8001F0BEFE009708AA94F830305E
:102F400094F82C10484518BF43F001035A4884F800
:102F50003030334601F0D6FE009794F830302A46E0
:102F600094F82C10484518BF43F00103524884F8E8
:102F70003030022301F09EFE009794F830302A464C
:102F800094F82C10484518BF43F001034A4884F8D0
:102F900030305D238DF84C3020238DF84D300223E6
:102FA00001F088FE009794F830302A4694F82C10EF
:102FB000484518BF43F001033F488DF84C8084F822
:102FC00030309DF820308DF84D30022301F072FE34
:102FD000009794F830302A4694F82C10484518BFD2
:102FE00043F0010334488DF84D9084F83030334677
:102FF0008DF84C8001F05EFE009708AA94F83030FE
:1030000094F82C10484518BF43F001032A4884F86F
:103010003030334601F076FE009794F830302A467F
:1030200094F82C106F46484518BF43F0010322481E
:103030008DF84C8084F830308C238DF84D3002238D
:1030400001F038FE40F606321C4B092084F830901F
:1030500008ACCDE9082300F0D3F8ADF848001E20F5
:1030600000F0CEF80B230822CDF82890ADF82230DE
:103070000223ADF84A000DF1580C0D92CDE90B96E4
:10308000CDE90E99CDE910332E460FCC0FC60FCCEB
:103090000FC694E8070086E80700BCE80F000FC7DA
:1030A0009CE80F0087E80F00054895E80E00FEF742
:1030B0002BFF1FB0BDE8F08F580900240105060A58
:1030C0004004002410B500212548264C2DED028B2C
:1030D00000F058F904212248F7EE008A00F0CAF8FF
:1030E00003211F4800F0A6F81D4800F0BFF8B0EE1D
:1030F000408AFFF77FF84FF07C531B490022C8EE4F
:10310000887A9FED1A0A204621616360E360E261DC
:1031100084ED058A84ED020AC4ED067A0FF0AAFC5C
:10312000F0EE407A40F201139FED110A0022204692
:10313000A385C4ED087A227084ED020A0FF09AFC90
:1031400002230C49064884ED080AC4ED018A237065
:1031500000F06CF8FEF796FD642003F05BFCF9E7E5
:103160005008002490080024DB0F49400000C842AA
:103170000000DC436D0A000816485A230122164954
:1031800010B500240361C36240F20C6302628160E7
:10319000416243611149C0E90042C0E90644104A56
:1031A0000FF074FC0F48104B0D4A10498460036007
:1031B0000FF06CFC0E480F49094A04604461046238
:1031C0000FF064FC064A0C490C48BDE810400FF0B3
:1031D0005DBC00BF4009002401080109690A00081C
:1031E0000000002438040024D43901085D0A0008D6
:1031F00050080024450A0008490A000890080024E5
:10320000202882B009D8084B03EB400213F8103095
:10321000507843EA002002B0704701230C2043EAB3
:10322000002002B0704700BF083A0108143001F0D6
:103230000DBA00BF38B500F1140504462DED028B20
:10324000284601F0BFF9284601F0B8F92846B0EE4B
:10325000408A01F0A1F9D0ED007AF8EE677A88EEA5
:10326000277ABDEC028B84ED0E7A38BD143001F064
:10327000A5B900BF38B500F1140504462DED028B49
:10328000284601F08DF9284601F098F92846B0EE5D
:10329000408A01F081F9D0ED007AF8EE677A88EE85
:1032A000277ABDEC028B84ED0E7A38BD253001F013
:1032B000EBBA00BFF0B5032399B0002701251293A4
:1032C00006462C4B09A81595CDE90E7340F2045320
:1032D000ADF84030284BCDE91357099301F0EAF9D6
:1032E00009A801F0C3FA002836D1244B04AF0446E4
:1032F0000090CDF842301023394604958DF82030E7
:103300001F4BCDE91650CDE906506846059301F0F4
:103310003BFC0823009A01A909A8ADF804508DF8D8
:10332000064009940295039300F0E4F800230EA9E7
:1033300038463024049302F017FA03224FF07E53EC
:1033400009A906F114000B930C93CDE90942049AE4
:1033500001F0EAF819B0F0BD40F60132074B1697BC
:1033600004AFADF824200998CDF84230179500F04D
:1033700081F8DBE7040204040303000104060403EC
:103380000704010B2DE9F04304462DED028B83B0B9
:10339000002948D0012140F2011200230091ADF82C
:1033A00004208DF80630304A0126304B271D304965
:1033B00004F12908626040F20272A36040F60663DD
:1033C000E16004F125092682A4F8252084F827600D
:1033D000A4F8293084F82B6003F08AFC694605467E
:1033E00048B304F130008DF8066003F0DFFB072DD1
:1033F00034D104F114052046FFF75CFF284601F0A4
:10340000DDF82846B0EE408A01F0C6F8D0ED007A2B
:10341000F8EE677A88EE277A84ED0E7A03B0BDEC79
:10342000028BBDE8F08340F2011300918DF8061085
:10343000ADF80430B7E704F1300003F0B7FB3946CC
:10344000204601F011FE484601F034F9404601F0F3
:1034500031F904F1120000F077F9CAE73946204645
:1034600001F002FEC5E700BF0508050905070506CE
:10347000050A060610B584B003460124ADF8040021
:1034800003A8ADF80C30ADF80E4001F013F9214659
:1034900003A801F0F9F9204603F0BCFA002103A8C3
:1034A00001F0F2F9204603F0B5FA214603A801F035
:1034B000EBF904B010BD00BF10B5C2F3002384B017
:1034C0000C46017C8DF80D2043EA4402FA240223C5
:1034D0008DF80C2003AA009401F0ECFB18B1012434
:1034E000204604B010BD04460A2003F093FA20469B
:1034F00004B010BD034670B543F8042B044684B0F5
:1035000007C983E80700A37983B91A210B461E2255
:10351000FA2523742046ADF80C20022303AA009557
:1035200001F0C8FB28B1012004B070BD1B210B467F
:10353000EDE70A2003F06EFA4FF4B852009502232B
:10354000ADF80C20204603AA217C01F0B3FB002833
:10355000E9D10A2003F05EFA41F2027200950223DB
:10356000ADF80C20204603AA217C01F0A3FB002823
:10357000D9D10A2003F04EFA042200950223ADF8B7
:103580000C20204603AA217C01F094FB0028CAD11C
:103590000A2003F03FFA062200950223ADF80C2022
:1035A000204603AA217C01F085FB0028BBD10A201C
:1035B00003F030FA41F2082200950223ADF80C2006
:1035C000204603AA217C01F075FB0028ABD10A201C
:1035D000064603F01FFA0095022303AA217C204629
:1035E000ADF80C6001F066FB00289CD1304603F07A
:1035F00011FA009522790C232046002A8DF80C3010
:1036000003AA4FF0020314BF622142218DF80D106E
:10361000217C01F04FFB002885D1304603F0FAF9F8
:103620002279D4E902310B43DBB20AB943F04003FB
:1036300062790AB143F020030E22FA258DF80D308D
:103640002046009502238DF80C2003AA217C01F06E
:1036500031FB00287FF467AF0A2003F0DBF910226A
:1036600000950223ADF80C20204603AA217C01F02E
:1036700021FB00287FF457AF0A2003F0CBF9122179
:1036800000950223ADF80C1003AA217C204601F01E
:1036900011FB00287FF447AF0A2003F0BBF9012299
:1036A00009212046FFF708FF003818BF01203BE73B
:1036B000F0B5102387B0234C0122002501260027F6
:1036C00002A920460195CDE902234FF48052CDE9AD
:1036D000046709F00DFD642003F0B0FD02A94FF46A
:1036E00080522046CDE9046702261027CDE9026703
:1036F00009F0FEFC0322102302A92046CDE9022393
:1037000000230422CDE904234FF4805209F0F0FC99
:1037100040F23223042202A9019310232046CDE96E
:103720000223019A012305924FF48052049309F079
:10373000DFFC40F60601204609F0FAFC284607B0F7
:10374000F0BD00BF7C0900241C4B00221C494FF037
:10375000400C30B5054689B00220596007219A60B7
:103760001A620124DA620A224FF4006EDC600692CB
:103770002022CDE9000104200821CDE90201032027
:103780001021CDE9040108206946C3E904024FF481
:10379000C072181DC3E906C24FF48052C3E909E2A2
:1037A00009F07CFC38B92846FFF782FF003818BFC3
:1037B000012009B030BD204609B030BD7809002491
:1037C00040410052614A0021D0B513688EB00A9181
:1037D000002B40F0B9805E4B01214FF683700C2422
:1037E00011600221D3F8D4200026032742F480522E
:1037F000C3F8D420D3F8D42002F480520092009A67
:10380000D3F8E02042F01002C3F8E020D3F8E02023
:1038100002F010020192019AD3F8E02042F0400237
:10382000C3F8E020D3F8E02002F040020292029AAE
:10383000D3F8E02042F00802C3F8E020D3F8E020FB
:1038400002F008020392039AD3F8E02042F4807257
:10385000C3F8E020D3F8E02002F480720492049AC6
:10386000D3F8E02042F08002C3F8E020D3F8E02053
:1038700002F080020592059AD3F8E02042F020027F
:10388000C3F8E020D3F8E02002F020020692069A66
:10389000D3F8E02042F00402C3F8E020D3F8E0308F
:1038A0000C9403F0040307930323079A0B93CDE9C9
:1038B000080108A9274804F067FD48F237120223DF
:1038C00008A925480C94CDE90823CDE90A6704F03E
:1038D0005BFD4CF20372022308A920480C94CDE949
:1038E0000823CDE90A6704F04FFD40F2FF6202238E
:1038F00008A91B480C94CDE90823CDE90A6704F018
:1039000043FD4FF60C72022308A916480C94CDE92A
:103910000823CDE90A6704F037FD4FF63F02022382
:1039200008A911480C94CDE90823CDE90A6704F0F1
:103930002BFD2022022308A90A480C94CDE90A672E
:10394000CDE9082304F020FD0EB0D0BD7409002499
:10395000004402580010025800180258000C025887
:1039600000200258001C0258001402582DE9F04FA4
:10397000DFF8108406460D46144608F118002DEDB8
:10398000028B89B000AF01F0E7FFD8F8183073B3AD
:10399000D8F81C30D8F80490002B43690BBF4FF0C7
:1039A000080A4FF0100A4FF0020B4FF0040BB9F168
:1039B000000F2AD0A200EA46012B02F1070222F0F2
:1039C0000702ADEB020D6846ADEB020D694600F053
:1039D0003F81022B00F0D680002B6FD02246C847D3
:1039E000D5462437BD46BDEC028BBDE8F08FD8F834
:1039F0001C30002BF5D0D8F804904FF0080A4FF097
:103A0000020B4369B9F1000FD4D1FB61D8F8003043
:103A1000BB61002BE5D0D54802F010F86B46BBF136
:103A2000020F786108EE103AFB6900F083816A4664
:103A30005146A2EBC40295466200EA46B2FBFBF295
:103A4000AAEBC40085460AEB8200EE46F861ADEBB6
:103A5000010DF8690EEB820CC7F810C0EC46ADEB17
:103A6000010D00EB8201CCF80400CCF8081001EB4A
:103A700082013869E946CCF80C1000EB8201CCF8E1
:103A800000A001EB8202C9E900E0C9E90212012BA2
:103A900000F06483022B00F06C82002B00F0808128
:103AA000620849466046BB69984718EE103A2437C9
:103AB0009D46BD46BDEC028BBDE8F08F002C8DD03D
:103AC0001A46D8ED0C6A9FEDB27A8446331D36F95A
:103AD00022E00CF1080C07EE90EA33F922E0023202
:103AE000F8EEE77A944267EE877A67EEA67A4CEDB5
:103AF000027A07EE90EAF8EEE77A67EE877A67EEE9
:103B0000A67A4CED017AE2D8F9612246C847984E70
:103B1000D8ED0D6A0020F9692B1D9FED9E7A9FED6F
:103B20009E6ADFED9E5A22E0F4EEC67AF1EE10FABC
:103B3000C0F2C88447F6FE72D1ED017A45F8202024
:103B400066EEA77AF4EEC77AF1EE10FA40F2F08052
:103B5000F4EEC67AF1EE10FAC0F2D58447F6FE72A2
:103B600043F820200230083184427FF639AFD1ED8E
:103B7000007A66EEA77AF4EEC77AF1EE10FAD3D89F
:103B80003246D9E7002C3FF429AFD8ED0C6A8446C1
:103B90009FED787A0022331D8E4656F822100CF1E4
:103BA000080C07EE901A53F822100232F8EEE77A6A
:103BB000944267EE877A67EEA67A4CED027A07EEBA
:103BC000901AF8EEE77A67EE877A67EEA67A4CED00
:103BD000017AE2D871462246C7F81CE0C847664E13
:103BE000D8ED0D6A0020F9692B1D9FED6A7A9FEDD3
:103BF0006A6ADFF894C120E0F4EEC67AF1EE10FABA
:103C0000C0F279843246D1ED017A45F8202066EE83
:103C1000A77AF4EEC77AF1EE10FA40F28780F4EE5C
:103C2000C67AF1EE10FAC0F25E84324643F82020E4
:103C30000230083184427FF6D3AED1ED007A66EED1
:103C4000A77AF4EEC77AF1EE10FAD5D86246DAE731
:103C5000002C3FF4C3AED8ED0C6A86469FED477A40
:103C60004FF0000C331D56F82C200EF1080E82F494
:103C70000002A2F5000207EE902A53F82C200CF166
:103C8000020CF8EEE77A82F400026445A2F5000225
:103C900067EE877A67EEA67A4EED027A07EE902AF3
:103CA000F8EEE77A67EE877A67EEA67A4EED017A4C
:103CB000D9D8F9612246C847314ED8ED0D6A0020A7
:103CC000F9692B1D9FED337A9FED336ADFF8BCC095
:103CD0001FE0F4EEC67AF1EE10FAC0F2FC83324631
:103CE000D1ED017A45F8202066EEA77AF4EEC77A86
:103CF000F1EE10FA18D9F4EEC67AF1EE10FAC0F22D
:103D0000DA83324643F820200230083184427FF6BD
:103D100067AED1ED007A66EEA77AF4EEC77AF1EEDF
:103D200010FAD6D86246DBE76246EBE762467DE7EB
:103D3000324615E7A100D6466208073121F0070197
:103D4000ADEB010DEA46ADEB010D6946ADEB0E0D95
:103D50000AEB8200EC46ADEB0E0D01EB8202F8613E
:103D6000E946CCE900A0C9E9001290E6CC0900249C
:103D70000280FFFF000000300082FF7F000000345F
:103D800082FF7F00B0090024007E00807E0080FF5B
:103D90000000003804FF7FBF04FF7F3F00FEFF46A6
:103DA000002C00F0C982BBF1020FD8F8242000F0EB
:103DB000FA827969C7F8049002EB810E5FED0C5A24
:103DC0008A00DCF808100EF104007A611A46DCF86B
:103DD0000C303B61331DD7F810903D61FD69C7E998
:103DE00002CB8C46834636F92210D8ED0C7A06EECB
:103DF000101A33F9221006EE901A3EF92210B8EE8E
:103E0000C66A07EE101AF8EEE66A3BF92210B8EE21
:103E1000C77A26EE256A66EEA56A27EE257A26EE93
:103E2000276A66EEA76A27EE277A07EE901A5108EE
:103E30000232F8EEE77A0AEB8100944280ED006AE4
:103E400005EB810067EEA57AC0ED006A0CEB8100FE
:103E500009EB810180ED007A98ED0C7A67EE877AA4
:103E6000C1ED007ABFD8D7F804903D69D7E902CBFD
:103E700060466208BB6949469847D8F82C307A6991
:103E8000D8ED0D6A1A441FED3D7A1FED3D6A2B1DDA
:103E9000904602F1040A5FED3F5A0022A84ED9E98C
:103EA00000EC51E0F4EEC67AF1EE10FAC0F2C782EF
:103EB00047F6FE7045F822000CEB0100D0ED007AC9
:103EC00066EEA77AF4EEC77AF1EE10FA4BD9F4EE6B
:103ED000C67AF1EE10FAC0F2BA8247F6FE70BBF174
:103EE000020F43F822002BD0D9F808000844D0ED87
:103EF000007A66EEA77AF4EEC77AF1EE10FA36D9B8
:103F0000F4EEC67AF1EE10FAC0F2CD8247F6FE70FA
:103F100048F82200D9F80C000144D1ED007A66EE91
:103F2000A77AF4EEC77AF1EE10FA1ED9F4EEC67A4B
:103F3000F1EE10FAC0F2AF8247F6FE714AF8221095
:103F4000023294427FF6B1AD51080EEB8100890038
:103F5000D0ED007A66EEA77AF4EEC77AF1EE10FAA9
:103F6000A0D83046A6E73046B9E73146E6E7304606
:103F7000CEE7002C00F0E081BBF1020FD8F824302E
:103F800000F0E1817A69DCF8081003EB820EC7F8D3
:103F900004909300DFED6B5A0EF1040000227B6168
:103FA000DCF80C303B61331DD7F810903D61FD69A2
:103FB000C7E902CB8C46834656F82210D8ED0C7A1E
:103FC00007EE101A53F82210B8EEC76A07EE101A5F
:103FD0005EF82210F8EEC76A07EE101A26EE256A80
:103FE0005BF82210B8EEC77A66EEA56A26EE276A5D
:103FF00027EE257A66EEA76A27EE277A07EE901A53
:1040000051080232F8EEE77A0AEB8100944280ED23
:10401000006A05EB810067EEA57AC0ED006A0CEB43
:10402000810009EB810180ED007A98ED0C7A67EE52
:10403000877AC1ED007ABFD8D7F804903D69D7E9F7
:1040400002CB60466208BB6949469847D8F82C30D5
:104050007A69D8ED0D6A1A449FED3E7A9FED3E6A6B
:10406000131D9246DFF8E4C00022FB612B1D364E83
:10407000D9E9008E4EE0F4EEC67AF1EE10FAC0F205
:10408000FC81304645F822000EEB0100D0ED007AAD
:1040900066EEA77AF4EEC77AF1EE10FA49D9F4EE9B
:1040A000C67AF1EE10FAC0F2EF813046BBF1020F92
:1040B00043F822002AD0D9F808000844D0ED007A4D
:1040C00066EEA77AF4EEC77AF1EE10FA35D9F4EE7F
:1040D000C67AF1EE10FAC0F2C98130464AF82200E1
:1040E000D9F80C000144D1ED007A66EEA77AF4EE1F
:1040F000C77AF1EE10FA1ED9F4EEC67AF1EE10FA94
:10410000C0F2AD813146F86940F822100232944283
:104110007FF6CBAC510808EB81008900D0ED007A26
:1041200066EEA77AF4EEC77AF1EE10FAA3D86046ED
:10413000A8E76046BAE76146E5E76046CEE700BF1C
:104140000280FFFF000000300082FF7F007E0080C1
:104150000000003404FF7FBF04FF7F3F002C00F00D
:10416000EB807A690021D8F82430C7F8109003EB6F
:10417000820ED7F81C909300FD610EF104021FED32
:104180000C6A7B61331D154656F821204808D8ED8E
:104190000C6ABBF1020F82F40002A2F5000207EEE6
:1041A000902A53F8212082F40002B8EEE77AA2F5B3
:1041B000000227EE067A07EE902A0AEB8002F8EE5C
:1041C000E77A27EE267A67EE867A82ED007A09EBA7
:1041D00080024FEA800067EEA67AC2ED007A27D00F
:1041E0005EF8212082F40002A2F5000207EE902A78
:1041F00055F8212082F40002B8EEE77AA2F5000219
:1042000027EE067A07EE902ADCF80820F8EEE77A27
:10421000024427EE267A67EE867A82ED007A98EDE0
:104220000C7ADCF80C2067EE877A0244C2ED007A43
:1042300002318C42A8D8D7F8109060466208BB695A
:104240004946FD699847D8F82C307A69D8ED0D6A4F
:104250001A441FED407A1FED406A131D9246DFF8A5
:10426000C4C20022FB612B1DAB4ED9E9008E4EE08B
:10427000F4EEC67AF1EE10FAC0F2C580304645F889
:1042800022000EEB0100D0ED007A66EEA77AF4EE84
:10429000C77AF1EE10FA49D9F4EEC67AF1EE10FAC7
:1042A000C0F2BF803046BBF1020F43F822002AD093
:1042B000D9F808000844D0ED007A66EEA77AF4EE4B
:1042C000C77AF1EE10FA35D9F4EEC67AF1EE10FAAB
:1042D000C0F2AE8030464AF82200D9F80C00014402
:1042E000D1ED007A66EEA77AF4EEC77AF1EE10FA15
:1042F0001ED9F4EEC67AF1EE10FAC0F28B80314688
:10430000F86940F82210023294427FF6CEAB510891
:1043100008EB81008900D0ED007A66EEA77AF4EE12
:10432000C77AF1EE10FAA3D86046A8E76046BAE76C
:104330006146E5E76046CEE7224649466046BB69EE
:104340009847FFF7B2BBC7F810B0002298ED0C6A8F
:10435000331DDFED726AD7F81CB0786956F8221069
:1043600007EE901A53F82210B8EEE77A07EE901A8B
:1043700051080232F8EEE77A27EE267A0AEB810E30
:1043800094420BEB810167EEA67A27EE067A67EE80
:10439000867A8EED007AC1ED007ADFD88300D7F8F7
:1043A00010B07B614DE61A46C7F810B098ED0C6A64
:1043B000331DDFED5B6AD7F81CB0786936F922103F
:1043C00007EE101A33F9221007EE901AB8EEC77AEA
:1043D00051080232F8EEE77A27EE267A0AEB810ED0
:1043E00094420BEB810167EEA67A27EE067A67EE20
:1043F000867A8EED007AC1ED007ADFD88300D7F897
:1044000010B07B6134E5F0EE675AFEEEE45A15EE2B
:10441000900A34E7F0EE675AFEEEE45A15EE901A71
:104420006EE7F0EE675AFEEEE45A15EE900A3AE7B0
:10443000F0EE675AFEEEE45A15EE900A4BE767EE8F
:10444000A57AFDEEE77A17EE900A00B232E567EE44
:10445000A57AFDEEE77A17EE900A00B23FE5F0EE9E
:10446000675AFEEEE05A15EE901A4CE6F0EE675AE7
:10447000FEEEE05A15EE900A30E6F0EE675AFEEED8
:10448000E05A15EE900AFDE5F0EE675AFEEEE05AAE
:1044900015EE900A0AE667EEA57AFDEEE77A17EECA
:1044A000901A09B24AE567EEA57AFDEEE77A17EEB3
:1044B000900A00B22CE5F0EE675AFEEEE45A15EED3
:1044C000902A1FE467EEA57AFDEEE77A17EE902AB0
:1044D00012B2FFF731BBF0EE675AFEEEE45A15EE6A
:1044E000902AFFF7FDBBF0EE675AFEEEE05A15EE9C
:1044F000902AFFF79BBBF0EE675AFEEEE05A15EEEE
:10450000902AFFF780BB67EEA57AFDEEE77A17EEFB
:10451000902A12B2FFF724BB82FF7F000000003018
:10452000000000387E0080FF30B5184C154685B07D
:10453000046004F1080EEC460FC98EE80F00D4EDBC
:10454000047AF5EEC07A8CE80F00F1EE10FA1ADD6D
:10455000B7EE006A94ED057A27EE277AC6EE276A51
:1045600084ED0D7AC4ED0C6A6DB1204640F8185FF9
:1045700001F0F2F9064903690020064A2162A262AD
:10458000E36005B030BD012005B030BDB0090024A6
:10459000002000300000003000680830704700BF85
:1045A000B1F5807F03680A4628BF4FF48072B1F5E9
:1045B000807F9A6094BF0020012070470068183007
:1045C00001F02ABA70B504688AB0A369E160CBB182
:1045D00004F11805284601F0BFF98446EE46E66866
:1045E000BCE80F00AEE80F00BCE80F00AEE80F001B
:1045F0009CE803008EE8030069462846049601F013
:10460000B3F8F8B9E069D8B104F11C05284601F007
:10461000A3F98446EE46E468BCE80F00AEE80F005C
:10462000BCE80F00AEE80F009CE803008EE8030032
:1046300069462846049401F097F8003818BF012015
:104640000AB070BD01200AB070BD00BF30B504686B
:1046500083B00D46E3694BB1A3680020E26A616A4A
:104660009B00009004F11C0001F078F9A368074852
:10467000A26A9B00216A009004F1180001F06EF913
:104680000020C4E9005003B030BD00BF6D39000800
:1046900010B4074B4FF07E513024002203201961E3
:1046A0009C60D8605DF8044B5961C3E906227047ED
:1046B000B00900248378022B30B504468FB037D080
:1046C000032B33D0012B31D000230A93E378012B45
:1046D0002AD0022B28D000230B93002320460C93D2
:1046E00002F08AFC0546204602F08EFC23780990F1
:1046F000082B13D8DFE803F01F3245586B7E91A4D6
:104700000500594BD3F8E02042F48072C3F8E02052
:10471000D3F8E03003F480730893089B09A9284676
:1047200003F032FE0FB030BD0B93D6E70A93CDE70E
:1047300011230A93CAE74C4B09A92846D3F8E02075
:1047400042F00102C3F8E020D3F8E03003F00103A7
:104750000093009B03F018FE0FB030BD424B09A937
:104760002846D3F8E02042F00202C3F8E020D3F854
:10477000E03003F002030193019B03F005FE0FB04C
:1047800030BD394B09A92846D3F8E02042F0040295
:10479000C3F8E020D3F8E03003F004030293029B57
:1047A00003F0F2FD0FB030BD2F4B09A92846D3F816
:1047B000E02042F00802C3F8E020D3F8E03003F034
:1047C00008030393039B03F0DFFD0FB030BD264BBE
:1047D00009A92846D3F8E02042F01002C3F8E020EF
:1047E000D3F8E03003F010030493049B03F0CCFDF6
:1047F0000FB030BD1C4B09A92846D3F8E02042F089
:104800002002C3F8E020D3F8E03003F02003059342
:10481000059B03F0B9FD0FB030BD134B09A9284625
:10482000D3F8E02042F04002C3F8E020D3F8E030B3
:1048300003F040030693069B03F0A6FD0FB030BDC6
:10484000094B09A92846D3F8E02042F08002C3F8BA
:10485000E020D3F8E03003F080030793079B03F0D8
:1048600093FD0FB030BD00BF0044025838B5054677
:1048700002F0C2FB0446284602F0C6FB0146204671
:10488000BDE8384003F088BF70B506460D4602F01B
:10489000B3FB0446304602F0B7FB2A1E0146204611
:1048A00018BF0122BDE8704003F07CBF0023122234
:1048B00070B586B0CDE9022304930368032B01D8B9
:1048C00004230593061D841D304602F095FB054622
:1048D000304602F099FB034601A92846019303F0F4
:1048E00053FD204602F088FB034620461C4602F09A
:1048F0008BFB01A903462046019303F045FD06B05A
:1049000070BD00BF634A0368934210B58CB028D0D5
:10491000614A934258D0614A934200F09480604AC1
:10492000934201D00CB010BD5E4C5F48D4F8E0302B
:1049300043F00203C4F8E030D4F8E03003F002039F
:104940000A930A9BFFF7B2FFD4F8F43043F08003D8
:10495000C4F8F430D4F8F43003F080030B930B9BCD
:10496000E0E7504C5148D4F8E03043F00203C4F87B
:10497000E030D4F8E03003F002030193019BFFF72D
:1049800095FFD4F8E83000221F2043F400131146AD
:10499000C4F8E830D4F8E83003F400130293029B23
:1049A000D4F8D83043F00103C4F8D830D4F8D83064
:1049B00003F001030393039B02F06AFC1F200CB079
:1049C000BDE8104002F0A2BC364C3948D4F8E030C3
:1049D00043F08003C4F8E030D4F8E03003F0800303
:1049E0000493049BD4F8E03043F00203C4F8E030B1
:1049F000D4F8E03003F002030593059BFFF756FF60
:104A0000D4F8E8300022212043F480031146C4F892
:104A1000E830D4F8E83003F480030693069BD4F81A
:104A2000D83043F00103C4F8D830D4F8D83003F0BC
:104A300001030793079B02F02BFC21200CB0BDE87B
:104A4000104002F063BC1B48FFF730FF154B0022FB
:104A50004820D3F8E840114644F40004C3F8E84085
:104A6000D3F8E84004F400040894089CD3F8D84034
:104A700044F00104C3F8D840D3F8D83003F0010360
:104A80000993099B02F004FC48200CB0BDE81040DB
:104A900002F03CBC0054004000580040005C004064
:104AA000001C005800440258740C0024EC09002437
:104AB000C40A00249C0B00242DE9F0431A4B87B054
:104AC00000254FF010099E46EC46184BFF22E046A9
:104AD00067461A700EF118060EF13004CDE9005544
:104AE000CDE90255ADF80090BCE80F00CDE90455C2
:104AF000AEE80F009CE803000095ADF800908EE84A
:104B00000300B8E80F000FC69CE803000095ADF85D
:104B1000009086E803000FCF0FC49CE8030084E8F0
:104B2000030007B0BDE8F08334000024E809002446
:104B300010B5EFF3108472B6084B1A78120602D53E
:104B400004B962B610BD1B78D82205485BB202FBDF
:104B50000300143003F0C6F8F2E700BFE8090024B0
:104B6000EC090024014804F0DDBE00BF780A0024EF
:104B7000014804F0D7BE00BF500B0024014804F0E8
:104B8000D1BE00BF280C00242DE9F0430F68D824C3
:104B90003F4D85B007FB04F4032F05EB04030360CE
:104BA00040DCCB680E46012B3CD84DD04FF0D808E6
:104BB000B646DFF8FC9008FB0758BEE80F00C44675
:104BC000ACE80F00DEF800300DF1100ECCF800302C
:104BD000D8F808C099E80F000EE90F000EEB870324
:104BE000BCF1010F53F8103CC8F88C3031D0BCF147
:104BF000020F42D0BCF1000F35D0317C8C34D82369
:104C0000002201202C4403FB07534900C3E926027C
:104C1000C3F894102046C3E92822C3E92A2204F0ED
:104C2000CBFA18B1012005B0BDE8F083014620465B
:104C300004F084FE0028F5D10146204604F0A8FEC9
:104C4000003818BF0120EEE70B7C103B672BADD975
:104C5000E8E702F04BF80F4B98420CBF0E4B0F4B9E
:104C6000C8F89030C9E702F041F80A4B98420CBFEF
:104C70000B4B0C4BC8F89030BFE702F037F8054BF0
:104C800098420CBF084B094BC8F89030B5E700BFFD
:104C9000EC090024000E27072D0FB0303211D02070
:104CA0005F4390608A62E030200BA0101A098010E8
:104CB000943901082DE9F041D0F8008082B00D460A
:104CC00017461E4608F18C04204604F033FE2028C7
:104CD000FAD1D8F80C3073B96D002046089C3346E1
:104CE0003A46A9B2009404F0BDFA003818BF01207A
:104CF00002B0BDE8F081089B32463946204604F0F8
:104D00005BFCF2E72DE9F041D0F8008082B00D465F
:104D100017461E4608F18C04204604F00BFE20289E
:104D2000FAD1D8F80C3073B96D002046089C334690
:104D30003A46A9B2009404F069FB003818BF01207C
:104D400002B0BDE8F081089B32463946204604F0A7
:104D500017FDF2E7044B10221A7483F8E82083F859
:104D6000C02183F898227047EC09002430B5002355
:104D700095B04FF48071062204460B93069213936C
:104D8000CDE90C13CDE90E33CDE9113301F0B0FFBD
:104D900007282BD004F1100541F2883206A92846D5
:104DA00005F008FC28B10123184684F85C3015B0E2
:104DB00030BD0222022306A92846CDE90023102295
:104DC0000123CDE9022300224FF48003CDE904231F
:104DD00005224FF0807306926A460F9341F28833A2
:104DE00005F054FD0028DED115B030BD03230120AD
:104DF00084F85C3015B030BD70B50023A4B04FF01E
:104E000080724FF480750446ADF806300D93CDE9FD
:104E100010320122CDE90E53CDE91223CDE914332E
:104E2000002943D0F02300F1100508AEADF806309C
:104E3000C02341F2883231462846089305F0BAFB78
:104E400028B10123184684F85C3024B070BD41F2CB
:104E500088320DF10601284605F016FC03460028AD
:104E6000EFD105224FF480711E93284616924FF021
:104E700080721B9321931F9202AA9FED1F7BCDE9A5
:104E80001C13CDE922338DED027B9FED1D7B41F29A
:104E9000883316A98DED047B9FED1B7B8DED067B82
:104EA00005F0F4FC0028CCD124B070BD00F1100551
:104EB00008AE612341F2883231462846089305F056
:104EC00079FB0028BDD141F288320DF10601284658
:104ED00005F058FC0028B4D1BDF80630204623F078
:104EE000780343F04003ADF80630FFF73FFF00289A
:104EF0009ED0A6E7AFF30080000000000100000094
:104F00001000000001000000000000000000400050
:104F10002DE9F04F00234FF4807501264FF0807883
:104F200004462DED028BABB08DF80730139321931F
:104F3000299314950E96CDF85C80CDE91533CDE913
:104F40001863CDE91A33CDE92253CDE92433CDE9F5
:104F5000273306231C9301F0CBFE072808D004F169
:104F6000100741F288321CA9384605F023FB40B1F6
:104F70000123184684F85C302BB0BDEC028BBDE8F1
:104F8000F08F4FF0020A4FF0020B4FF0050941F28B
:104F9000883308AA1CA93846CDF89480CDF87090C3
:104FA0009FED2D8BCDE908AB4FF0000A4FF4800B3D
:104FB0008DED0A8BCDE90CAB05F068FC0028D7D14C
:104FC00041F2883238460EA905F0F4FA0028CFD114
:104FD000402341F288320DF1070138468DF8073041
:104FE00005F052FB0028C3D141F288330EA902AA72
:104FF0003846CDF83890CDF85C809FED197B8DED6B
:10500000048BCDE906AB8DED027B05F03FFC03463A
:105010000028ADD1CDF870904FF00109CDF8948003
:105020004FF00008219308AA29931CA9384622951D
:10503000CDE92333CDE9273341F288338DED0A8B57
:10504000CDE90CABCDE9088905F020FC002893D010
:10505000304684F85C608FE710000000010000001B
:1050600040000000400000002DE9F043624CA3B076
:105070000D46046001F03CFE072800F0A980286876
:1050800023466968AA6807C31E46AB8926F8043B15
:105090003046257B677B05F06FFAE0B9574B012D51
:1050A0004FF00108E061236114BF4FF480134FF407
:1050B0000003C4E9058893FAA3F3B3FA83F34FF42A
:1050C0008079013BC4F82490C4E90B003046236288
:1050D00005F0E6F938B10122134684F85C20184641
:1050E00023B0BDE8F08366230B90139041F2883221
:1050F00006A90693CDE90C90CDE90E00CDE911008B
:10510000304605F057FA0028E5D1992341F288325C
:1051100006A93046069305F04DFA0028DBD1052399
:105120001C9019906A4614934FF08073219014A933
:105130001D9341F288339FED2A7BCDE91A90CDE98A
:105140001F008DED007B9FED287B30468DED027BAF
:105150009FED277B8DED047B05F098FB0028BAD1ED
:1051600029462046FFF748FE0028B4D12046FFF725
:10517000CFFE03460028AED1002FB0D118933046A1
:105180000027002606AA14A9CDF86890CDE91F33A0
:10519000EB2314934FF440631B934FF40053179386
:1051A0004FF440431C93A0231693062319934FF00A
:1051B000805321934FF04073CDE906671D9305F0AE
:1051C000DDFB034600288AD0434684F85C8086E7EE
:1051D00001230322184684F85C2023B0BDE8F08345
:1051E00000000000010000001000000001000000AD
:1051F00000000000000040004C0D00240050005250
:105200002DE9F04F8FB0414B0024026800AF9A4265
:105210007C63C7E90944C7E90B4403D03C37BD466A
:10522000BDE8F08F3A4B40F609213A48EB46D3F8F7
:10523000D42007F11C0607F1220A4FF0020942F4BC
:1052400080424FF00308C3F8D420D3F8D42002F4EE
:105250008042BA60BA68D3F8E02042F04002C3F856
:10526000E020D3F8E02002F04002FA60FA68D3F8B8
:10527000E02042F02002C3F8E020D3F8E02002F062
:1052800020023A613A69D3F8E02042F01002C3F8F4
:10529000E020D3F8E02002F010027A617A69D3F8B6
:1052A000E02042F00202C3F8E020D3F8E030F861D9
:1052B00003F002033984BB61174B7B60BB697B68D9
:1052C00053F8040F7B6001F097FE7B680546186871
:1052D00001F09AFE16F8013B786207F12401284696
:1052E000C7F830807B63C7E90A9403F04DF8564550
:1052F000E5D100225C20114601F0CAFF5C2002F0DB
:1053000005F83C37DD46BD46BDE8F08F0050005241
:10531000004402580A0A0909A80D0024114B02682A
:105320009A4200D07047104A70B5D2F8D4300F4C72
:1053300023F4804304F11806C2F8D43054F8040F63
:1053400001F05AFE0546206801F05EFE014628463F
:1053500003F05AF9B442F1D15C20BDE8704001F08D
:10536000E3BF00BF0050005200440258A80D0024C3
:10537000014805F08FBB00BF5C0D0024084B1A1DCF
:10538000981D03F1080110B49C1C9A6603F10A02EF
:10539000C3E91834C3E91B015DF8044B5A67704731
:1053A0004C0D002438B5036871B9026A00F1280574
:1053B00000F5AC74012A0CBF002140218BBB1D4BB2
:1053C0005722C0F858310DE0426A00F1C00500F5DF
:1053D000E874012A0CBF00214021EBB1164B5A2280
:1053E000C0F8D03100232046C4E901214FF4805297
:1053F0004FF48061636262614FF48042C4E903311B
:105400004FF48073C4E906234FF40033236202F0A3
:10541000F1F858B1FFBEFEE7084B5822C0F8D03172
:10542000E0E7074B5922C0F85831DBE7C5E92044D3
:10543000A56338BD10000240700002402800024001
:10544000580002402DE9F043821D05468BB0031D34
:1054500005F10A010830CDE9052305F10C02AB691D
:10546000CDE907010992002B3DD0EB69B3FA83F82F
:105470004FEA58180123022205AE0AAF4FF0060981
:105480000393CDE9012356F8044B2B7922789342FC
:1054900016D02B68F3B1012B02D1F2B10A23049389
:1054A000204601F0B1FD03462046009301F0A4FD23
:1054B000694602F069FFBE42E5D10BB0BDE8F0835A
:1054C000697963789942E4D1B8F1000FF3D02B6881
:1054D000002BE0D1CDF81090E2E76378022B14BFE7
:1054E0000A230823DBE74FF00108C3E7534A0368A8
:1054F000934230B505468BB055D02032934252D0FE
:105500004F4A934204D02032934201D00BB030BDB9
:105510004C4C4D48D4F8E03043F00103C4F8E0307F
:10552000D4F8E03003F001030593059BD4F8E03094
:1055300043F00803C4F8E030D4F8E03003F0080387
:105540000693069BD4F8E03043F04003C4F8E03003
:10555000D4F8E03003F040030793079BD4F8F03011
:1055600043F40003C4F8F030D4F8F03003F400033F
:105570000893089BFFF766FFD4F8D830296843F0FA
:1055800001032F4A3048C4F8D830891AD4F8D830EB
:1055900018BF012103F001030993099B0BB0BDE87B
:1055A0003040FFF7FFBE274C2848D4F8E03043F0E6
:1055B0000103C4F8E030D4F8E03003F001030093B5
:1055C000009BD4F8E03043F01003C4F8E030D4F886
:1055D000E03003F010030193019BD4F8E03043F076
:1055E0004003C4F8E030D4F8E03003F04003029305
:1055F000029BD4F8F03043F48003C4F8F030D4F8C0
:10560000F03003F480030393039BFFF71BFFD4F8F0
:10561000D830296843F00103084A0C48C4F8D83050
:10562000891AD4F8D83018BF012103F0010304937C
:10563000049B0BB0BDE83040FFF7B4BE04580140F6
:10564000045C01400044025820100024C40D0024D2
:10565000014802F047BB00BF1C0F0024014802F0C4
:1056600041BB00BF940F0024014802F03BBB00BFC8
:1056700078110024014802F035BB00BFF01100246E
:105680001A4A0368934210B40BD02032934208D0D8
:10569000174A934216D02032934213D05DF8044B40
:1056A0007047144B0022D3F85442C3F85822002C00
:1056B000F4D0D3F84802D3E9931223465DF8044BA3
:1056C000520818470B4B0022D3F8B044C3F8B42457
:1056D000002CE3D0D3F8AC24D3F8A814D3F8A40456
:1056E000520823465DF8044B184700BF0458014098
:1056F000045C0140C40D0024184A0368934210B4AE
:105700000BD02032934208D0154A934217D0203252
:10571000934214D05DF8044B7047124BD3E99424A4
:105720005208C3F85822002CF4D0D3E99201234642
:1057300001EB820100EB82005DF8044B1847094B36
:10574000D3F8AC24D3F8B0445208C3F8B424002CE6
:10575000E0D0D3F8A814D3F8A404E8E70458014033
:10576000045C0140C40D00242DE9F04F0C684FF497
:105770001776754F87B004FB06F6012C07EB060A77
:10578000C0F800A000F3A0800D468E464FF0000840
:10579000D44669A3D3E9002369A1D1E90001CDE989
:1057A000022306ABCAF8508203EB8403CDE904015F
:1057B00053F810BC53F8083CCAE992880193BEE83C
:1057C0000F00ACE80F00BEE80F00ACE80F00019B33
:1057D0009EE80300CAF828B0CAF8C0308CE803007D
:1057E0002B69042B0CD8DFE803F0737D879103004D
:1057F0004FF41773554A03FB04739A64C3F8E0200F
:10580000AA692B6A002A43D0002B4FF4177308BFF4
:10581000022203FB047318BF0322DA6201221A6317
:10582000EA696B6A002A40D1191E4FF4177318BF3A
:10583000012103FB0473C3E931126B69022B05D804
:10584000434A12F80380434A52F823904FF41773E7
:1058500006F128004246494603FB047400233844FD
:1058600063646363E365C4F8DC30C4F8CC30C4F827
:10587000F430C4E90F33C4E91533C4E93533C4E95E
:105880003B33022307F0A8F9002849D0FFBEFEE70A
:10589000191E4FF4177318BF012103FB0473C3E9EA
:1058A0000B12EA696B6A002ABED0002B4FF4177303
:1058B00008BF022203FB047318BF0322C3F8C420ED
:1058C0000122C3F8C820B8E7012007B0BDE8F08F77
:1058D0004FF417734FF4FA5203FB04739A64C3F83E
:1058E000E0208DE74FF417734FF47A5203FB0473F3
:1058F0009A64C3F8E02083E74FF417734FF4FA4239
:1059000003FB04739A64C3F8E02079E74FF417733C
:105910004BF6803203FB04739A64C3F8E0206FE710
:1059200006F1C000022342464946384407F054F9C4
:105930000028CAD0FFBEFEE704580140045C0140C5
:1059400024580140245C0140C40D0024007701006C
:105950004C3A0108503A01080068704770B5046875
:1059600082B015460E46C4F85032C4E99212069A27
:10597000C4F85422A269012A26D0626A012A9AB286
:1059800011D0294604F1C000019207F0E1F9236A21
:10599000019A012B10D0294604F1280007F0D8F90C
:1059A000002002B070BD04F1C000019207F062FA5D
:1059B000236A019A012BEED1314604F1280007F049
:1059C00059FA002002B070BD226A012A9AB211D0A1
:1059D000294604F12800019207F0BAF9636A019A96
:1059E000012B10D0294604F1C00007F0B1F90020C6
:1059F00002B070BD04F12800019207F03BFA636A1F
:105A0000019A012BEED1314604F1C00007F032FAC1
:105A1000002002B070BD00BF03681B69042B05D8CD
:105A2000044A02EB830393ED000A70479FED020ADC
:105A3000704700BF5C3A010800803B470368D3F819
:105A40005802704770B5002304464FF48062042169
:105A50004FF440353448C4F83821C4F8D410C4F8A1
:105A60003431C4F84C113149C4F8B000C4F82811DD
:105A7000C4E92F32C4E93133C4E93335C4E93733DB
:105A8000C4E94F33C4E95135C4E95533A26803234F
:105A9000C4F8D830C4F85031042A0AD8DFE802F03C
:105AA0001F262D34030055225623C4F8B420C4F811
:105AB0002C310022402304F1B005C4F8B820284658
:105AC000C4F8303101F096FD08B1FFBEFEE704F5E1
:105AD0009476304601F08EFDE8B1FFBEFEE7252248
