:020000040800F2
:10000000000002208906000885060008714A0008E1
:100010008506000885060008850600080000000027
:10002000000000000000000000000000850600083D
:10003000850600080000000085060008F549000854
:100040008506000885060008850600088506000864
:100050008506000885060008850600088506000854
:10006000850600088506000885060008A9470008DF
:10007000B547000885060008C1470008CD470008BD
:1000800005CC0008D53C0008850600088506000858
:100090008506000885060008850600088506000814
:1000A0008506000885060008850600088506000804
:1000B000D9BF0008E5BF0008F1BF0008093D0008EE
:1000C00085060008153D00088506000849B80008A7
:1000D00055B8000839CA000869CA00089DCA000856
:1000E0008506000885060008000000008506000857
:1000F00085060008850600088506000885060008B4
:100100008506000885060008FDBF000861B80008E4
:10011000D1CA000805CB000885060008850600083E
:10012000850600088506000885B80008B9B80008EB
:1001300039CC0008850600088506000885060008F9
:1001400000000000000000000000000000000000AF
:1001500085060008850600088506000839CB0008DA
:10016000213D000885060008054A0008294A0008C4
:10017000850600084D4A0008850600088506000827
:1001800085060008850600086DCB00089DCB000899
:100190006DB8000879B800088506000885060008D3
:1001A0008506000885060008850600088506000803
:1001B000C944000885060008850600088506000871
:1001C0008506000885060008353800084138000813
:1001D000850600084D3800088506000885060008D9
:1001E00085060008850600088506000885060008C3
:1001F00085060008850600088506000885060008B3
:1002000085060008850600088506000885060008A2
:100210008506000885060008850600088506000892
:100220008506000885060008850600080000000015
:100230008506000885060008000000008506000805
:100240008506000885060008850600088506000862
:100250008506000885060008850600088506000852
:100260008506000885060008850600088506000842
:100270008506000885060008D1CB000800000000B4
:1002800085060008850600088506000800000000B5
:080290000000000085060008D3
:1002A00010B5054C237833B9044B13B10448AFF3B0
:1002B00000800123237010BD5806002400000000B8
:1002C0007814010808B5034B1BB103490348AFF389
:1002D000008008BD000000005C06002478140108BE
:1002E00001F0FF01102A2BDB10F0070F08D010F8E7
:1002F000013B013A8B422DD010F0070F42B3F6D1EB
:10030000F0B441EA012141EA014122F007047FF003
:1003100000070023F0E80256083C85EA010586EA5A
:10032000010685FA47F5A3FA87F586FA47F6A5FA96
:1003300087F68EB9EED1F0BC01F0FF0102F00702A2
:1003400032B110F8013B013A83EA010313B1F8D14D
:100350000020704701387047002D06BF354603382E
:10036000073815F0010F07D1013015F4807F02BF67
:10037000013015F4C03F0130F0BC0138704700BFB8
:1003800053B94AB9002908BF00281CBF4FF0FF31FC
:100390004FF0FF3000F074B9ADF1080C6DE904CEF8
:1003A00000F006F8DDF804E0DDE9022304B0704750
:1003B0002DE9F047089D04468E46002B4DD18A4218
:1003C000944669D9B2FA82F252B101FA02F3C2F14B
:1003D000200120FA01F10CFA02FC41EA030E9440DC
:1003E0004FEA1C48210CBEFBF8F61FFA8CF708FBFD
:1003F00016E341EA034306FB07F199420AD91CEBD5
:10040000030306F1FF3080F01F81994240F21C8106
:10041000023E63445B1AA4B2B3FBF8F008FB10334E
:1004200044EA034400FB07F7A7420AD91CEB040483
:1004300000F1FF3380F00A81A74240F20781644453
:10044000023840EA0640E41B00261DB1D4400023D8
:10045000C5E900433146BDE8F0878B4209D9002D3C
:1004600000F0EF800026C5E9000130463146BDE8C6
:10047000F087B3FA83F6002E4AD18B4202D3824230
:1004800000F2F980841A61EB030301209E46002DDF
:10049000E0D0C5E9004EDDE702B9FFDEB2FA82F234
:1004A000002A40F09280A1EB0C014FEA1C471FFA92
:1004B0008CFE0126200CB1FBF7F307FB131140EA79
:1004C00001410EFB03F0884208D91CEB010103F146
:1004D000FF3802D2884200F2CB804346091AA4B208
:1004E000B1FBF7F007FB101144EA01440EFB00FEDC
:1004F000A64508D91CEB040400F1FF3102D2A64541
:1005000000F2BB800846A4EB0E0440EA03409CE7DF
:10051000C6F12007B34022FA07FC4CEA030C20FA8C
:1005200007F401FA06F31C43F9404FEA1C4900FAAC
:1005300006F3B1FBF9F8200C1FFA8CFE09FB181129
:1005400040EA014108FB0EF0884202FA06F20BD99C
:100550001CEB010108F1FF3A80F08880884240F2EC
:100560008580A8F102086144091AA4B2B1FBF9F030
:1005700009FB101144EA014100FB0EFE8E4508D92B
:100580001CEB010100F1FF346CD28E456AD90238B0
:10059000614440EA0840A0FB0294A1EB0E01A14295
:1005A000C846A64656D353D05DB1B3EB080261EB03
:1005B0000E0101FA07F722FA06F3F1401F43C5E9DD
:1005C000007100263146BDE8F087C2F12003D84013
:1005D0000CFA02FC21FA03F3914001434FEA1C4755
:1005E0001FFA8CFEB3FBF7F007FB10360B0C43EA47
:1005F000064300FB0EF69E4204FA02F408D91CEBF7
:10060000030300F1FF382FD29E422DD902386344F4
:100610009B1B89B2B3FBF7F607FB163341EA034194
:1006200006FB0EF38B4208D91CEB010106F1FF38E3
:1006300016D28B4214D9023E6144C91A46EA0046DA
:1006400038E72E46284605E70646E3E61846F8E66C
:100650004B45A9D2B9EB020864EB0C0E0138A3E7B5
:100660004646EAE7204694E74046D1E7D0467BE796
:10067000023B614432E7304609E76444023842E70E
:10068000704700BFFEE700BF0B480C4A904203D002
:10069000121A0B490FF00CFA0A480B4A904203D089
:1006A000121A00210FF012FA04F00AFC0FF0D4F92C
:1006B00000F00EF8FEE700BF0000002458060024FA
:1006C000AC1401085806002458660024704700BF87
:1006D0000021154800B5C1B002F016FC002002F060
:1006E000E1FF124802F0D0FF09200321104B114A0C
:1006F000CDE90010104902A800F034F802A800F07B
:1007000007FA31280CD002A800F002FA3028F5D1FF
:100710000A4802F0B9FF02A800F0FAF93128F2D134
:10072000074802F0B1FFEEE77406002484100108C8
:10073000040000244400002428000024A410010820
:100740009410010804480023044A054903604361EA
:1007500003620FF061B900BF74060024000000249A
:10076000CD0600082DE9F04F9946002383B00446DA
:10077000037000F1200C03814FF0FF330E469DF80B
:100780003080436098309DF834700CF10C0C4FF0C1
:10079000000E4FF0FF3384450CF80CEC4CF8083C8D
:1007A0000CF804EC0CF803ECEFD104F1D303C4F81B
:1007B000B3E0C4F8B7E0009304F1E303C4F8BBE08E
:1007C000C4F8BFE0C4F8C3E0C4F8C7E0C4F8CBE0A5
:1007D000C4F8CFE0C4F8D3E0C4F8D7E0C4F8DBE055
:1007E000C4F8DFE0C4F8E3E0C4F8E7E0C4F8EBE005
:1007F000C4F8EFE00193B8F1000F14D008F1B20B88
:10080000A2F1040A04F1B205A3445AF8040F10F847
:10081000012B02F00F0205F8012F0FF002F95D45E0
:1008200085F82000F1D1A7B107F1C20BA9F10409A5
:1008300004F1C205A34459F8040F10F8012B02F08B
:100840000F0205F8012F0FF0ECF85D4585F8200048
:10085000F1D1009B0A214FF4FA722046C4F8A4306B
:10086000019B84F8AC80C4F8A830002384F8AD70F4
:10087000C4F8A060C4F8F430C4F89C3084F8B230F6
:10088000A4F8AE10A4F8B02003B0BDE8F08F00BF0C
:100890002DE9F84F90F8AD30002B5BD04FF00009F8
:1008A0000446C846D4F8A83004EB080A01262A48B2
:1008B00013F8081000229AF8C33006FA01F1184420
:1008C00089B2800200F0BEFC94F8AC3063B306FA43
:1008D00008F64FF0000BB6B25D46F743BFB20BE02F
:1008E000324304EB43030BF1010B5A805FFA8BF5A3
:1008F00094F8AC30AB4217D9D4F8A4306219012176
:10090000154813F805C092F8B33001FA0CF11844F9
:1009100089B2800200F090FC2B1D04EB4302528848
:100920000028DDD03A40DCE7D4F8A81001229AF87C
:10093000C33011F808109144074802FA01F15FFA38
:1009400089F8184489B2800200F07CFC94F8AD303C
:100950004345A7D8BDE8F88F4100100001EB4103E3
:1009600010B400EB8303012483F8294090F8B240CF
:1009700083F8282044B1D0F8F4306BB161B990F815
:1009800020005DF8044B1847D0F8F42022B193F80A
:1009900020005DF8044B10475DF8044B704700BF22
:1009A00001EB41034FF0000C00EB830370B583F8BB
:1009B00029C00E4693F8283004461546032B0DD85F
:1009C000DFE803F00D020B1700F032F9D4F898308D
:1009D000C01AB4F8B030984217D87DB170BD002D60
:1009E000FCD00122FFF7BAFF00F022F9C4F898000A
:1009F00070BD0022BDE87040FFF7B0BF3146204611
:100A00000322BDE87040FFF7A9BF3146204602220D
:100A1000BDE87040FFF7A2BF2DE9F84F83460746B7
:100A200000F17809034693F828204FF0FF3122B9EE
:100A300083F82020596283F829200C334B45F2D1EA
:100A40009BF8AC30BBB34FF000089BF8ADE0BEF1B3
:100A5000000F2AD05FFA88FA00250AF10406294619
:100A60000BEB46020AFB0E10DC46002352880A41BB
:100A700002F00102DCF82440D9B20CF10C0C013375
:100A8000A04223D00A2BF5D14AB15B46002293F84D
:100A90002040D1B20C331CB301320A2AF7D1013500
:100AA000E9B28E45DCD89BF8AC3008F101085FFA5A
:100AB00088F29342CBD8002097F829300C37002BCE
:100AC00018BF18464F45F7D1BDE8F88F0135584695
:100AD000FFF766FF9BF8ADE0E9B28E45C0D8E2E7CC
:100AE000DBF8A03002EB4202013513F800C00BEB3B
:100AF000820301225862584683F820C083F82840B8
:100B0000FFF74EFF9BF8ADE0E9B28E45A8D8CAE7E3
:100B100038B50123044680F8B23000F089F8D4F8E3
:100B20009C20B4F8AE30801A984204D800231846AE
:100B300084F8B23038BD2046FFF7AAFE2046FFF702
:100B40006BFF054600F074F8C4F89C00002DEDD052
:100B500094F82930002BE9D094F82830012BE5D106
:100B600094F8200038BD00BF704700BF0F4B1B78C2
:100B70000BB90120704710B504464FF47A700C4A47
:100B8000B0FBF3F31068B0FBF3F000F0E1F80F2CCA
:100B900000D808B1012010BD002221464FF0FF30DF
:100BA00000F076F8034B00201C6010BD50000024BC
:100BB000A00000245400002438B50320124D00F09A
:100BC00055F8124C00F0D0FD114A12499369C3F355
:100BD0000323CB5C03F01F0320FA03F30E202B60EA
:100BE000926902F00F028A5C02F01F02D340236078
:100BF000FFF7BCFF10B10124204638BD0446FFF7C3
:100C0000B3FF204638BD00BFA0000024A40000248C
:100C10000044025828110108034A044B11681B784C
:100C20000B441360704700BFB0060024500000243E
:100C3000014B1868704700BFB006002438B5044661
:100C4000FFF7F6FF0546631C02D0044B1B781C44DB
:100C5000FFF7EEFF431BA342FAD338BD5000002438
:100C6000014B1868000C70470010005C06494FF6F5
:100C7000FF0C0002054BCA6800F4E06002EA0C02B7
:100C800010430343CB60704700ED00E00000FA051D
:100C90001B4BDB68C3F3022300B5C3F1070E03F15E
:100CA000040CBEF1040F28BF4FF0040EBCF1060F78
:100CB0001AD9033B4FF0FF3C0CFA03FC22EA0C026A
:100CC0004FF0FF3C00280CFA0EFC21EA0C0101FA5F
:100CD00003F141EA02010ADB09010A4BC9B20344EC
:100CE00083F800135DF804FB00221346E8E700F0E8
:100CF0000F000901044BC9B2034419765DF804FBE7
:100D000000ED00E000E100E0FCEC00E0002807DB83
:100D100000F01F0101234009024A8B4042F82030B5
:100D2000704700BF00E100E000280DDB430901220D
:100D300000F01F000549203302FA00F041F82300BB
:100D4000BFF34F8FBFF36F8F704700BF00E100E02C
:100D5000431EB3F1807F0CD24FF0E0220020064901
:100D60004FF0F00C5361072381F823C090611361A9
:100D700070470120704700BF00ED00E0BFF35F8FB8
:100D8000044B00215A6A22F480325A62C3F894104C
:100D9000704700BF00ED00E0064B40F00100C3F8D3
:100DA00094005A6A42F480325A62BFF34F8FBFF305
:100DB0006F8F704700ED00E0174A4378C2F8983013
:100DC000017821B3436800B5C2F89C30C37A90F82B
:100DD0000CC01B0690F80FE043EA0C7390F80AC0B1
:100DE0000B43817B43EACC4390F80DC043EA8C432C
:100DF00090F809C043EA4143017A43EA0E4343EACB
:100E00000C2343EA4103C2F8A0305DF804FBC2F8AA
:100E10009C10C2F8A010704700ED00E0704700BFC2
:100E200008B5FFF7FBFF08BD2DE9F04F0D6883B053
:100E3000002D00F0D5800023DFF8688201229A405F
:100E400012EA050C00F0C7804E6826F01009B9F1CF
:100E5000020F40F0C88003F007044FEAD30E4FF0B2
:100E60000F0A4FEA840900EB8E0E0AFA09FADEF83F
:100E7000204024EA0A0A0C6904FA09F406F003097E
:100E800044EA0A04CEF820404FEA430E0324D0F887
:100E900000A009FA0EF904FA0EF42AEA040AE4435F
:100EA00049EA0A09C0F80090D0F808A0CF6804EA1F
:100EB0000A0A07FA0EF949EA0A09C0F80890C6F3C7
:100EC0000019D0F804A009FA03F92AEA020249EA53
:100ED00002024260C268F70004EA02048A6802FA69
:100EE0000EF242EA0402C26075D5644C23F0030E90
:100EF00003F00309D4F8F420C6444FEA890942F00C
:100F00000202C4F8F420D4F8F42002F002020192A4
:100F1000019A0F22DEF8084002FA09F224EA0202DE
:100F2000574CA04225D004F58064A0427BD0554C9C
:100F3000A0427ED0544CA0426FD0544CA04200F04E
:100F40008480534CA04200F08680524CA04276D060
:100F5000514CA04200F08580504CA04200F08780A8
:100F60004F4CA0420CBF09240A2404FA09F942EAB2
:100F70000902CEF808204FF0B0426FEA0C0EF403DD
:100F8000D2F880204FF0B04454BF0EEA02024CEA7F
:100F90000202C4F88020B203D4F884404FF0B0427B
:100FA00054BF0EEA04044CEA0404F702C2F8844079
:100FB00014684FF0B04254BF0EEA04044CEA040433
:100FC0001460B40252684FF0B04454BF0EEA0202FB
:100FD0004CEA02026260013335FA03F27FF42EAF6D
:100FE00003B0BDE8F08F4FEA430E0324D0F800B001
:100FF00006F0030A04FA0EF409F1FF390AFA0EFAB0
:101000002BEA040BB9F1010F6FEA04044AEA0B0A58
:10101000C0F800A03FF65EAF46E7032404FA09F9E2
:1010200042EA0902A5E7012404FA09F942EA0902A1
:101030009FE7022404FA09F942EA090299E7062423
:1010400004FA09F942EA090293E7042404FA09F9C7
:1010500042EA09028DE7052404FA09F942EA090285
:1010600087E7072404FA09F942EA090281E708241C
:1010700004FA09F942EA09027BE700BF004402587A
:101080000000025800080258000C025800100258D4
:101090000014025800180258001C02580020025880
:1010A0000024025800040058002900F0A880002302
:1010B0002DE9F04FDFF8689183B0DFF86881DFF841
:1010C00068A1DFF868B14FF0010E0EFA03F212EAE0
:1010D000010C6FD023F0030503F003040F264045F5
:1010E0004D444FEAC404AF6806FA04F607EA06075F
:1010F000019721D0504566D0584567D0434FB8423C
:101100006ED0434FB84270D0424FB84263D0424F86
:10111000B84256D0414FB84272D0DFF814E1704562
:1011200068D0DFF810E1704514BF4FF00A0E4FF0A1
:10113000090E0EFA04F400E00024019FA74219D121
:10114000AC6824EA06064FF0B044AE60D4F8805094
:1011500025EA0C05C4F88050D4F8845025EA0C0523
:10116000C4F88450256825EA0C052560656825EAE1
:101170000C05656003255C0003F007070F2605FAE0
:1011800004F40568BF00254306FA07F70560DD088B
:1011900000EB85052E6A26EA07062E62856825EA99
:1011A00004058560456825EA02024260C26822EAB9
:1011B0000404C460013331FA03F284D103B0BDE802
:1011C000F08F4FF0060E0EFA04F4B6E74FF0020E61
:1011D0000EFA04F4B1E74FF0050E0EFA04F4ACE792
:1011E0004FF0030E0EFA04F4A7E74FF0040E0EFAC8
:1011F00004F4A2E74FF0080E0EFA04F49DE77047DE
:101200004FF0070E0EFA04F497E700BF000C0258E7
:10121000001002580014025800180258001C02580E
:101220000004005800000258000402580008025848
:1012300000200258002402580369194214BF0120FB
:101240000020704702B9090481617047002800F04E
:10125000DE81F8B503680446D80730D59F490A698E
:10126000896A02F03802102A00F00081182A00F082
:10127000F8806368B3F5803F00F02081002B00F018
:101280005E81B3F5A02F954B1A6800F02F8222F4EF
:1012900080321A601A6822F480221A60FFF7C8FCB4
:1012A0008E4E41F28837054605E0FFF7C1FC401B32
:1012B000B84200F2428133689A03F6D523689D074D
:1012C00000F18580D9062FD5844A1369926A03F00C
:1012D0003803082B00F0DA80182B00F0D280E36985
:1012E0007E4D002B00F065812B6843F080032B605E
:1012F000FFF79EFC064605E0FFF79AFC801B0228DC
:1013000000F21B812B68DB05F6D5FFF7A9FC41F243
:101310000303984200F20B826B68226A23F0F843C1
:1013200043EA82636B6023681D0716D563696B4DC2
:10133000002B00F01C816B6F43F001036B67FFF71C
:1013400077FC064605E0FFF773FC801B022800F2DD
:10135000F4806B6F9807F6D523689A0616D5A369B3
:101360005E4D002B00F014812B6843F480532B60FA
:10137000FFF75EFC064605E0FFF75AFC801B0228DB
:1013800000F2DB802B689F04F6D52368590700F133
:101390009B80636ACBB1514D2A6902F03802182A4A
:1013A0006DD0022B2B6823F080732B6000F0398105
:1013B000FFF73EFC044605E0FFF73AFC001B02285D
:1013C00000F2BB802B689B01F6D40020F8BD434A95
:1013D0001369926A13F0380329D1404BE2681B6805
:1013E000590701D5002A4AD03C4D2B6823F0190338
:1013F00013432B60FFF71CFC064605E0FFF718FCC3
:10140000801B022800F299802B685B07F6D5FFF756
:1014100027FC41F20303226998426B6800F2F080D6
:1014200023F47C3343EA02336B6023684AE7182BCA
:1014300000F0E280294DE2682B68002A00F0CB80A2
:1014400023F0190313432B60FFF7F2FB064604E079
:10145000FFF7EEFB801B02286FD82B685F07F7D5DC
:10146000D5E701F0030102297FF403AF1B4A12689C
:1014700091037FF524AF6268002A7FF420AF01203A
:10148000F8BD02F00302012A7FF429AF134B1B6859
:10149000DA0502D5E369802BF1D1FFF7E1FB41F2D8
:1014A00003030E4A9842216A00F2B380536823F086
:1014B000F84343EA81635360236835E7074A1368BA
:1014C00043F480331360E9E6054D2B6843F48073E1
:1014D0002B60FFF7ADFB064609E000BF0044025851
:1014E00000480258FFF7A4FB801B642825D82B680E
:1014F000DA05F7D5A368012B00F02281002B00F05C
:10150000FD80052B954B1A6F00F0208122F001021F
:101510001A671A6F22F004021A67FFF789FB8F4ED1
:1015200041F28837054604E0FFF782FB401BB842D2
:1015300003D8336F9B07F7D52BE70320F8BD874D02
:1015400041F288372B6823F480332B602B6823F417
:1015500080232B60FFF76CFB064604E0FFF768FB77
:10156000801BB842E9D82B689B03F7D4A6E66B6FC3
:1015700023F001036B67FFF75BFB064604E0FFF710
:1015800057FB801B0228D8D86B6F9907F7D4E3E686
:101590002B6823F480532B60FFF74AFB064604E0D8
:1015A000FFF746FB801B0228C7D82B689804F7D4A6
:1015B000EBE62B6823F080032B60FFF739FB064630
:1015C00004E0FFF735FB801B0228B6D82B68DF0547
:1015D000F7D42368A8E623F001032B60FFF728FB6C
:1015E000064604E0FFF724FB801B0228A5D82B68E1
:1015F0005807F7D4236865E690077FF41BAFECE645
:1016000023F0FE4343EA02636B6023685AE601203D
:101610007047D36823F07C5343EA0163D3602368A7
:1016200082E6FFF705FB064604E0FFF701FB801B9F
:10163000022882D82B689901F7D4A96A484BA26A7C
:101640000B404849454E1343E26A43EA0213AB623A
:10165000D4E90D32013B013A5B0212049BB202F461
:10166000FE021343226B013AC2F308021343E26BFA
:10167000013A120602F0FE4213432B63EB6A23F099
:101680000103EB626A6BA36C114041EAC301696319
:10169000EB6A226C23F00C031343EB62EB6A626C7F
:1016A00023F002031343EB62EB6A43F48033EB62F3
:1016B000EB6A43F40033EB62EB6A43F48023EB62A2
:1016C000EB6A43F00103EB622B6843F080732B60FD
:1016D000FFF7AEFA044605E0FFF7AAFA001B02285E
:1016E0003FF62BAF33689A01F6D56EE642F48022BE
:1016F0001A601A6842F480321A60CFE5174D41F241
:1017000088372B6F23F001032B672B6F23F0040323
:101710002B67FFF78DFA064605E0FFF789FA801B75
:10172000B8423FF60AAF2B6F9807F6D431E6EB6864
:10173000226A23F07C5343EA0263EB602368F3E5FB
:10174000064A136F43F001031367E6E642F0040212
:101750001A671A6F42F001021A67DEE60044025867
:101760000CFCFFFF0700FFFF474A136903F0380333
:10177000102B04D0182B0DD01BB14448704744489F
:101780007047136899064AD513684248C3F3C103EA
:10179000D8407047936A30B4946AD56A14F47C7F59
:1017A000516BC4F3051038D0C1F3CC0105F001052D
:1017B00003F0030305FB01F1012B07EE901AB8EECD
:1017C000E77A02D0022B2CD093B307EE900A9FED5C
:1017D000325AF8EEE77A136BC5EE276ADFED2F5A1F
:1017E000C3F3080307EE903AB7EE006AF8EEE77A23
:1017F000E7EE257A77EE867A66EEA76A224B1B6BB8
:10180000C3F34623013307EE903AB8EEE77AC6EE0B
:10181000877AFCEEE77A17EE900A30BC70471D48D5
:10182000704707EE900A9FED1E5AF8EEE77AD2E76E
:1018300013689B0620D5146807EE900A1549F7EE49
:10184000005A136BC4F3C104F8EEE77A9FED135A04
:10185000C3F30803E14006EE903A06EE101AF8EEE4
:10186000E66AB8EEC66AE7EE056A86EE277A76EE95
:10187000A56A66EE876AC1E707EE900A9FED095AEE
:10188000F8EEE77AA7E700BF0044025800093D00E0
:101890000024F4000090D0030024744A00000039B2
:1018A0000024744B0024744C002800F00281874A05
:1018B000136803F00F038B422DE9F04104460D46F7
:1018C0000CD2136823F00F030B431360136803F06B
:1018D0000F038B4202D00120BDE8F08123685F072F
:1018E0000BD57B4920698A6902F07002904204D9C5
:1018F0008A6922F0700202438A611E070BD574497F
:101900006069CA6902F07002904204D9CA6922F083
:1019100070020243CA61D8060BD56D49A069CA6935
:1019200002F4E062904204D9CA6922F4E062024300
:10193000CA6199060BD56649E0690A6A02F070022D
:10194000904204D90A6A22F0700202430A629A079E
:1019500040F1A1805E48E168826902F00F02914285
:1019600004D9826922F00F020A438261D80730D578
:10197000574AA168936923F470630B4393616168CC
:101980001368022900F09780032900F08E80012956
:1019900000F0978058079ED54D4E41F28838336944
:1019A00023F007030B433361FFF742F9074605E0D5
:1019B000FFF73EF9C01B404500F281803369626841
:1019C00003F03803B3EBC20FF2D12368990706D5B1
:1019D000E1683F48826902F00F028A425FD83B49C2
:1019E0000A6802F00F02AA420AD90A6822F00F021E
:1019F0002A430A600A6802F00F02AA427FF46BAF22
:101A00005A070BD5324920698A6902F07002904268
:101A100004D28A6922F0700202438A611F070BD543
:101A20002B496069CA6902F07002904204D2CA6907
:101A300022F070020243CA61DE060BD52449A06978
:101A4000CA6902F4E062904204D2CA6922F4E062F8
:101A50000243CA619D060BD51D4AE169136A03F072
:101A60007003994204D2136A23F070030B4313628C
:101A7000FFF77AFE164A0346164892691649C2F3E2
:101A80000322825C0E2002F01F02D340BDE8F04129
:101A90000B60FFF76BB8DA073FF56AAF9FE7826923
:101AA00022F00F021143816199E79F013FF574AF66
:101AB00011E7012070479B033FF56EAF0BE7032052
:101AC0000AE7DE053FF568AF05E700BF00200052DA
:101AD0000044025828110108A000002408B501F0B4
:101AE00095F9064B06499B69064A03F00F03CB5C48
:101AF00003F01F03D840106008BD00BF0044025827
:101B000028110108A400002410B501F07FF909494B
:101B1000094A8B69094C03F00F03D35C03F01F03E0
:101B2000D8402060CB69C3F30213D35C03F01F03DA
:101B3000D84010BD0044025828110108A400002418
:101B400010B501F063F90949094A8B69094C03F0A2
:101B50000F03D35C03F01F03D8402060CB69C3F3AD
:101B60000223D35C03F01F03D84010BD0044025889
:101B700028110108A4000024F8B53A4CA36A03F028
:101B80000303032B67D0236806460F4623F08063C8
:101B90002360FFF74DF8054604E0FFF749F8431BC3
:101BA000022B56D823681A01F7D4A36A326823F4AB
:101BB0007C3343EA0233A362D6E90232013B013AA5
:101BC0005B0212049BB202F4FE0213437268013AF4
:101BD000C2F3080213433269013A120602F0FE42D0
:101BE0001343A363E36A726923F0C0031343E36200
:101BF000E26AB36922F020021A431B4BE262E26AF6
:101C000022F01002E262E16BF2690B4043EAC20388
:101C1000E363E36A43F01003E362E36AEFB1012F89
:101C20000CBF43F4801343F40013E3620D4C2368AC
:101C300043F080632360FEF7FBFF054604E0FEF7F8
:101C4000F7FF401B022804D823681B01F7D50020AA
:101C5000F8BD0320F8BD0120F8BD43F40023E36282
:101C6000E4E700BF004402580700FFFFF8B53A4C14
:101C7000A36A03F00303032B67D0236806460F46CD
:101C800023F080532360FEF7D3FF054604E0FEF700
:101C9000CFFF431B022B56D823689A00F7D4A36AC0
:101CA000326823F07C7343EA0253A362D6E902321E
:101CB000013B013A5B0212049BB202F4FE021343A1
:101CC0007268013AC2F3080213433269013A1206FC
:101CD00002F0FE4213432364E36A726923F4406313
:101CE0001343E362E26AB36922F400721A431B4BA6
:101CF000E262E26A22F48072E262616CF2690B4095
:101D000043EAC2036364E36A43F48073E362E36A11
:101D1000EFB1012F0CBF43F4000343F08073E36283
:101D20000D4C236843F080532360FEF781FF054686
:101D300004E0FEF77DFF401B022804D823689B00C7
:101D4000F7D50020F8BD0320F8BD0120F8BD43F40D
:101D50008003E362E4E700BF004402580700FFFF8E
:101D60002DE9F8430368044613F0006622D0426E62
:101D7000B2F5001F00F0CE8411D8002A00F0F884DC
:101D8000B2F5801F40F0F18402210430FFF7F4FE29
:101D90000646002E40F08684626E236803E0B2F5AA
:101DA000401F40F0E284A8480026016D21F4401154
:101DB0000A430265DD050AD5626D042A06D8DFE80C
:101DC00012F0A20493049A04DF02DF0201263546D2
:101DD00098051BD5A26D802A00F05B8400F2EC8090
:101DE000002A00F08B83402A40F0ED800021201D66
:101DF000FFF7C2FE23680546002D40F06783924935
:101E0000A06D0A6D22F4E07202430A6559051FD5E0
:101E1000D4F8A420B2F5800F00F0478400F2D680F9
:101E2000002A00F07183B2F5001F40F0D780002136
:101E3000201DFFF7A1FE23680546002D40F04483D6
:101E40008149D4F8A4008A6D22F4600202438A65B5
:101E50001A051FD5D4F8A820B2F1007F00F02E8417
:101E600000F2BF80002A00F05583B2F1807F40F07D
:101E7000C0800021201DFFF77FFE23680546002D4E
:101E800040F02A837049D4F8A8008A6D22F0E062FD
:101E900002438A659F0118D5A26C202A00F0DA83DC
:101EA00000F2AA803AB1102A40F0A9806649CA6AB5
:101EB00042F40032CA62002D40F059836249A06C9E
:101EC000CA6C22F030020243CA64D8041DD5E26D08
:101ED000B2F5005F00F0FB8300F29480002A00F06E
:101EE0001F83B2F5805F40F095800021201DFFF731
:101EF00043FE23680546002D40F0EC825249E06D18
:101F00000A6D22F4E04202430A6599041AD5226E52
:101F1000B2F5003F00F074837FD84AB1B2F5803F3C
:101F200040F083800121201DFFF726FE236805462F
:101F3000002D40F01E834449206E0A6D22F4E022F9
:101F400002430A655A041BD5D4F8AC20B2F1005FF5
:101F500000F060836CD842B1B2F1805F70D1012192
:101F6000201DFFF709FE23680546002D40F003837E
:101F70003549D4F8AC008A6D22F0E04202438A650C
:101F80001F040DD5E26EB2F1805F00F03183B2F133
:101F9000005F00F00182002A00F00482012635462D
:101FA000D8015DD5626C032A00F20A84DFE812F0E2
:101FB000540017034E005400C02A3FF41DAFB2F581
:101FC000807F3FF419AF012635461FE7B2F5C00FF9
:101FD0003FF433AFB2F5000F3FF42FAF0126354683
:101FE00036E7B2F1407F3FF44AAFB2F1806F3FF481
:101FF00046AF012635464DE7302A3FF45CAF012657
:10200000354662E7B2F5405F3FF475AFB2F5804FF9
:102010003FF471AF0126354677E722F48031B1F500
:10202000802F85D0B2F5403F82D00126354689E722
:1020300022F08051B1F1804F97D0B2F1405F94D03F
:10204000012635469CE700BF004402580221201DAE
:10205000FFF792FD23680546002D00F06B822E46A7
:10206000590200F1F081DF072FD5A26F282A2AD864
:10207000DFE812F0D30129002900290029002900F6
:10208000290029006D0329002900290029002900C1
:1020900029002900CC012900290029002900290054
:1020A00029002900D301290029002900290029003D
:1020B00029002900D301290029002900290029002D
:1020C00029002900D30101263546980716D5626FED
:1020D000052A00F27883DFE812F00D0030030600D5
:1020E0000D000D000D00012104F12400FFF7BEFDDD
:1020F00023680546002D00F025822E46590717D586
:10210000D4F89020052A00F26183DFE812F00D0078
:102110000C0306000D000D000D00012104F1240048
:10212000FFF7A4FD23680546002D00F013822E461C
:102130009A061DD5D4F88C20B2F1005F00F04582DC
:1021400000F2DC804AB1B2F1805F40F0E180002112
:10215000201DFFF711FD23680546002D40F0058284
:10216000A949D4F88C004A6D22F0E04202434A6546
:102170005F061DD5D4F89820B2F5006F00F05482A8
:1021800000F2C9804AB1B2F5806F40F0CE800021E4
:10219000201DFFF7F1FC23680546002D40F0C881A3
:1021A0009949D4F898008A6D22F4E05202438A6576
:1021B00018061DD5D4F89C20B2F5804F00F03F8260
:1021C00000F2B6804AB1B2F5005F40F0BB8000215A
:1021D000201DFFF7D1FC23680546002D40F0A681A5
:1021E0008949D4F89C008A6D22F4604202438A65D2
:1021F00019070BD5D4F88010B1F5805F00F03E824E
:102200008148426D22F440520A434265DA060BD5FA
:10221000D4F89410B1F5807F00F025827A48826D61
:1022200022F440720A4382651F030ED5D4F8A01031
:10223000B1F5803F00F0D480B1F5003F00F0D780C9
:10224000002900F0BA810126354658030FD5D4F88D
:102250008420B2F5001F00F0B080B2F5401F00F0FE
:10226000B380B2F5801F00F0A08101263546D90366
:1022700009D5E26C002A00F08681B2F5803F00F0BB
:102280002D81012635469A0000F1D2809F035CD44F
:10229000301E18BF0120DE0206D55B49256F0A6D8E
:1022A00022F000422A430A65DD0007D55649D4F8DA
:1022B000B4500A6922F480422A430A61990206D581
:1022C0005149A56E0A6D22F080722A430A655A00B0
:1022D00009D54D4A116921F4004111611169D4F801
:1022E000B85029431161002B06DA474A216DD36C9F
:1022F00023F040530B43D364BDE8F88322F08051B0
:10230000B1F1804F3FF429AFB2F1405F3FF425AF08
:10231000012635462CE722F48061B1F5805F3FF459
:102320003CAFB2F5406F3FF438AF012635463FE78A
:1023300022F40051B1F5004F3FF44FAFB2F5C04F5A
:102340003FF44BAF0126354652E7E26FB2F5807F8E
:1023500000F0228106D922F48071B1F5007F03D00C
:10236000012098E7002AFBD1002DF9D1264D301E1F
:10237000696D18BF012021F440710A436A658AE73C
:102380003546002D40F0A4801F49606D0A6D22F093
:10239000070202430A651BE50121201DFFF7ECFB44
:1023A00023680546002D40F0DE801749E06E0A6D77
:1023B00022F0405202430A65F2E5012104F12400B3
:1023C000FFF754FC23680546002D40F0DA800E49E3
:1023D000D4F884004A6D22F4401202434A6546E76D
:1023E000022104F12400FFF741FC23680546002D7B
:1023F00040F0C5800449D4F8A0008A6D22F4403230
:1024000002438A6521E700BF00440258012104F11C
:102410002400FFF72BFC23680546002D40F0AD801B
:10242000AF49A06F4A6D22F0380202434A654CE67C
:10243000022104F12400FFF719FC236800283FF46F
:1024400025AF012622E7A74F3B6843F480733B602A
:10245000FEF7EEFB804606E0FEF7EAFBA0EB080085
:10246000642800F27E813B68DA05F5D5002D40F046
:10247000A4819B4AD4F8B030116F594011F4407FC9
:102480000BD0116F106F21F4407140F48030106751
:10249000106F20F4803010671167B3F5807F00F073
:1024A0006E8103F44072B2F5407F00F07C818C496C
:1024B0000A6922F47C520A61894AC3F30B03116F43
:1024C0000B4313672368CEE52E46C1E42E469DE4F8
:1024D0002E467DE42E4618E52E46DBE40221201D23
:1024E000FFF74AFB05462368002D53D17C49E06C79
:1024F000CA6C22F480320243CA64C4E67849CA6ACC
:1025000042F40032CA6277E47549CA6A42F4003282
:10251000CA6292E47249CA6A42F40032CA62AEE404
:102520006F49CA6A42F40032CA62E4E42E465FE6AA
:102530002E463DE66A49606CCA6C22F003020243F3
:10254000CA648DE56649606F4A6D22F00702024356
:102550004A65D3E56249D4F890008A6D22F00702FB
:1025600002438A65E4E52E461AE52E4600E62E462D
:10257000ABE42E46E6E42E4602E52E46A5E52E46C1
:1025800063E62E4673E65649CA6A42F40032CA62CE
:10259000002DABD02E4676E65148C16A41F4003199
:1025A000C162002D7FF4DCAEE0E64D49CA6A42F418
:1025B0000032CA62002DE4D109E7201DFFF7DCFAE2
:1025C00005462368002DDAD114E7022104F1240026
:1025D000FFF74CFB05462368002DC6D1C0E54049F6
:1025E000CA6A42F40032CA62002D7FF438ADA1E716
:1025F0003B49CA6A42F40032CA62002DB3D1D4E624
:10260000012104F12400FFF731FB05462368002D6A
:10261000AFD190E4012104F12400FFF727FB054628
:102620002368002DA7D1A3E4022104F12400FFF7C1
:102630001DFB05462368002D7FF47AAFB0E502212B
:1026400004F12400FFF712FB05462368002D7FF4F8
:102650006DAFC5E50221201DFFF78EFA0546236800
:10266000002D84D12AE4022104F12400FFF7FEFAB0
:10267000236800283FF4D8AD0126D5E5022104F1F6
:102680002400FFF7F3FA236800283FF4BFAD0126CA
:10269000BCE5002104F12400FFF7E8FA23680546B1
:1026A000FFF7AABB2368FFF785BB002104F12400D4
:1026B000FFF7DCFA23680546FFF7BFBB002104F1F2
:1026C0002400FFF7D3FA23680546FFF7D8BB0021A3
:1026D00004F12400FFF7CAFA236805460BE400BFA3
:1026E00000440258004802580021201DFFF744FA18
:1026F0002368054645E6002104F12400FFF7B6FAF9
:10270000236805463DE633493546CA6A42F400323D
:10271000CA6236E602212430FFF7A8FA0646002EE8
:102720003FF43AABBEE70121201DFFF725FA05462D
:102730002368002D7FF4FBAC0CE70121201DFFF77F
:102740001BFA05462368002D7FF4D7ACFAE6012179
:10275000201DFFF711FA05462368002D7FF40DAF09
:102760005EE60326236835467DE40126FFF722BB9B
:102770001848C16A41F40031C162FFF714BBFEF78B
:1027800057FADFF85080074641F2883904E0FEF737
:102790004FFAC01B4845E4D8D8F870309B07F6D5EF
:1027A000D4F8B0307DE60B480B4A016902EA1312F7
:1027B00021F47C510A4302617EE623682E4652E4EE
:1027C000012635464CE40126354697E40126354678
:1027D000AEE400BF00440258CFFFFF0008B5FFF78A
:1027E0007DF9054B054A1B6AC3F30213D35C03F062
:1027F0001F03D84008BD00BF00440258281101083B
:10280000584B70B4996A9D6ADE6A15F47C3FC5F333
:102810000532DC6B5CD0C4F3CC0406F0100601F08A
:10282000030106FB04F4012907EE904AB8EEE77AAB
:1028300003D0022975D000294FD007EE902ADFED92
:102840004A6AF8EEE77A9B6B86EEA76A9FED475AD5
:10285000C3F3080306EE903AF7EE005AF8EEE66A84
:10286000E7EE056A76EEA56A66EE266A3D4AB7EEA1
:10287000006A936BC3F3462307EE103AB8EEC77AAB
:1028800070BC37EE067AC6EE877AFCEEE77AC0EDCA
:10289000007A936BC3F3064307EE103AB8EEC77A9B
:1028A00037EE067AC6EE877AFCEEE77AC0ED017A5B
:1028B000936BC3F3066307EE903AF8EEE77A77EE90
:1028C000867A86EEA77ABCEEC77A80ED027A7047E8
:1028D00070BCC0E90022826070471968890627D55C
:1028E0001C6807EE902A2249F7EE005A9B6BC4F34E
:1028F000C102F8EEE77A9FED1D5AC3F30803D140F9
:1029000006EE903A06EE101AF8EEE66AB8EEC66ADF
:10291000E7EE056A86EE277A76EEA56A66EE876AA6
:10292000A4E707EE902ADFED136AF8EEE77A8AE76C
:1029300007EE902A9FED105A9B6BB7EE006AF8EEF7
:10294000E77ADFED0A5AC3F30803C5EE276A07EEFC
:10295000903AF8EEE77AE7EE257A77EE867A66EE39
:10296000A76A83E7004402580024744A0000003933
:102970000090D0030024744B0024744C584B70B466
:10298000996A9D6ADE6A15F07C7FC5F305525C6C1E
:102990005CD0C4F3CC0406F4807601F0030106FB9E
:1029A00004F4012907EE904AB8EEE77A03D0022931
:1029B00075D000294FD007EE902ADFED4A6AF8EE75
:1029C000E77A1B6C86EEA76A9FED475AC3F30803AC
:1029D00006EE903AF7EE005AF8EEE66AE7EE056A80
:1029E00076EEA56A66EE266A3D4AB7EE006A136C7B
:1029F000C3F3462307EE103AB8EEC77A70BC37EE41
:102A0000067AC6EE877AFCEEE77AC0ED007A136CA0
:102A1000C3F3064307EE103AB8EEC77A37EE067AEC
:102A2000C6EE877AFCEEE77AC0ED017A136CC3F349
:102A3000066307EE903AF8EEE77A77EE867A86EE4E
:102A4000A77ABCEEC77A80ED027A704770BCC0E905
:102A50000022826070471968890627D51C6807EE36
:102A6000902A2249F7EE005A1B6CC4F3C102F8EE1B
:102A7000E77A9FED1D5AC3F30803D14006EE903A62
:102A800006EE101AF8EEE66AB8EEC66AE7EE056AD8
:102A900086EE277A76EEA56A66EE876AA4E707EEE9
:102AA000902ADFED136AF8EEE77A8AE707EE902ABC
:102AB0009FED105A1B6CB7EE006AF8EEE77ADFED77
:102AC0000A5AC3F30803C5EE276A07EE903AF8EEF8
:102AD000E77AE7EE257A77EE867A66EEA76A83E7ED
:102AE000004402580024744A000000390090D003CA
:102AF0000024744B0024744C584B70B4996A9D6A3E
:102B0000DE6A15F47C7FC5F305125C6B5CD0C4F300
:102B1000CC0406F0010601F0030106FB04F40129D0
:102B200007EE904AB8EEE77A03D0022975D0002963
:102B30004FD007EE902ADFED4A6AF8EEE77A1B6B7A
:102B400086EEA76A9FED475AC3F3080306EE903A54
:102B5000F7EE005AF8EEE66AE7EE056A76EEA56A49
:102B600066EE266A3D4AB7EE006A136BC3F346234E
:102B700007EE103AB8EEC77A70BC37EE067AC6EEAA
:102B8000877AFCEEE77AC0ED007A136BC3F3064355
:102B900007EE103AB8EEC77A37EE067AC6EE877AB5
:102BA000FCEEE77AC0ED017A136BC3F3066307EE20
:102BB000903AF8EEE77A77EE867A86EEA77ABCEE60
:102BC000C77A80ED027A704770BCC0E9002282604B
:102BD00070471968890627D51C6807EE902A224994
:102BE000F7EE005A1B6BC4F3C102F8EEE77A9FEDD3
:102BF0001D5AC3F30803D14006EE903A06EE101AB0
:102C0000F8EEE66AB8EEC66AE7EE056A86EE277A5F
:102C100076EEA56A66EE876AA4E707EE902ADFEDF6
:102C2000136AF8EEE77A8AE707EE902A9FED105ACA
:102C30001B6BB7EE006AF8EEE77ADFED0A5AC3F3D2
:102C40000803C5EE276A07EE903AF8EEE77AE7EE5A
:102C5000257A77EE867A66EEA76A83E70044025803
:102C60000024744A000000390090D0030024744B03
:102C70000024744CB0F5807F00B585B048D0B0F525
:102C8000007F11D0B0F5806F00F08280B0F5006F4A
:102C900052D0B0F5805F2CD0B0F5002F00F09680B8
:102CA000002005B05DF804FB534A136D03F4E07394
:102CB000802B59D012D9C02B26D0B3F5807FEFD10D
:102CC000D36C13F040535BD0B3F1805F00F08D8084
:102CD000B3F1005F494818BF0020E2E7002B3CD069
:102CE000402BDDD101A8FFF78BFD019805B05DF801
:102CF00004FB414A136D03F4E043B3F5005F33D0A6
:102D000029D9B3F5405F58D13D4805B05DF804FBC3
:102D1000394B1B6D03F00703042BC1D801A252F8F5
:102D200023F000BF5B2D0008E52C0008692D00088A
:102D3000092D0008772D00082F4A936D03F0E063FA
:102D4000B3F1007F10D01DD9B3F1407FDCD0B3F1D7
:102D5000806FB5D0A4E7002B34D101A8FFF7CCFEDB
:102D6000029805B05DF804FB01A8FFF707FE019883
:102D700005B05DF804FB204BDB6C13F04053A3D18E
:102D800020488EE7002BE8D0B3F1807FAAD087E7F8
:102D9000194A936D03F46003B3F5800FE4D005D8AE
:102DA000002BDAD0B3F5001F9CD079E7B3F5C00F44
:102DB000AAD0B3F5000F83D072E7B3F5804F3FF48C
:102DC0007FAF6DE7B3F5805F8CD069E70A4A936DFA
:102DD00003F44033B3F5803F09D0B3F5003F3FF42F
:102DE0006FAF002B7FF45CAF7CE7074859E701A881
:102DF000FFF7C4FD039854E7004402580024F40090
:102E00000080BB000090D00300093D0008B5FEF72C
:102E1000ABFC064B06499B69064AC3F30323CB5C14
:102E200003F01F03D840106008BD00BF00440258E3
:102E300028110108A0000024F0B5032399B0002751
:102E40000125129306462C4B09A81595CDE90E7362
:102E500040F20453ADF84030284BCDE913570993A5
:102E600000F0FAFC09A800F0D3FD002836D1244B6D
:102E700004AF04460090CDF8423010233946049543
:102E80008DF820301F4BCDE91650CDE9065068462D
:102E9000059300F04BFF0823009A01A909A8ADF89B
:102EA00004508DF8064009940295039300F0E4F86D
:102EB00000230EA938463024049301F08DFC032230
:102EC0004FF07E5309A906F114000B930C93CDE942
:102ED0000942049A00F00CFB19B0F0BD40F6013233
:102EE000074B169704AFADF824200998CDF842306F
:102EF000179500F081F8DBE70402040403030001E6
:102F0000040604030704010B2DE9F04304462DEDEC
:102F1000028B83B0002948D0012140F20112002326
:102F20000091ADF804208DF80630304A0126304B70
:102F3000271D304904F12908626040F20272A36043
:102F400040F60663E16004F125092682A4F82520F5
:102F500084F82760A4F8293084F82B6001F066FF1C
:102F60006946054648B304F130008DF8066001F06B
:102F7000BBFE072D34D104F114052046FFF75CFF9A
:102F8000284600F0F1FA2846B0EE408A00F0E8FA50
:102F9000D0ED007AF8EE677A88EE277A84ED0E7A23
:102FA00003B0BDEC028BBDE8F08340F20113009149
:102FB0008DF80610ADF80430B7E704F1300001F0E9
:102FC00093FE3946204601F0FBF8484600F044FCE9
:102FD000404600F041FC04F1120000F077F9CAE726
:102FE0003946204601F0ECF8C5E700BF05080509A1
:102FF00005070506050A060610B584B00346012438
:10300000ADF8040003A8ADF80C30ADF80E4000F0A8
:1030100023FC214603A800F009FD204601F098FD9D
:10302000002103A800F002FD204601F091FD214699
:1030300003A800F0FBFC04B010BD00BF10B5C2F344
:10304000002384B00C46017C8DF80D2043EA440235
:10305000FA2402238DF80C2003AA009400F0FCFE51
:1030600018B10124204604B010BD04460A2001F026
:103070006FFD204604B010BD034670B543F8042B25
:10308000044684B007C983E80700A37983B91A21ED
:103090000B461E22FA2523742046ADF80C2002238D
:1030A00003AA009500F0D8FE28B1012004B070BD3D
:1030B0001B210B46EDE70A2001F04AFD4FF4B85200
:1030C00000950223ADF80C20204603AA217C00F0D5
:1030D000C3FE0028E9D10A2001F03AFD41F2027254
:1030E00000950223ADF80C20204603AA217C00F0B5
:1030F000B3FE0028D9D10A2001F02AFD0422009550
:103100000223ADF80C20204603AA217C00F0A4FE87
:103110000028CAD10A2001F01BFD062200950223D7
:10312000ADF80C20204603AA217C00F095FE002873
:10313000BBD10A2001F00CFD41F2082200950223C8
:10314000ADF80C20204603AA217C00F085FE002863
:10315000ABD10A20064601F0FBFC0095022303AA2E
:10316000217C2046ADF80C6000F076FE00289CD152
:10317000304601F0EDFC009522790C232046002A10
:103180008DF80C3003AA4FF0020314BF62214221D4
:103190008DF80D10217C00F05FFE002885D13046AF
:1031A00001F0D6FC2279D4E902310B43DBB20AB933
:1031B00043F0400362790AB143F020030E22FA255E
:1031C0008DF80D302046009502238DF80C2003AABF
:1031D000217C00F041FE00287FF467AF0A2001F057
:1031E000B7FC102200950223ADF80C20204603AA5C
:1031F000217C00F031FE00287FF457AF0A2001F057
:10320000A7FC122100950223ADF80C1003AA217C23
:10321000204600F021FE00287FF447AF0A2001F08D
:1032200097FC012209212046FFF708FF003818BF4C
:1032300001203BE7F0B5102387B0234C0122002585
:103240000126002702A920460195CDE902234FF46B
:103250008052CDE9046705F08BFF6420FDF7EEFC9A
:1032600002A94FF480522046CDE9046702261027B8
:10327000CDE9026705F07CFF0322102302A9204656
:10328000CDE9022300230422CDE904234FF4805228
:1032900005F06EFF40F23223042202A901931023AD
:1032A0002046CDE90223019A012305924FF4805272
:1032B000049305F05DFF40F60601204605F078FF17
:1032C000284607B0F0BD00BFBC0600241C4B0022FE
:1032D0001C494FF0400C30B5054689B002205960BA
:1032E00007219A601A620124DA620A224FF4006E02
:1032F000DC6006922022CDE9000104200821CDE9FE
:10330000020103201021CDE9040108206946C3E928
:1033100004024FF4C072181DC3E906C24FF4805274
:10332000C3E909E205F0FAFE38B92846FFF782FF43
:10333000003818BF012009B030BD204609B030BDAB
:10334000B806002440410052614A0021D0B51368FC
:103350008EB00A91002B40F0B9805E4B01214FF6F0
:1033600083700C2411600221D3F8D4200026032797
:1033700042F48052C3F8D420D3F8D42002F480520F
:103380000092009AD3F8E02042F01002C3F8E02047
:10339000D3F8E02002F010020192019AD3F8E02065
:1033A00042F04002C3F8E020D3F8E02002F04002EF
:1033B0000292029AD3F8E02042F00802C3F8E0201B
:1033C000D3F8E02002F008020392039AD3F8E02039
:1033D00042F48072C3F8E020D3F8E02002F4807257
:1033E0000492049AD3F8E02042F08002C3F8E0206F
:1033F000D3F8E02002F080020592059AD3F8E0208D
:1034000042F02002C3F8E020D3F8E02002F02002CE
:103410000692069AD3F8E02042F00402C3F8E020B6
:10342000D3F8E0300C9403F0040307930323079AC6
:103430000B93CDE9080108A92748FDF7F5FC48F2F0
:103440003712022308A925480C94CDE90823CDE9B9
:103450000A67FDF7E9FC4CF20372022308A9204831
:103460000C94CDE90823CDE90A67FDF7DDFC40F2B5
:10347000FF62022308A91B480C94CDE90823CDE97B
:103480000A67FDF7D1FC4FF60C72022308A9164813
:103490000C94CDE90823CDE90A67FDF7C5FC4FF68A
:1034A0003F02022308A911480C94CDE90823CDE975
:1034B0000A67FDF7B9FC2022022308A90A480C94E8
:1034C000CDE90A67CDE90823FDF7AEFC0EB0D0BD0B
:1034D000B406002400440258001002580018025894
:1034E000000C025800200258001C02580014025818
:1034F00030B5184C154685B0046004F1080EEC4652
:103500000FC98EE80F00D4ED047AF5EEC07A8CE88E
:103510000F00F1EE10FA1ADDB7EE006A94ED057AAD
:1035200027EE277AC6EE276A84ED0D7AC4ED0C6A81
:103530006DB1204640F8185F01F046FA064903696C
:103540000020064A2162A262E36005B030BD01207E
:1035500005B030BDF006002400200030000000302F
:1035600000680830704700BF0068183001F02EBABC
:1035700010B4074B4FF07E51302400220320196114
:103580009C60D8605DF8044B5961C3E9062270471E
:10359000F0060024704700BFF8B5134F3C687F2C3D
:1035A00007D98023114A42F224411C463B60A2F80D
:1035B0007E100F4D2B68012B0AD90C4E0D4D224663
:1035C0003146284600F02CF90028F8D13860F8BDC3
:1035D00022460649074800F023F90028F7D12B6856
:1035E000386001332B60F8BD2C070024300700241D
:1035F00028070024B007002430B4154C2168F1B12D
:103600004B1E144DE81810F801298C4619460A2A59
:1036100001D00D2A02D14BB1013BF4E70CF10203BA
:103620007F2B10D98023236030BC704701220223F6
:1036300023600D200A236854AB5430BC704701222C
:103640000223044DF4E70CF101026146F0E700BFEC
:103650002C0700243007002410B5094C02460B4605
:10366000084821680844C1F180010CF023FC23685C
:1036700018442060FFF7C0FFFFF78EFF10BD00BFAA
:103680002C070024300700240FB400B583B004A930
:1036900051F8040B0191FFF7DFFF03B05DF804EB75
:1036A00004B0704710B5044600210A4800F032F813
:1036B000002C094B14BF0222002208481A60FFF7B1
:1036C000E3FF0748FFF7E0FF0A20BDE8104001F0E4
:1036D0003FBA00BFB007002428070024E410010807
:1036E000F4100108064A0749074808B50CF094F998
:1036F000034A04490548BDE808400CF08DB900BFF5
:103700000000002495350008B0070024B407002409
:10371000704700BF012910B506D0022915D051B15C
:10372000BDE8104004F0D6BD0A463448344906F0DE
:10373000CFFFE8B1FEE7334B0A46334C33493448F8
:103740001C6006F0C5FF68B1FEE701222C492B483A
:1037500006F0BEFF00B1FEE72E49284806F0DAFF6A
:10376000C0B1FEE72B492A4806F0D4FF60B1FEE75E
:103770002849224806F0CEFF00B1FEE726491F483F
:1037800006F056FF08B3FEE72449214806F050FF33
:10379000A8B1FEE72049194806F04AFF00B1FEE74C
:1037A000164806F0CDFF024640B9164B164C174995
:1037B00017481C6006F08CFF68B1FEE7FEE714486E
:1037C00006F0BEFF0028ABD0FEE70C4806F0B8FFBD
:1037D0000028A5D0FEE70F490D4806F09BFF00B179
:1037E000FEE70E490A4806F023FF00B1FEE708484D
:1037F00006F0A6FF002893D0FEE700BF540A00247D
:10380000F4000024F00C002411370008D800002434
:10381000B807002458010024B8000024A8000024A0
:10382000084691B208B501F03BFC003818BF0120F2
:1038300008BD00BF014804F02BB800BF9835002434
:10384000014804F025B800BF98350024014804F071
:103850001FB800BF983500248378022B30B504468A
:103860008FB037D0032B33D0012B31D000230A93F4
:10387000E378012B2AD0022B28D000230B930023BE
:1038800020460C9301F0EEFF0546204601F0F2FFC2
:1038900023780990082B13D8DFE803F01F3245582E
:1038A0006B7E91A40500594BD3F8E02042F480725E
:1038B000C3F8E020D3F8E03003F480730893089B4A
:1038C00009A92846FDF7B0FA0FB030BD0B93D6E733
:1038D0000A93CDE711230A93CAE74C4B09A928465E
:1038E000D3F8E02042F00102C3F8E020D3F8E03042
:1038F00003F001030093009BFDF796FA0FB030BD73
:10390000424B09A92846D3F8E02042F00202C3F84E
:10391000E020D3F8E03003F002030193019BFDF7B0
:1039200083FA0FB030BD394B09A92846D3F8E020FF
:1039300042F00402C3F8E020D3F8E03003F00403BF
:103940000293029BFDF770FA0FB030BD2F4B09A90F
:103950002846D3F8E02042F00802C3F8E020D3F86C
:10396000E03003F008030393039BFDF75DFA0FB00B
:1039700030BD264B09A92846D3F8E02042F01002BA
:10398000C3F8E020D3F8E03003F010030493049B65
:10399000FDF74AFA0FB030BD1C4B09A92846D3F8F1
:1039A000E02042F02002C3F8E020D3F8E03003F03A
:1039B00020030593059BFDF737FA0FB030BD134B7D
:1039C00009A92846D3F8E02042F04002C3F8E020DD
:1039D000D3F8E03003F040030693069BFDF724FA8A
:1039E0000FB030BD094B09A92846D3F8E02042F0BA
:1039F0008002C3F8E020D3F8E03003F0800307939F
:103A0000079BFDF711FA0FB030BD00BF004402580C
:103A100038B5054601F026FF0446284601F02AFF86
:103A200001462046BDE83840FDF706BC70B50646A5
:103A30000D4601F017FF0446304601F01BFF2A1E19
:103A40000146204618BF0122BDE87040FDF7FABBD1
:103A50000023122270B586B0CDE9022304930368D7
:103A6000032B01D804230593061D841D304601F065
:103A7000F9FE0546304601F0FDFE034601A9284641
:103A80000193FDF7D1F9204601F0ECFE03462046F4
:103A90001C4601F0EFFE01A9034620460193FDF705
:103AA000C3F906B070BD00BF634A0368934210B506
:103AB0008CB028D0614A934258D0614A934200F0BA
:103AC0009480604A934201D00CB010BD5E4C5F48B8
:103AD000D4F8E03043F00203C4F8E030D4F8E0302A
:103AE00003F002030A930A9BFFF7B2FFD4F8F43005
:103AF00043F08003C4F8F430D4F8F43003F08003CA
:103B00000B930B9BE0E7504C5148D4F8E03043F066
:103B10000203C4F8E030D4F8E03003F0020301936C
:103B2000019BFFF795FFD4F8E83000221F2043F4F3
:103B300000131146C4F8E830D4F8E83003F4001359
:103B40000293029BD4F8D83043F00103C4F8D83074
:103B5000D4F8D83003F001030393039BFDF798F8E2
:103B60001F200CB0BDE81040FDF7D0B8364C3948E6
:103B7000D4F8E03043F08003C4F8E030D4F8E0300B
:103B800003F080030493049BD4F8E03043F0020375
:103B9000C4F8E030D4F8E03003F002030593059B4D
:103BA000FFF756FFD4F8E8300022212043F48003C9
:103BB0001146C4F8E830D4F8E83003F480030693E3
:103BC000069BD4F8D83043F00103C4F8D830D4F8B9
:103BD000D83003F001030793079BFDF759F8212024
:103BE0000CB0BDE81040FDF791B81B48FFF730FF5F
:103BF000154B00224820D3F8E840114644F4000455
:103C0000C3F8E840D3F8E84004F400040894089CA2
:103C1000D3F8D84044F00104C3F8D840D3F8D830E2
:103C200003F001030993099BFDF732F848200CB01B
:103C3000BDE81040FDF76AB800540040005800404D
:103C4000005C0040001C005800440258800F002413
:103C5000F80C0024D00D0024A80E00242DE9F04318
:103C60001A4B87B000254FF010099E46EC46184BC2
:103C7000FF22E04667461A700EF118060EF1300476
:103C8000CDE90055CDE90255ADF80090BCE80F0034
:103C9000CDE90455AEE80F009CE803000095ADF8AF
:103CA00000908EE80300B8E80F000FC69CE8030000
:103CB0000095ADF8009086E803000FCF0FC49CE894
:103CC000030084E8030007B0BDE8F0835800002437
:103CD000F50C002410B5EFF3108472B6084B1A7877
:103CE000120602D504B962B610BD1B78D822054869
:103CF0005BB202FB0300143002F0CAFAF2E700BF25
:103D0000F50C0024F80C0024014803F0A7BC00BF08
:103D1000840D0024014803F0A1BC00BF5C0E002408
:103D2000014803F09BBC00BF340F00242DE9F04391
:103D30000F68D8243F4D85B007FB04F4032F05EB33
:103D40000403036040DCCB680E46012B3CD84DD009
:103D50004FF0D808B646DFF8FC9008FB0758BEE8DD
:103D60000F00C446ACE80F00DEF800300DF1100E75
:103D7000CCF80030D8F808C099E80F000EE90F0021
:103D80000EEB8703BCF1010F53F8103CC8F88C30E0
:103D900031D0BCF1020F42D0BCF1000F35D0317CE4
:103DA0008C34D823002201202C4403FB0753490004
:103DB000C3E92602C3F894102046C3E92822C3E9C8
:103DC0002A2203F03DFA18B1012005B0BDE8F083C6
:103DD0000146204603F04EFC0028F5D1014620465E
:103DE00003F072FC003818BF0120EEE70B7C103B9B
:103DF000672BADD9E8E701F017F80F4B98420CBFDD
:103E00000E4B0F4BC8F89030C9E701F00DF80A4B84
:103E100098420CBF0B4B0C4BC8F89030BFE701F039
:103E200003F8054B98420CBF084B094BC8F890307B
:103E3000B5E700BFF80C0024000E27072D0FB030A7
:103E40003211D0205F4390608A62E030200BA010D6
:103E50001A098010501001082DE9F041D0F80080B7
:103E600082B00D4617461E4608F18C04204603F02A
:103E7000FDFB2028FAD1D8F80C3073B96D0020462C
:103E8000089C33463A46A9B2009403F02FFA003852
:103E900018BF012002B0BDE8F081089B32463946C8
:103EA000204603F0F7FAF2E7044B10221A7483F865
:103EB000E82083F8C02183F898227047F80C00248A
:103EC00030B5002395B04FF48071062204460B9361
:103ED00006921393CDE90C13CDE90E33CDE91133DE
:103EE00000F0A4FF07282BD004F1100541F288321E
:103EF00006A9284604F03AFB28B10123184684F8A5
:103F00005C3015B030BD0222022306A92846CDE957
:103F1000002310220123CDE9022300224FF4800365
:103F2000CDE9042305224FF0807306926A460F9371
:103F300041F2883304F086FC0028DED115B030BD94
:103F40000323012084F85C3015B030BD0000000070
:103F500070B50023A4B04FF080724FF48075044612
:103F6000ADF806300D93CDE910320122CDE90E53A4
:103F7000CDE91223CDE91433002943D0F02300F119
:103F8000100508AEADF80630C02341F28832314644
:103F90002846089304F0EAFA28B10123184684F869
:103FA0005C3024B070BD41F288320DF10601284624
:103FB00004F046FB03460028EFD105224FF4807140
:103FC0001E93284616924FF080721B9321931F92E6
:103FD00002AA9FED1F7BCDE91C13CDE922338DEDA5
:103FE000027B9FED1D7B41F2883316A98DED047B8A
:103FF0009FED1B7B8DED067B04F024FC0028CCD1CB
:1040000024B070BD00F1100508AE612341F2883282
:1040100031462846089304F0A9FA0028BDD141F2A0
:1040200088320DF10601284604F088FB0028B4D13F
:10403000BDF80630204623F0780343F04003ADF886
:104040000630FFF73DFF00289ED0A6E7AFF30080C3
:10405000000000000100000010000000010000004E
:1040600000000000000040002DE9F04F00234FF455
:10407000807501264FF0807804462DED028BABB0A1
:104080008DF8073013932193299314950E96CDF84C
:104090005C80CDE91533CDE91863CDE91A33CDE95C
:1040A0002253CDE92433CDE9273306231C9300F0B6
:1040B000BDFE072808D004F1100741F288321CA980
:1040C000384604F053FA40B10123184684F85C30B6
:1040D0002BB0BDEC028BBDE8F08F4FF0020A4FF021
:1040E000020B4FF0050941F2883308AA1CA9384693
:1040F000CDF89480CDF870909FED2D8BCDE908AB75
:104100004FF0000A4FF4800B8DED0A8BCDE90CAB1C
:1041100004F098FB0028D7D141F2883238460EA926
:1041200004F024FA0028CFD1402341F288320DF167
:10413000070138468DF8073004F082FA0028C3D111
:1041400041F288330EA902AA3846CDF83890CDF84E
:104150005C809FED197B8DED048BCDE906AB8DED79
:10416000027B04F06FFB03460028ADD1CDF87090C0
:104170004FF00109CDF894804FF00008219308AA70
:1041800029931CA938462295CDE92333CDE927335D
:1041900041F288338DED0A8BCDE90CABCDE908896E
:1041A00004F050FB002893D0304684F85C608FE721
:1041B000100000000100000040000000400000006E
:1041C0002DE9F043624CA3B00D46046000F02EFED2
:1041D000072800F0A980286823466968AA6807C3F1
:1041E0001E46AB8926F8043B3046257B677B04F0EE
:1041F0009FF9E0B9574B012D4FF00108E0612361B1
:1042000014BF4FF480134FF40003C4E9058893FAF8
:10421000A3F3B3FA83F34FF48079013BC4F82490FD
:10422000C4E90B003046236204F016F938B10122CC
:10423000134684F85C20184623B0BDE8F08366235B
:104240000B90139041F2883206A90693CDE90C90A9
:10425000CDE90E00CDE91100304604F087F90028C1
:10426000E5D1992341F2883206A93046069304F03D
:104270007DF90028DBD105231C9019906A46149320
:104280004FF08073219014A91D9341F288339FED64
:104290002A7BCDE91A90CDE91F008DED007B9FEDC3
:1042A000287B30468DED027B9FED277B8DED047BD7
:1042B00004F0C8FA0028BAD129462046FFF748FE84
:1042C0000028B4D12046FFF7CFFE03460028AED128
:1042D000002FB0D1189330460027002606AA14A953
:1042E000CDF86890CDE91F33EB2314934FF440636E
:1042F0001B934FF4005317934FF440431C93A02398
:104300001693062319934FF0805321934FF0407377
:10431000CDE906671D9304F00DFB034600288AD003
:10432000434684F85C8086E701230322184684F81C
:104330005C2023B0BDE8F083000000000100000015
:10434000100000000100000000000000000040001C
:1043500058100024005000522DE9F04F8FB0414B0F
:104360000024026800AF9A427C63C7E90944C7E9A8
:104370000B4403D03C37BD46BDE8F08F3A4B40F6C6
:1043800009213A48EB46D3F8D42007F11C0607F17F
:10439000220A4FF0020942F480424FF00308C3F8AA
:1043A000D420D3F8D42002F48042BA60BA68D3F89B
:1043B000E02042F04002C3F8E020D3F8E02002F011
:1043C0004002FA60FA68D3F8E02042F02002C3F815
:1043D000E020D3F8E02002F020023A613A69D3F8F5
:1043E000E02042F01002C3F8E020D3F8E02002F011
:1043F00010027A617A69D3F8E02042F00202C3F831
:10440000E020D3F8E030F86103F002033984BB61A7
:10441000174B7B60BB697B6853F8040F7B6001F02E
:1044200021FA7B680546186801F024FA16F8013B6A
:10443000786207F124012846C7F830807B63C7E91A
:104440000A94FCF7F1FC5645E5D100225C201146A8
:10445000FCF71EFC5C20FCF759FC3C37DD46BD46F2
:10446000BDE8F08F00500052004402580A0A0909C2
:10447000B4100024114B02689A4200D07047104AD1
:1044800070B5D2F8D4300F4C23F4804304F11806F1
:10449000C2F8D43054F8040F01F0E4F9054620685E
:1044A00001F0E8F901462846FCF7FEFDB442F1D1DF
:1044B0005C20BDE87040FCF737BC00BF00500052E4
:1044C00000440258B4100024014804F0BFBA00BFF1
:1044D00068100024084B1A1D981D03F1080110B440
:1044E0009C1C9A6603F10A02C3E91834C3E91B0154
:1044F0005DF8044B5A6770475810002438B50368BC
:1045000071B9026A00F1280500F5AC74012A0CBFEC
:10451000002140218BBB1D4B5722C0F858310DE0C4
:10452000426A00F1C00500F5E874012A0CBF0021C1
:104530004021EBB1164B5A22C0F8D031002320465F
:10454000C4E901214FF480524FF4806163626261DB
:104550004FF48042C4E903314FF48073C4E9062369
:104560004FF40033236201F01BFB58B1FFBEFEE79E
:10457000084B5822C0F8D031E0E7074B5922C0F869
:104580005831DBE7C5E92044A56338BD100002407F
:104590007000024028000240580002402DE9F0431C
:1045A000821D05468BB0031D05F10A010830CDE9D7
:1045B000052305F10C02AB69CDE907010992002B37
:1045C0003DD0EB69B3FA83F84FEA58180123022271
:1045D00005AE0AAF4FF006090393CDE9012356F863
:1045E000044B2B792278934216D02B68F3B1012B20
:1045F00002D1F2B10A230493204601F03BF90346AD
:104600002046009301F02EF96946FCF70DFCBE42EE
:10461000E5D10BB0BDE8F083697963789942E4D1C4
:10462000B8F1000FF3D02B68002BE0D1CDF810903B
:10463000E2E76378022B14BF0A230823DBE74FF07D
:104640000108C3E7534A0368934230B505468BB06F
:1046500055D02032934252D04F4A934204D0203258
:10466000934201D00BB030BD4C4C4D48D4F8E030F3
:1046700043F00103C4F8E030D4F8E03003F0010364
:104680000593059BD4F8E03043F00803C4F8E0300C
:10469000D4F8E03003F008030693069BD4F8E0302A
:1046A00043F04003C4F8E030D4F8E03003F04003B6
:1046B0000793079BD4F8F03043F40003C4F8F030BC
:1046C000D4F8F03003F400030893089BFFF766FF6B
:1046D000D4F8D830296843F001032F4A3048C4F891
:1046E000D830891AD4F8D83018BF012103F001035B
:1046F0000993099B0BB0BDE83040FFF7FFBE274C84
:104700002848D4F8E03043F00103C4F8E030D4F88E
:10471000E03003F001030093009BD4F8E03043F055
:104720001003C4F8E030D4F8E03003F01003019334
:10473000019BD4F8E03043F04003C4F8E030D4F8F3
:10474000E03003F040030293029BD4F8F03043F4CE
:104750008003C4F8F030D4F8F03003F480030393FE
:10476000039BFFF71BFFD4F8D830296843F00103FF
:10477000084A0C48C4F8D830891AD4F8D83018BF81
:10478000012103F001030493049B0BB0BDE830400A
:10479000FFF7B4BE04580140045C014000440258D5
:1047A0002C130024D0100024014801F071BD00BF7B
:1047B00028120024014801F06BBD00BFA0120024A4
:1047C000014801F065BD00BF84140024014801F0D8
:1047D0005FBD00BFFC1400242DE9F04F0C684FF4BE
:1047E0001776754F87B004FB06F6012C07EB060A17
:1047F000C0F800A000F3A0800D468E464FF00008E0
:10480000D44669A3D3E9002369A1D1E90001CDE928
:10481000022306ABCAF8508203EB8403CDE90401FE
:1048200053F810BC53F8083CCAE992880193BEE8DB
:104830000F00ACE80F00BEE80F00ACE80F00019BD2
:104840009EE80300CAF828B0CAF8C0308CE803001C
:104850002B69042B0CD8DFE803F0737D87910300EC
:104860004FF41773554A03FB04739A64C3F8E020AE
:10487000AA692B6A002A43D0002B4FF4177308BF94
:10488000022203FB047318BF0322DA6201221A63B7
:10489000EA696B6A002A40D1191E4FF4177318BFDA
:1048A000012103FB0473C3E931126B69022B05D8A4
:1048B000434A12F80380434A52F823904FF4177387
:1048C00006F128004246494603FB0474002338449D
:1048D00063646363E365C4F8DC30C4F8CC30C4F8C7
:1048E000F430C4E90F33C4E91533C4E93533C4E9FE
:1048F0003B33022304F056FB002849D0FFBEFEE7FD
:10490000191E4FF4177318BF012103FB0473C3E989
:104910000B12EA696B6A002ABED0002B4FF41773A2
:1049200008BF022203FB047318BF0322C3F8C4208C
:104930000122C3F8C820B8E7012007B0BDE8F08F16
:104940004FF417734FF4FA5203FB04739A64C3F8DD
:10495000E0208DE74FF417734FF47A5203FB047392
:104960009A64C3F8E02083E74FF417734FF4FA42D8
:1049700003FB04739A64C3F8E02079E74FF41773DC
:104980004BF6803203FB04739A64C3F8E0206FE7B0
:1049900006F1C000022342464946384404F002FBB7
:1049A0000028CAD0FFBEFEE704580140045C014065
:1049B00024580140245C0140D010002400770100FD
:1049C00004110108081101080068704703681B6999
:1049D000042B05D8044A02EB830393ED000A7047C9
:1049E0009FED020A704700BF1411010800803B4789
:1049F000704700BF08B5FCF70FF9BDE80840FCF7A9
:104A00000FBA00BF064808B503680BB101F092FF6A
:104A1000044803681BB1BDE8084002F039BF08BD77
:104A2000A83F0024A0390024064808B503680BB14C
:104A300001F080FF044803681BB1BDE8084002F0A4
:104A400027BF08BDA83F0024A0390024064808B5A8
:104A500003680BB101F06EFF044803681BB1BDE8A9
:104A6000084002F015BF08BDA83F0024A03900246B
:104A7000364BDA6A520062D59A6A9A6A9A6A9B6AD7
:104A8000180600D500BE314B9B6A990600D500BEC2
:104A90002E4B9B6ADA0600D500BE2C4B9B6A1B0787
:104AA00000D500BE294B9B6A980700D500BE274B56
:104AB0009B6AD90700D500BE244B9B6A1A0400D517
:104AC00000BE224B9B6A9B0400D500BE1F4B9B6A15
:104AD000D80400D500BE1D4B9B6A190500D500BE49
:104AE0001A4B9B6A5A0500D500BE184B9B6A9B0562
:104AF00000D500BE154B9B6AD80500D500BE134BF0
:104B00009B6A990100D500BE104B9B6ADA0100D563
:104B100000BE0E4B9B6A1B0300D500BE0B4B9B6A6D
:104B2000580300D500BE094B9B6A990300D500BE0F
:104B3000064B9B6ADA0306D400BE00BEFEE7DB6AC2
:104B40009B07FAD5F8E700BEF6E700BF00ED00E0EE
:104B5000FCF774B82DE9F041CEB004464C22002198
:104B60000AA80AF0B3FF2022002102A80AF0AEFF33
:104B7000BC2200211EA80AF0A9FF022003F084FB3A
:104B80002368012B4FF0000354D0534A02250193B0
:104B9000C820D16A514B21F00101D162D26A02F0E2
:104BA000010201929A6942F440429A619B6903F4BE
:104BB00040430193019B494A93699B04FCD54849B2
:104BC0000224002201268B6A04274FF0080823F0F4
:104BD000030323438B62052316900AA818934FF40E
:104BE00080331096179419941597CDF86880CDE905
:104BF0001B222122CDE91344CDE90A23FCF726FB31
:104C000000B1FEE73F220323294602A8CDE9022393
:104C100000220823CDE9042340224023CDE90623C6
:104C200040234FF48062CDE90823FCF73DFE0346A4
:104C3000B8B1FEE7294A04250093F0209169264B7C
:104C400041F440419161926902F440420092DA6A73
:104C500042F00102DA62DB6A03F001030093009B79
:104C6000A9E720224FF4805125934FF440152B9251
:104C700080222D931EA83093269135914FF4807198
:104C8000249234920C223394439140F227112092C3
:104C90001022CDF884802A971F96CDE92E34CDE9D5
:104CA0003B334FF48033CDE92246319300244693C1
:104CB0000623CDE93E4527934FF48063094C2C939E
:104CC0001E94CDE92812FDF74BF800B1FEE703F082
:104CD00001FB4EB0BDE8F0810004005800480258C6
:104CE000004402580F130F032DE9F0410D4604460E
:104CF00084B0D1E9000184E80300FBF75DFFAE79E1
:104D0000002E37D06F4608F085F8FEF7A7FF06F0B3
:104D10005BFD07F013FE2B79002B54D16B799BB10F
:104D2000BFF34F8FBFF36F8F3C4B0022C3F850226D
:104D3000BFF34F8FBFF36F8F5A6942F400325A614D
:104D4000BFF34F8FBFF36F8F4FF0FF32002300246C
:104D500000253946324802928DF80C30CDE90045E5
:104D600007F052F92E4807F0B7F906F05DF904B0E4
:104D7000BDE8F08120466F46FFF7ECFE0124FBF70B
:104D8000FDFF4FF040534FF4807838460193254B98
:104D9000ADF80040CDE90238FCF70EF819224FF0CB
:104DA000404338468DF80F40ADF80D808DF8014036
:104DB0008DF80A608DF808200193FBF7FDFF0420B1
:104DC000FBF7EAFF9FE7154C0023C4F88430BFF3DC
:104DD0004F8FD4F8803043F6E07EC3F3C906C3F3A7
:104DE0004E334FEA431C0CEA0E00334640EA83720E
:104DF000013BC4F860225A1CF8D1ACF1200C1CF124
:104E0000200FF0D1BFF34F8F636943F480336361A8
:104E1000BFF34F8FBFF36F8F80E700BF00ED00E05F
:104E2000881500240E000103FCF76EBE1C4B9B6826
:104E300003F17842B2F5003F25D3B3F5803F20D38C
:104E400003F16042B2F5003F1FD303F15C42B2F5BB
:104E5000002F1CD303F17042B2F5902F19D303F148
:104E60004842B2F5803F16D303F18042B2F1806F21
:104E700013D303F1E043B3F5000F2CBF0820072044
:104E800070470120704700207047022070470320C0
:104E9000704704207047052070470620704700BF08
:104EA00000ED00E003480023034A044903600AF0D0
:104EB000B3BD00BF8815002400000024F14900089C
:104EC00010B4204C0022204B83B0D4F888101F4827
:104ED00041F47001C4F8881019681D4C41F00101BB
:104EE00019601A61196808401A4918609A61DA61F4
:104EF0001A629A62DA621A635A639A63DA631A640C
:104F00005A64186820F4802018601A66D3F8DC20F0
:104F100042F06042C3F8DC20D3F8DC300193019BFF
:104F200023681940B1F1005F03D20B4B0122C3F893
:104F30000821044B4FF000629A6003B05DF8044B07
:104F4000704700BF00ED00E0004402587FEDF6EA34
:104F50000010005C0000FFFF00800051704700BFA0
:104F60000020704770B50446074E0D463046214676
:104F700005F070FB304605F08FFB044B20462946B8
:104F80001B689847002070BDB80700248C350024AA
:104F900070B50446074E0D463046214605F05AFBD3
:104FA000304605F079FB044B204629461B6898479C
:104FB000002070BD540A00249035002400220949C5
:104FC000094808B505F03CFB0849074805F042FBD5
:104FD000074B1A680AB1002008BD064A00201A6073
:104FE00008BD00BF8C250024B80700248C150024C0
:104FF0008C3500245D4F000800220949094808B596
:1050000005F01EFB0849074805F024FB074B1A680A
:105010000AB1002008BD064A00201A6008BD00BF82
:105020008C2D0024540A00248C1D0024903500246B
:105030005D4F000820280AD0212806D1094B1868A6
:105040009A889B7908608A808B7100207047054B95
:105050000868B1F804C08A7918600020A3F804C079
:105060009A717047C800002420280AD0212806D150
:10507000094B18689A889B7908608A808B71002098
:105080007047054B0868B1F804C08A7918600020A1
:10509000A3F804C09A717047D00000240020704724
:1050A00010B5094CD4F89032D3F814320BB101206A
:1050B00010BD0A460146204605F0C2FA2046BDE86A
:1050C000104005F0CFBA00BFB80700244B4A036870
:1050D00030B593428BB04FF00004CDE90444CDE9E4
:1050E0000644089404D0464A934249D00BB030BDE0
:1050F000444D4FF4C0524448D5F8E03043F001032A
:10510000C5F8E030D5F8E03003F001030093022346
:10511000009904A9CDE904230A230893FBF784FE30
:105120004FF40072002304A937480694CDE9042304
:10513000FBF77AFED5F8D8302246214643F00063CB
:105140006220C5F8D830D5F8D83003F00063019359
:10515000019BFBF79DFD6220FBF7D8FD224621460F
:105160006320FBF795FD6320FBF7D0FD2246214627
:105170006520FBF78DFD6520FBF7C8FD0BB030BD4A
:10518000204D4FF4404204A9D5F8E03043F002032B
:10519000C5F8E030D5F8E03003F0020302930223B3
:1051A00002981A48CDE904230C230893FBF73CFE30
:1051B000D5F8D830224621464A2043F00073C5F87E
:1051C000D830D5F8D83003F000730393039BFBF776
:1051D0005FFD4A20FBF79AFD224621464B20FBF754
:1051E00057FD4B20FBF792FD224621464D20FBF751
:1051F0004FFD4D20FBF78AFD0BB030BD000008408D
:105200000000044000440258000002580004025804
:1052100000F57171D0F8040405F0AABAC1EBC1031E
:1052200000EB8303D0F80404D3F8082205F0CEBACB
:10523000C1EBC10300EB8303D0F804049A6C05F0C2
:1052400003BB00BFD0F8040405F0A2BBC16810B5D1
:10525000044619B1022900D0FEE70121D4F8040464
:1052600005F080FBD4F80404BDE8104005F052BB03
:1052700010B50446D0F8040405F078FB2268D2F893
:10528000003E43F00103C2F8003E236A23B1034A03
:10529000136943F00603136110BD00BF00ED00E089
:1052A000D0F8040405F06CBBD0F8040405F080BB12
:1052B000D0F8040405F07ABBD0F8040405F07ABBFA
:1052C000D0F8040405F078BB70B5067804461EB12A
:1052D000012E30D0002070BD304D0923304AC5F872
:1052E0000404C0F8985228462E612E63C5E90023B5
:1052F00002230222EB600023C5E9062300220023DB
:10530000C5E9082301220123C5E90A2302F008FAAE
:1053100000B1FEE78021284602F096FF3146402288
:10532000284602F067FF80220121284602F062FF32
:105330002678012ECED11B4D09221B4B00216A601D
:1053400002222B600223C5F804442846EB600023A8
:10535000C4F898522961C5E9062300220023C5E953
:105360000823C5E90C2301220023C5E90A2302F022
:10537000D7F9044600B1FEE74FF40071284602F069
:1053800063FF21468022284602F034FF4FF4BA72B0
:105390003146284602F02EFF9CE700BF98350024D6
:1053A00000000840A039002400000440D0F8980212
:1053B00008B502F04BFA032802D8024B185C08BD6E
:1053C000022008BD381101089446D0F898021A4608
:1053D00008B5634602F0C0FD032802D8024B185CF2
:1053E00008BD022008BD00BF38110108D0F898029E
:1053F00008B502F0EFFD032802D8024B185C08BD87
:10540000022008BD38110108D0F8980208B502F052
:1054100071FE032802D8024B185C08BD022008BDAB
:1054200038110108D0F8980208B502F0A7FE032849
:1054300002D8024B185C08BD022008BD38110108D3
:105440000A06D0F8983206D4C1EBC10103EB810102
:1054500091F8FE01704701F07F01C1EBC10103EB40
:10546000810191F83E007047D0F8980208B502F02B
:105470005DFD032802D8024B185C08BD022008BD60
:1054800038110108D0F8980208B502F00BFE032885
:1054900002D8024B185C08BD022008BD3811010873
:1054A000D0F8980208B502F0CBFD032802D8024BD1
:1054B000185C08BD022008BD38110108D0F8980218
:1054C00002F0E6BD122301480B807047240100243E
:1054D000122301480B807047100100240423014867
:1054E0000B8070473801002410B5044C0A4604486C
:1054F000214605F0E1FC204610BD00BFA83D002478
:105500003C11010810B5044C0A460448214605F038
:10551000D3FC204610BD00BFA83D00244C1101085B
:1055200010B5044C0A460448214605F0C5FC204647
:1055300010BD00BFA83D00246011010810B5044C47
:105540000A460448214605F0B7FC204610BD00BFBE
:10555000A83D00246C11010810B5044C0A4604480B
:10556000214605F0A9FC204610BD00BFA83D00243F
:105570007C110108042301480B8070473801002486
:1055800010B5044C0A460448214605F095FC204617
:1055900010BD00BFA83D00243C110108464A4FF051
:1055A0001A0CD2F80008D2F80838A1F800C0C318C5
:1055B00001D142487047180FB3F1204FD2F80418B8
:1055C0004FF0000C3D4A2CBF3730303082F803C01A
:1055D0004FF0000C9070C3F3036082F805C04FF0E9
:1055E000000C092882F807C04FF0000C8CBF373040
:1055F000303082F809C04FF0000C1071C3F3035033
:1056000082F80BC04FF0000C092882F80DC08CBF47
:10561000373030309071C3F3034009288CBF3730E6
:1056200030301072C3F3033009288CBF373030306C
:105630009072C3F3032009288CBF373030301073C9
:10564000C3F3031003F00F0309288CBF3730303049
:10565000092B90734FF0000094BF30333733B1F112
:10566000204FD07313744FEA11734FF000002CBF1A
:1056700037333033507400209374C1F30363D07414
:105680000020092B50754FF000008CBF37333033AA
:10569000D0751375C1F303530848092B8CBF3733FA
:1056A00030339375C1F30343092B94BF3033373341
:1056B000137600235376704700E0F11F3C0100246D
:1056C000464A4FF01A0CD2F80008D2F80838A1F870
:1056D00000C0C31801D142487047180FB3F1204FE2
:1056E000D2F804184FF0000C3D4A2CBF3730303050
:1056F00082F803C04FF0000C9070C3F3036082F88F
:1057000005C04FF0000C092882F807C04FF0000CCC
:105710008CBF3730303082F809C04FF0000C107168
:10572000C3F3035082F80BC04FF0000C092882F835
:105730000DC08CBF373030309071C3F3034009285F
:105740008CBF373030301072C3F3033009288CBF60
:10575000373030309072C3F3032009288CBF3730C4
:1057600030301073C3F3031003F00F0309288CBF0C
:1057700037303030092B90734FF0000094BF303336
:105780003733B1F1204FD07313744FEA11734FF0D8
:1057900000002CBF37333033507400209374C1F3B2
:1057A0000363D0740020092B50754FF000008CBFAC
:1057B00037333033D0751375C1F303530848092BC1
:1057C0008CBF373330339375C1F30343092B94BF38
:1057D00030333733137600235376704700E0F11FE0
:1057E0003C01002410B5044C0A460448214605F04B
:1057F00063FB204610BD00BFA83D00246C110108CA
:1058000010B5044C0A460448214605F055FB2046D5
:1058100010BD00BFA83D002460110108D0F8C002EF
:1058200005F0BCBBD0F8C00205F0D0BBD0F8C00278
:1058300005F0D8BB704700BFD0F8C00205F0BEBB72
:10584000D0F8C00205F0BEBBD0F8D00308B501F017
:1058500031FC032802D8024B185C08BD022008BDA9
:1058600090110108024B027853F82200704700BFE4
:10587000B4110108024B427833F81200704700BFA0
:10588000941101088CB00A2814D8DFE800F0152321
:10589000313F4D5B6977859306004D4BD3F8E0208F
:1058A00042F48062C3F8E020D3F8E03003F4806370
:1058B0000B930B9B0CB07047454BD3F8E02042F0A4
:1058C0000102C3F8E020D3F8E03003F001030193B4
:1058D000019BEFE73E4BD3F8E02042F00202C3F811
:1058E000E020D3F8E03003F002030293029BE1E7EB
:1058F000374BD3F8E02042F00402C3F8E020D3F89D
:10590000E03003F004030393039BD3E7304BD3F859
:10591000E02042F00802C3F8E020D3F8E03003F0C2
:1059200008030493049BC5E7294BD3F8E02042F019
:105930001002C3F8E020D3F8E03003F01003059321
:10594000059BB7E7224BD3F8E02042F02002C3F8D2
:10595000E020D3F8E03003F020030693069BA9E78C
:105960001B4BD3F8E02042F04002C3F8E020D3F80C
:10597000E03003F040030793079B9BE7144BD3F8F9
:10598000E02042F08002C3F8E020D3F8E03003F0DA
:1059900080030893089B8DE70D4BD3F8E02042F479
:1059A0008072C3F8E020D3F8E03003F480730993E9
:1059B000099B7FE7064BD3F8E02042F40072C3F85E
:1059C000E020D3F8E03003F400730A930A9B71E7F8
:1059D000004402580268344B344930B4344D354CDD
:1059E000AA4218BF9A420CBF012300238A4208BF73
:1059F00043F001033031A24208BF43F001033034C9
:105A00008A4208BF43F001033031A24208BF43F08D
:105A1000010330348A4208BF43F0010301F55C7191
:105A2000A24208BF43F0010304F55C748A4208BF38
:105A300043F001033031A24208BF43F00103303488
:105A40008A4208BF43F001033031A24208BF43F04D
:105A5000010330348A4208BF43F001033031A242CF
:105A600008BF43F001038A4208BF43F0010313B9A2
:105A7000114B9A4213D1D3B21049114C103BA1FBE8
:105A800003515F2B0F4BC1F3021103EA0203615C68
:105A900088BF0433C1658365184630BC704722F067
:105AA000FF038365F8E700BF10000240400002409A
:105AB0002800024058000240B8040240ABAAAAAA3B
:105AC000E411010800FCFFFF0368294A294930B4AA
:105AD000294D2A4CAB4218BF93420CBF0122002231
