:020000040800F2
:10000000000002208906000885060008C1270008B4
:100010008506000885060008850600080000000027
:10002000000000000000000000000000850600083D
:100030008506000800000000850600084527000826
:100040008506000885060008850600088506000864
:100050008506000885060008850600088506000854
:10006000850600088506000885060008F9240008B2
:100070000525000885060008112500081D25000833
:1000800025CC0008291A0008850600088506000806
:100090008506000885060008850600088506000814
:1000A0008506000885060008850600088506000804
:1000B000F9BF000805C0000811C000085D1A00085B
:1000C00085060008691A00088506000869B8000856
:1000D00075B8000859CA000889CA0008BDCA0008D6
:1000E0008506000885060008000000008506000857
:1000F00085060008850600088506000885060008B4
:1001000085060008850600081DC0000881B80008A3
:10011000F1CA000825CB00088506000885060008FE
:100120008506000885060008A5B80008D9B80008AB
:1001300059CC0008850600088506000885060008D9
:1001400000000000000000000000000000000000AF
:1001500085060008850600088506000859CB0008BA
:10016000751A000885060008552700087927000839
:10017000850600089D2700088506000885060008FA
:1001800085060008850600088DCB0008BDCB000859
:100190008DB8000899B80008850600088506000893
:1001A0008506000885060008850600088506000803
:1001B0001922000885060008850600088506000843
:1001C0008506000885060008911300089D130008A5
:1001D00085060008A91300088506000885060008A2
:1001E00085060008850600088506000885060008C3
:1001F00085060008850600088506000885060008B3
:1002000085060008850600088506000885060008A2
:100210008506000885060008850600088506000892
:100220008506000885060008850600080000000015
:100230008506000885060008000000008506000805
:100240008506000885060008850600088506000862
:100250008506000885060008850600088506000852
:100260008506000885060008850600088506000842
:100270008506000885060008F1CB00080000000094
:1002800085060008850600088506000800000000B5
:080290000000000085060008D3
:1002A00010B5054C237833B9044B13B10448AFF3B0
:1002B00000800123237010BD2806002400000000E8
:1002C0003C12010808B5034B1BB103490348AFF3C7
:1002D000008008BD000000002C0600243C1201082C
:1002E00001F0FF01102A2BDB10F0070F08D010F8E7
:1002F000013B013A8B422DD010F0070F42B3F6D1EB
:10030000F0B441EA012141EA014122F007047FF003
:1003100000070023F0E80256083C85EA010586EA5A
:10032000010685FA47F5A3FA87F586FA47F6A5FA96
:1003300087F68EB9EED1F0BC01F0FF0102F00702A2
:1003400032B110F8013B013A83EA010313B1F8D14D
:100350000020704701387047002D06BF354603382E
:10036000073815F0010F07D1013015F4807F02BF67
:10037000013015F4C03F0130F0BC0138704700BFB8
:1003800053B94AB9002908BF00281CBF4FF0FF31FC
:100390004FF0FF3000F074B9ADF1080C6DE904CEF8
:1003A00000F006F8DDF804E0DDE9022304B0704750
:1003B0002DE9F047089D04468E46002B4DD18A4218
:1003C000944669D9B2FA82F252B101FA02F3C2F14B
:1003D000200120FA01F10CFA02FC41EA030E9440DC
:1003E0004FEA1C48210CBEFBF8F61FFA8CF708FBFD
:1003F00016E341EA034306FB07F199420AD91CEBD5
:10040000030306F1FF3080F01F81994240F21C8106
:10041000023E63445B1AA4B2B3FBF8F008FB10334E
:1004200044EA034400FB07F7A7420AD91CEB040483
:1004300000F1FF3380F00A81A74240F20781644453
:10044000023840EA0640E41B00261DB1D4400023D8
:10045000C5E900433146BDE8F0878B4209D9002D3C
:1004600000F0EF800026C5E9000130463146BDE8C6
:10047000F087B3FA83F6002E4AD18B4202D3824230
:1004800000F2F980841A61EB030301209E46002DDF
:10049000E0D0C5E9004EDDE702B9FFDEB2FA82F234
:1004A000002A40F09280A1EB0C014FEA1C471FFA92
:1004B0008CFE0126200CB1FBF7F307FB131140EA79
:1004C00001410EFB03F0884208D91CEB010103F146
:1004D000FF3802D2884200F2CB804346091AA4B208
:1004E000B1FBF7F007FB101144EA01440EFB00FEDC
:1004F000A64508D91CEB040400F1FF3102D2A64541
:1005000000F2BB800846A4EB0E0440EA03409CE7DF
:10051000C6F12007B34022FA07FC4CEA030C20FA8C
:1005200007F401FA06F31C43F9404FEA1C4900FAAC
:1005300006F3B1FBF9F8200C1FFA8CFE09FB181129
:1005400040EA014108FB0EF0884202FA06F20BD99C
:100550001CEB010108F1FF3A80F08880884240F2EC
:100560008580A8F102086144091AA4B2B1FBF9F030
:1005700009FB101144EA014100FB0EFE8E4508D92B
:100580001CEB010100F1FF346CD28E456AD90238B0
:10059000614440EA0840A0FB0294A1EB0E01A14295
:1005A000C846A64656D353D05DB1B3EB080261EB03
:1005B0000E0101FA07F722FA06F3F1401F43C5E9DD
:1005C000007100263146BDE8F087C2F12003D84013
:1005D0000CFA02FC21FA03F3914001434FEA1C4755
:1005E0001FFA8CFEB3FBF7F007FB10360B0C43EA47
:1005F000064300FB0EF69E4204FA02F408D91CEBF7
:10060000030300F1FF382FD29E422DD902386344F4
:100610009B1B89B2B3FBF7F607FB163341EA034194
:1006200006FB0EF38B4208D91CEB010106F1FF38E3
:1006300016D28B4214D9023E6144C91A46EA0046DA
:1006400038E72E46284605E70646E3E61846F8E66C
:100650004B45A9D2B9EB020864EB0C0E0138A3E7B5
:100660004646EAE7204694E74046D1E7D0467BE796
:10067000023B614432E7304609E76444023842E70E
:10068000704700BFFEE700BF0B480C4A904203D002
:10069000121A0B490FF018FA0A480B4A904203D07D
:1006A000121A00210FF01EFA02F0B2FA0FF0E0F970
:1006B00000F094F8FEE700BF0000002424060024A8
:1006C000701201082806002424660024704700BF29
:1006D0002DE9F04F2DED028B85B04FF000096B46F0
:1006E00000AF4E4608EE103ACA463B4B07F10C00ED
:1006F0007B6001247D68214600F04EFF04EB8403FB
:10070000E846012C4FEA8303A3F10D02A3F1140183
:1007100022F00702ADEB020D68464DD0C218034629
:10072000143A4FF0000C4FF00B0EC3F804C083F8DE
:1007300000E04FF0FF0EC3E902CC143303F813ECD2
:100740009342EED100EB010B584600F019FF30B197
:10075000032CC5460BD001340935CFE72E78584617
:1007600000F00EFF0028F9D0032CC546F3D10AF1A2
:10077000010A18EE103ABAF1090F9D4625D009F189
:10078000140909F1070323F00703ADEB030D6B46D2
:1007900009EB0300143300220B24FF21834243F8AA
:1007A000102C03F8144C03F8131C43E90322F1D175
:1007B0007B6801337B609CE700EB010B584600F03F
:1007C000DFFE0028CBD0C546C5E730461437BD460E
:1007D000BDEC028BBDE8F08F900F01082DE9F043CE
:1007E0008BB000215D48012502AF00F03BF90020ED
:1007F000DFF87891064600F003FD594800F0F2FC5E
:10080000F31DE846012D05F1FF3123F00703ADEBA1
:10081000030D02A846D000EB060C143000240B2276
:10082000FF23604540F8104C00F8142C00F8133CEE
:1008300040E90344F1D100942346224639F81110CF
:1008400000F0B8FD032DC54635D101254FF0FF3628
:10085000DFF81C91E31DE846691E23F00703ADEBAA
:10086000030D731C02A829D000EB040E14300023E2
:100870004FF00B0CFF22704540F8103C00F814CCF0
:1008800000F8132C40E90333F0D10093012239F82A
:10089000111000F08FFD092DC54619D01434013612
:1008A0000135D7E70023304400931A4639F8111078
:1008B00000F080FDC54614360135A1E70023204431
:1008C0000122009339F8111000F074FDC546E5E7E8
:1008D00007F10C05234CFFF7FBFE00264FF0100C30
:1008E0002149612233462E74C7E901C5C5E9006676
:1008F000C5E9026601E011F8012F0133002AFAD19F
:10090000102B28BF102303EB040C3B60A44522D01E
:10091000144B0CF1FF3C56212A4601E013F8011F4D
:100920009C4502F8011BF9D1BA68D7E900318B4226
:1009300009D2D05400223968BB680B445A703B6816
:10094000BA6801333B60104600F04CFC4FF47A70FB
:1009500001F0A6FFBFE72A461021E8E7440600247D
:10096000780F0108880F0108890F0108180000247A
:100970000400002404480023044A0549036043613D
:1009800003620FF059B800BF4406002400000024A1
:10099000CD060008F0B5032399B000270125129376
:1009A00006462C4B09A81595CDE90E7340F2045369
:1009B000ADF84030284BCDE91357099300F0F6FD10
:1009C00009A800F0CFFE002836D1244B04AF04461E
:1009D0000090CDF842301023394604958DF8203030
:1009E0001F4BCDE91650CDE906506846059301F03E
:1009F00047F80823009A01A909A8ADF804508DF81A
:100A0000064009940295039300F0E4F800230EA930
:100A100038463024049301F087FD03224FF07E53C3
:100A200009A906F114000B930C93CDE90942049A2D
:100A300000F00CFB19B0F0BD40F60132074B1697E1
:100A400004AFADF824200998CDF84230179500F096
:100A500081F8DBE704020404030300010406040335
:100A60000704010B2DE9F04304462DED028B83B002
:100A7000002948D0012140F2011200230091ADF875
:100A800004208DF80630304A0126304B271D3049AE
:100A900004F12908626040F20272A36040F6066326
:100AA000E16004F125092682A4F8252084F8276056
:100AB000A4F8293084F82B6002F060F869460546F6
:100AC00048B304F130008DF8066001F0B5FF072D42
:100AD00034D104F114052046FFF75CFF284600F0EE
:100AE000F1FA2846B0EE408A00F0E8FAD0ED007A3C
:100AF000F8EE677A88EE277A84ED0E7A03B0BDECC3
:100B0000028BBDE8F08340F2011300918DF80610CE
:100B1000ADF80430B7E704F1300001F08DFF39463D
:100B2000204601F0F5F9484600F040FD404600F04F
:100B30003DFD04F1120000F077F9CAE7394620467E
:100B400001F0E6F9C5E700BF050805090507050638
:100B5000050A060610B584B003460124ADF804006A
:100B600003A8ADF80C30ADF80E4000F01FFD214693
:100B700003A800F005FE204601F092FE002103A824
:100B800000F0FEFD204601F08BFE214603A800F098
:100B9000F7FD04B010BD00BF10B5C2F3002384B050
:100BA0000C46017C8DF80D2043EA4402FA2402230E
:100BB0008DF80C2003AA009400F0F8FF18B101246E
:100BC000204604B010BD04460A2001F069FE20460C
:100BD00004B010BD034670B543F8042B044684B03E
:100BE00007C983E80700A37983B91A210B461E229F
:100BF000FA2523742046ADF80C20022303AA0095A1
:100C000000F0D4FF28B1012004B070BD1B210B46B9
:100C1000EDE70A2001F044FE4FF4B852009502239C
:100C2000ADF80C20204603AA217C00F0BFFF00286D
:100C3000E9D10A2001F034FE41F20272009502234C
:100C4000ADF80C20204603AA217C00F0AFFF00285D
:100C5000D9D10A2001F024FE042200950223ADF828
:100C60000C20204603AA217C00F0A0FF0028CAD156
:100C70000A2001F015FE062200950223ADF80C2093
:100C8000204603AA217C00F091FF0028BBD10A2056
:100C900001F006FE41F2082200950223ADF80C2077
:100CA000204603AA217C00F081FF0028ABD10A2056
:100CB000064601F0F5FD0095022303AA217C20469B
:100CC000ADF80C6000F072FF00289CD1304601F0B6
:100CD000E7FD009522790C232046002A8DF80C3080
:100CE00003AA4FF0020314BF622142218DF80D10B8
:100CF000217C00F05BFF002885D1304601F0D0FD5B
:100D00002279D4E902310B43DBB20AB943F0400344
:100D100062790AB143F020030E22FA258DF80D30D6
:100D20002046009502238DF80C2003AA217C00F0B8
:100D30003DFF00287FF467AF0A2001F0B1FD1022CB
:100D400000950223ADF80C20204603AA217C00F078
:100D50002DFF00287FF457AF0A2001F0A1FD1221DA
:100D600000950223ADF80C1003AA217C204600F068
:100D70001DFF00287FF447AF0A2001F091FD0122FA
:100D800009212046FFF708FF003818BF01203BE784
:100D9000F0B5102387B0234C01220025012600273F
:100DA00002A920460195CDE902234FF48052CDE9F6
:100DB000046708F0EDF9642002F01EFD02A94FF46B
:100DC00080522046CDE9046702261027CDE902674C
:100DD00008F0DEF90322102302A92046CDE9022300
:100DE00000230422CDE904234FF4805208F0D0F907
:100DF00040F23223042202A9019310232046CDE9B8
:100E00000223019A012305924FF48052049308F0C3
:100E1000BFF940F60601204608F0DAF9284607B087
:100E2000F0BD00BF880600241C4B00221C494FF077
:100E3000400C30B5054689B00220596007219A6000
:100E40001A620124DA620A224FF4006EDC60069214
:100E50002022CDE9000104200821CDE90201032070
:100E60001021CDE9040108206946C3E904024FF4CA
:100E7000C072181DC3E906C24FF48052C3E909E2EB
:100E800008F05CF938B92846FFF782FF003818BF30
:100E9000012009B030BD204609B030BD84060024D1
:100EA00040410052614A0021D0B513688EB00A91CA
:100EB000002B40F0B9805E4B01214FF683700C246B
:100EC00011600221D3F8D4200026032742F4805277
:100ED000C3F8D420D3F8D42002F480520092009AB0
:100EE000D3F8E02042F01002C3F8E020D3F8E0206D
:100EF00002F010020192019AD3F8E02042F0400281
:100F0000C3F8E020D3F8E02002F040020292029AF7
:100F1000D3F8E02042F00802C3F8E020D3F8E02044
:100F200002F008020392039AD3F8E02042F48072A0
:100F3000C3F8E020D3F8E02002F480720492049A0F
:100F4000D3F8E02042F08002C3F8E020D3F8E0209C
:100F500002F080020592059AD3F8E02042F02002C8
:100F6000C3F8E020D3F8E02002F020020692069AAF
:100F7000D3F8E02042F00402C3F8E020D3F8E030D8
:100F80000C9403F0040307930323079A0B93CDE912
:100F9000080108A9274803F0D5FC48F237120223BC
:100FA00008A925480C94CDE90823CDE90A6703F088
:100FB000C9FC4CF20372022308A920480C94CDE925
:100FC0000823CDE90A6703F0BDFC40F2FF6202236B
:100FD00008A91B480C94CDE90823CDE90A6703F062
:100FE000B1FC4FF60C72022308A916480C94CDE907
:100FF0000823CDE90A6703F0A5FC4FF63F02022360
:1010000008A911480C94CDE90823CDE90A6703F03B
:1010100099FC2022022308A90A480C94CDE90A670A
:10102000CDE9082303F08EFC0EB0D0BD800600246D
:10103000004402580010025800180258000C0258D0
:1010400000200258001C02580014025830B5184CF9
:10105000154685B0046004F1080EEC460FC98EE811
:101060000F00D4ED047AF5EEC07A8CE80F00F1EEB3
:1010700010FA1ADDB7EE006A94ED057A27EE277AAA
:10108000C6EE276A84ED0D7AC4ED0C6A6DB1204678
:1010900040F8185F01F040FB064903690020064A4A
:1010A0002162A262E36005B030BD012005B030BD11
:1010B000BC0600240020003000000030006808302A
:1010C000704700BF0068183001F028BB10B4074B10
:1010D0004FF07E5130240022032019619C60D860BB
:1010E0005DF8044B5961C3E906227047BC06002431
:1010F000704700BFF8B5134F3C687F2C07D9802399
:10110000114A42F224411C463B60A2F87E100F4D6A
:101110002B68012B0AD90C4E0D4D2246314628462C
:1011200000F02CF90028F8D13860F8BD22460649B5
:10113000074800F023F90028F7D12B683860013305
:101140002B60F8BDF8060024FC060024F4060024F9
:101150007C07002430B4154C2168F1B14B1E144DAE
:10116000E81810F801298C4619460A2A01D00D2AE0
:1011700002D14BB1013BF4E70CF102037F2B10D9F4
:101180008023236030BC70470122022323600D209E
:101190000A236854AB5430BC704701220223044D2B
:1011A000F4E70CF101026146F0E700BFF806002405
:1011B000FC06002410B5094C02460B46084821687D
:1011C0000844C1F180010EF0F5FD23681844206049
:1011D000FFF7C0FFFFF78EFF10BD00BFF806002429
:1011E000FC0600240FB400B583B004A951F8040B29
:1011F0000191FFF7DFFF03B05DF804EB04B0704727
:1012000010B5044600210A4800F032F8002C094BC2
:1012100014BF0222002208481A60FFF7E3FF0748C4
:10122000FFF7E0FF0A20BDE8104001F039BB00BF26
:101230007C070024F4060024AC0F0108BC0F010851
:10124000064A0749074808B50EF0F6FB034A044969
:101250000548BDE808400EF0EFBB00BF00000024C9
:10126000F11000087C07002480070024704700BFAD
:10127000012910B506D0022915D051B1BDE81040A2
:1012800005F042BA0A463448344909F031FAE8B167
:10129000FEE7334B0A46334C334934481C6009F0AF
:1012A00027FA68B1FEE701222C492B4809F020FA01
:1012B00000B1FEE72E49284809F03CFAC0B1FEE72C
:1012C0002B492A4809F036FA60B1FEE7284922483E
:1012D00009F030FA00B1FEE726491F4809F0B8F9D5
:1012E00008B3FEE72449214809F0B2F9A8B1FEE7A6
:1012F0002049194809F0ACF900B1FEE7164809F099
:101300002FFA024640B9164B164C174917481C6075
:1013100009F0EEF968B1FEE7FEE7144809F020FA9B
:101320000028ABD0FEE70C4809F01AFA0028A5D037
:10133000FEE70F490D4809F0FDF900B1FEE70E493F
:101340000A4809F085F900B1FEE7084809F008FAF3
:10135000002893D0FEE700BF200A0024BC00002430
:10136000BC0C00246D120008A00000248407002497
:10137000240100248000002470000024084691B25B
:1013800008B501F035FD003818BF012008BD00BFC9
:10139000014804F097BC00BF60350024014804F008
:1013A00091BC00BF60350024014804F08BBC00BF35
:1013B0006035002410B592B0ADF804100180C9B2B8
:1013C000149C0B29C460C0E901233FD090F801C0F0
:1013D000BCF10F0F3AD8022A3FD0032A02D0012ACB
:1013E00000D000220E92012B02D0022B18BF002346
:1013F000022C0F932CD0032C2AD0012C28D00023B0
:101400000A29109327D85C4A02EB812202610A293B
:1014100014D8DFE801F0A39587796B5D4F41332540
:101420000600564BD3F8E01041F48061C3F8E01099
:10143000D3F8E03003F480630C930C9B01230DA9D7
:10144000104603FA0CF30D9303F07CFA12B010BDB2
:101450000A291094D7D90022D8E711220E92C2E7A8
:10146000464BD3F8E01041F40071C3F8E010D3F814
:10147000E03003F400730B930B9BDFE73F4BD3F893
:10148000E01041F48071C3F8E010D3F8E03003F4C9
:1014900080730A930A9BD1E7384BD3F8E01041F0F0
:1014A0008001C3F8E010D3F8E03003F08003099323
:1014B000099BC3E7314BD3F8E01041F04001C3F87A
:1014C000E010D3F8E03003F040030893089BB5E741
:1014D0002A4BD3F8E01041F02001C3F8E010D3F814
:1014E000E03003F020030793079BA7E7234BD3F8D3
:1014F000E01041F01001C3F8E010D3F8E03003F041
:1015000010030693069B99E71C4BD3F8E01041F0BB
:101510000801C3F8E010D3F8E03003F008030593A6
:10152000059B8BE7154BD3F8E01041F00401C3F89D
:10153000E010D3F8E03003F004030493049B7DE74C
:101540000E4BD3F8E01041F00201C3F8E010D3F8DD
:10155000E03003F002030393039B6FE7074BD3F8DC
:10156000E01041F00101C3F8E010D3F8E03003F0DF
:1015700001030293029B61E70000025800440258F5
:1015800008B5012143780069994089B203F0E2FB74
:10159000003818BF012008BD01230A4641780069C0
:1015A00003FA01F189B203F0DBBB00BF8378022BA1
:1015B00030B504468FB037D0032B33D0012B31D058
:1015C00000230A93E378012B2AD0022B28D0002392
:1015D0000B93002320460C9301F0ECFF05462046B8
:1015E00001F0F0FF23780990082B13D8DFE803F00F
:1015F0001F3245586B7E91A40500594BD3F8E0206B
:1016000042F48072C3F8E020D3F8E03003F4807332
:101610000893089B09A9284603F094F90FB030BD40
:101620000B93D6E70A93CDE711230A93CAE74C4BF5
:1016300009A92846D3F8E02042F00102C3F8E020CF
:10164000D3F8E03003F001030093009B03F07AF934
:101650000FB030BD424B09A92846D3F8E02042F034
:101660000202C3F8E020D3F8E03003F00203019354
:10167000019B03F067F90FB030BD394B09A928462B
:10168000D3F8E02042F00402C3F8E020D3F8E030C1
:1016900003F004030293029B03F054F90FB030BD32
:1016A0002F4B09A92846D3F8E02042F00802C3F8DE
:1016B000E020D3F8E03003F008030393039B03F02A
:1016C00041F90FB030BD264B09A92846D3F8E020D8
:1016D00042F01002C3F8E020D3F8E03003F010032A
:1016E0000493049B03F02EF90FB030BD1C4B09A9E5
:1016F0002846D3F8E02042F02002C3F8E020D3F8D7
:10170000E03003F020030593059B03F01BF90FB0B5
:1017100030BD134B09A92846D3F8E02042F040021F
:10172000C3F8E020D3F8E03003F040030693069BB3
:1017300003F008F90FB030BD094B09A92846D3F8CA
:10174000E02042F08002C3F8E020D3F8E03003F05C
:1017500080030793079B03F0F5F80FB030BD00BF7F
:101760000044025838B5054601F024FF04462846D7
:1017700001F028FF01462046BDE8384003F0EABAF0
:1017800070B506460D4601F015FF0446304601F0DF
:1017900019FF2A1E0146204618BF0122BDE87040ED
:1017A00003F0DEBA0023122270B586B0CDE9022321
:1017B00004930368032B01D804230593061D841D9D
:1017C000304601F0F7FE0546304601F0FBFE0346C9
:1017D00001A92846019303F0B5F8204601F0EAFE7E
:1017E000034620461C4601F0EDFE01A903462046B3
:1017F000019303F0A7F806B070BD00BF634A036809
:10180000934210B58CB028D0614A934258D0614AB7
:10181000934200F09480604A934201D00CB010BD16
:101820005E4C5F48D4F8E03043F00203C4F8E03087
:10183000D4F8E03003F002030A930A9BFFF7B2FFEB
:10184000D4F8F43043F08003C4F8F430D4F8F43022
:1018500003F080030B930B9BE0E7504C5148D4F806
:10186000E03043F00203C4F8E030D4F8E03003F095
:1018700002030193019BFFF795FFD4F8E8300022A3
:101880001F2043F400131146C4F8E830D4F8E830C0
:1018900003F400130293029BD4F8D83043F0010301
:1018A000C4F8D830D4F8D83003F001030393039B75
:1018B00001F0CCFF1F200CB0BDE8104002F004B8CE
:1018C000364C3948D4F8E03043F08003C4F8E030B7
:1018D000D4F8E03003F080030493049BD4F8E030A4
:1018E00043F00203C4F8E030D4F8E03003F0020320
:1018F0000593059BFFF756FFD4F8E830002221201E
:1019000043F480031146C4F8E830D4F8E83003F417
:1019100080030693069BD4F8D83043F00103C4F843
:10192000D830D4F8D83003F001030793079B01F0B7
:101930008DFF21200CB0BDE8104001F0C5BF1B4851
:10194000FFF730FF154B00224820D3F8E84011463E
:1019500044F40004C3F8E840D3F8E84004F4000479
:101960000894089CD3F8D84044F00104C3F8D84048
:10197000D3F8D83003F001030993099B01F066FF07
:1019800048200CB0BDE8104001F09EBF005400405C
:1019900000580040005C0040001C00580044025801
:1019A0004C0F0024C40C00249C0D0024740E002451
:1019B0002DE9F0431A4B87B000254FF010099E46E1
:1019C000EC46184BFF22E04667461A700EF11806E7
:1019D0000EF13004CDE90055CDE90255ADF8009087
:1019E000BCE80F00CDE90455AEE80F009CE8030009
:1019F0000095ADF800908EE80300B8E80F000FC620
:101A00009CE803000095ADF8009086E803000FCF36
:101A10000FC49CE8030084E8030007B0BDE8F0832E
:101A200020000024C10C002410B5EFF3108472B61E
:101A3000084B1A78120602D504B962B610BD1B789D
:101A4000D82205485BB202FB0300143002F028FCE8
:101A5000F2E700BFC10C0024C40C0024014804F0CC
:101A600017B800BF500D0024014804F011B800BFA2
:101A7000280E0024014804F00BB800BF000F00241A
:101A80002DE9F0430F68D8243F4D85B007FB04F4DF
:101A9000032F05EB0403036040DCCB680E46012BEB
:101AA0003CD84DD04FF0D808B646DFF8FC9008FB84
:101AB0000758BEE80F00C446ACE80F00DEF800305F
:101AC0000DF1100ECCF80030D8F808C099E80F00DE
:101AD0000EE90F000EEB8703BCF1010F53F8103C29
:101AE000C8F88C3031D0BCF1020F42D0BCF1000FED
:101AF00035D0317C8C34D823002201202C4403FBC8
:101B000007534900C3E92602C3F894102046C3E9ED
:101B10002822C3E92A2203F0ADFD18B1012005B047
:101B2000BDE8F0830146204603F0BEFF0028F5D152
:101B30000146204603F0E2FF003818BF0120EEE71F
:101B40000B7C103B672BADD9E8E701F015F80F4B84
:101B500098420CBF0E4B0F4BC8F89030C9E701F00C
:101B60000BF80A4B98420CBF0B4B0C4BC8F890304B
:101B7000BFE701F001F8054B98420CBF084B094B39
:101B8000C8F89030B5E700BFC40C0024000E27074A
:101B90002D0FB0303211D0205F4390608A62E03068
:101BA000200BA0101A098010440F01082DE9F04104
:101BB000D0F8008082B00D4617461E4608F18C040E
:101BC000204603F06DFF2028FAD1D8F80C3073B905
:101BD0006D002046089C33463A46A9B2009403F0B3
:101BE0009FFD003818BF012002B0BDE8F081089BBE
:101BF00032463946204603F067FEF2E7044B1022D6
:101C00001A7483F8E82083F8C02183F8982270477B
:101C1000C40C002430B5002395B04FF48071062227
:101C200004460B9306921393CDE90C13CDE90E33C2
:101C3000CDE9113300F0A2FF07282BD004F11005E5
:101C400041F2883206A9284604F0AAFE28B10123F1
:101C5000184684F85C3015B030BD0222022306A974
:101C60002846CDE9002310220123CDE902230022DA
:101C70004FF48003CDE9042305224FF080730692D0
:101C80006A460F9341F2883304F0F6FF0028DED154
:101C900015B030BD0323012084F85C3015B030BD91
:101CA00070B50023A4B04FF080724FF480750446E5
:101CB000ADF806300D93CDE910320122CDE90E5377
:101CC000CDE91223CDE91433002943D0F02300F1EC
:101CD000100508AEADF80630C02341F28832314617
:101CE0002846089304F05CFE28B10123184684F8C6
:101CF0005C3024B070BD41F288320DF106012846F7
:101D000004F0B8FE03460028EFD105224FF480719D
:101D10001E93284616924FF080721B9321931F92B8
:101D200002AA9FED1F7BCDE91C13CDE922338DED77
:101D3000027B9FED1D7B41F2883316A98DED047B5C
:101D40009FED1B7B8DED067B04F096FF0028CCD128
:101D500024B070BD00F1100508AE612341F2883255
:101D600031462846089304F01BFE0028BDD141F2FD
:101D700088320DF10601284604F0FAFE0028B4D19D
:101D8000BDF80630204623F0780343F04003ADF859
:101D90000630FFF73FFF00289ED0A6E7AFF3008094
:101DA0000000000001000000100000000100000021
:101DB00000000000000040002DE9F04F00234FF428
:101DC000807501264FF0807804462DED028BABB074
:101DD0008DF8073013932193299314950E96CDF81F
:101DE0005C80CDE91533CDE91863CDE91A33CDE92F
:101DF0002253CDE92433CDE9273306231C9300F089
:101E0000BDFE072808D004F1100741F288321CA952
:101E1000384604F0C5FD40B10123184684F85C3013
:101E20002BB0BDEC028BBDE8F08F4FF0020A4FF0F3
:101E3000020B4FF0050941F2883308AA1CA9384665
:101E4000CDF89480CDF870909FED2D8BCDE908AB47
:101E50004FF0000A4FF4800B8DED0A8BCDE90CABEF
:101E600004F00AFF0028D7D141F2883238460EA983
:101E700004F096FD0028CFD1402341F288320DF1C5
:101E8000070138468DF8073004F0F4FD0028C3D16F
:101E900041F288330EA902AA3846CDF83890CDF821
:101EA0005C809FED197B8DED048BCDE906AB8DED4C
:101EB000027B04F0E1FE03460028ADD1CDF870901E
:101EC0004FF00109CDF894804FF00008219308AA43
:101ED00029931CA938462295CDE92333CDE9273330
:101EE00041F288338DED0A8BCDE90CABCDE9088941
:101EF00004F0C2FE002893D0304684F85C608FE77F
:101F00001000000001000000400000004000000040
:101F10002DE9F043624CA3B00D46046000F02EFEA4
:101F2000072800F0A980286823466968AA6807C3C3
:101F30001E46AB8926F8043B3046257B677B04F0C0
:101F400011FDE0B9574B012D4FF00108E06123610D
:101F500014BF4FF480134FF40003C4E9058893FACB
:101F6000A3F3B3FA83F34FF48079013BC4F82490D0
:101F7000C4E90B003046236204F088FC38B101222A
:101F8000134684F85C20184623B0BDE8F08366232E
:101F90000B90139041F2883206A90693CDE90C907C
:101FA000CDE90E00CDE91100304604F0F9FC00281F
:101FB000E5D1992341F2883206A93046069304F010
:101FC000EFFC0028DBD105231C9019906A4614937E
:101FD0004FF08073219014A91D9341F288339FED37
:101FE0002A7BCDE91A90CDE91F008DED007B9FED96
:101FF000287B30468DED027B9FED277B8DED047BAA
:1020000004F03AFE0028BAD129462046FFF748FEE0
:102010000028B4D12046FFF7CFFE03460028AED1FA
:10202000002FB0D1189330460027002606AA14A925
:10203000CDF86890CDE91F33EB2314934FF4406340
:102040001B934FF4005317934FF440431C93A0236A
:102050001693062319934FF0805321934FF040734A
:10206000CDE906671D9304F07FFE034600288AD061
:10207000434684F85C8086E701230322184684F8EF
:102080005C2023B0BDE8F0830000000001000000E8
:1020900010000000010000000000000000004000EF
:1020A00024100024005000522DE9F04F8FB0414B16
:1020B0000024026800AF9A427C63C7E90944C7E97B
:1020C0000B4403D03C37BD46BDE8F08F3A4B40F699
:1020D00009213A48EB46D3F8D42007F11C0607F152
:1020E000220A4FF0020942F480424FF00308C3F87D
:1020F000D420D3F8D42002F48042BA60BA68D3F86E
:10210000E02042F04002C3F8E020D3F8E02002F0E3
:102110004002FA60FA68D3F8E02042F02002C3F8E7
:10212000E020D3F8E02002F020023A613A69D3F8C7
:10213000E02042F01002C3F8E020D3F8E02002F0E3
:1021400010027A617A69D3F8E02042F00202C3F803
:10215000E020D3F8E030F86103F002033984BB617A
:10216000174B7B60BB697B6853F8040F7B6001F001
:1021700021FA7B680546186801F024FA16F8013B3D
:10218000786207F124012846C7F830807B63C7E9ED
:102190000A9402F0D7FB5645E5D100225C20114697
:1021A00001F054FB5C2001F08FFB3C37DD46BD465F
:1021B000BDE8F08F00500052004402580A0A090995
:1021C00080100024114B02689A4200D07047104AD8
:1021D00070B5D2F8D4300F4C23F4804304F11806C4
:1021E000C2F8D43054F8040F01F0E4F90546206831
:1021F00001F0E8F90146284602F0E4FCB442F1D1CE
:102200005C20BDE8704001F06DBB00BF0050005283
:102210000044025880100024014804F031BE00BF81
:1022200034100024084B1A1D981D03F1080110B446
:102230009C1C9A6603F10A02C3E91834C3E91B0126
:102240005DF8044B5A6770472410002438B50368C2
:1022500071B9026A00F1280500F5AC74012A0CBFBF
:10226000002140218BBB1D4B5722C0F858310DE097
:10227000426A00F1C00500F5E874012A0CBF002194
:102280004021EBB1164B5A22C0F8D0310023204632
:10229000C4E901214FF480524FF4806163626261AE
:1022A0004FF48042C4E903314FF48073C4E906233C
:1022B0004FF40033236201F07BFC58B1FFBEFEE710
:1022C000084B5822C0F8D031E0E7074B5922C0F83C
:1022D0005831DBE7C5E92044A56338BD1000024052
:1022E0007000024028000240580002402DE9F043EF
:1022F000821D05468BB0031D05F10A010830CDE9AA
:10230000052305F10C02AB69CDE907010992002B09
:102310003DD0EB69B3FA83F84FEA58180123022243
:1023200005AE0AAF4FF006090393CDE9012356F835
:10233000044B2B792278934216D02B68F3B1012BF2
:1023400002D1F2B10A230493204601F03BF903467F
:102350002046009301F02EF9694602F0F3FABE42DE
:10236000E5D10BB0BDE8F083697963789942E4D197
:10237000B8F1000FF3D02B68002BE0D1CDF810900E
:10238000E2E76378022B14BF0A230823DBE74FF050
:102390000108C3E7534A0368934230B505468BB042
:1023A00055D02032934252D04F4A934204D020322B
:1023B000934201D00BB030BD4C4C4D48D4F8E030C6
:1023C00043F00103C4F8E030D4F8E03003F0010337
:1023D0000593059BD4F8E03043F00803C4F8E030DF
:1023E000D4F8E03003F008030693069BD4F8E030FD
:1023F00043F04003C4F8E030D4F8E03003F0400389
:102400000793079BD4F8F03043F40003C4F8F0308E
:10241000D4F8F03003F400030893089BFFF766FF3D
:10242000D4F8D830296843F001032F4A3048C4F863
:10243000D830891AD4F8D83018BF012103F001032D
:102440000993099B0BB0BDE83040FFF7FFBE274C56
:102450002848D4F8E03043F00103C4F8E030D4F861
:10246000E03003F001030093009BD4F8E03043F028
:102470001003C4F8E030D4F8E03003F01003019307
:10248000019BD4F8E03043F04003C4F8E030D4F8C6
:10249000E03003F040030293029BD4F8F03043F4A1
:1024A0008003C4F8F030D4F8F03003F480030393D1
:1024B000039BFFF71BFFD4F8D830296843F00103D2
:1024C000084A0C48C4F8D830891AD4F8D83018BF54
:1024D000012103F001030493049B0BB0BDE83040DD
:1024E000FFF7B4BE04580140045C014000440258A8
:1024F000F81200249C100024014801F0D1BE00BF56
:10250000F4110024014801F0CBBE00BF6C1200247E
:10251000014801F0C5BE00BF50140024014801F07D
:10252000BFBE00BFC81400242DE9F04F0C684FF463
:102530001776754F87B004FB06F6012C07EB060AE9
:10254000C0F800A000F3A0800D468E464FF00008B2
:10255000D44669A3D3E9002369A1D1E90001CDE9FB
:10256000022306ABCAF8508203EB8403CDE90401D1
:1025700053F810BC53F8083CCAE992880193BEE8AE
:102580000F00ACE80F00BEE80F00ACE80F00019BA5
:102590009EE80300CAF828B0CAF8C0308CE80300EF
:1025A0002B69042B0CD8DFE803F0737D87910300BF
:1025B0004FF41773554A03FB04739A64C3F8E02081
:1025C000AA692B6A002A43D0002B4FF4177308BF67
:1025D000022203FB047318BF0322DA6201221A638A
:1025E000EA696B6A002A40D1191E4FF4177318BFAD
:1025F000012103FB0473C3E931126B69022B05D877
:10260000434A12F80380434A52F823904FF4177359
:1026100006F128004246494603FB0474002338446F
:1026200063646363E365C4F8DC30C4F8CC30C4F899
:10263000F430C4E90F33C4E91533C4E93533C4E9D0
:102640003B33022306F0BEFC002849D0FFBEFEE764
:10265000191E4FF4177318BF012103FB0473C3E95C
:102660000B12EA696B6A002ABED0002B4FF4177375
:1026700008BF022203FB047318BF0322C3F8C4205F
:102680000122C3F8C820B8E7012007B0BDE8F08FE9
:102690004FF417734FF4FA5203FB04739A64C3F8B0
:1026A000E0208DE74FF417734FF47A5203FB047365
:1026B0009A64C3F8E02083E74FF417734FF4FA42AB
:1026C00003FB04739A64C3F8E02079E74FF41773AF
:1026D0004BF6803203FB04739A64C3F8E0206FE783
:1026E00006F1C000022342464946384406F06AFC1F
:1026F0000028CAD0FFBEFEE704580140045C014038
:1027000024580140245C01409C1000240077010003
:10271000CC0F0108D00F01080068704703681B69DF
:10272000042B05D8044A02EB830393ED000A70479B
:102730009FED020A704700BFDC0F010800803B4795
:10274000704700BF08B501F045F8BDE8084001F04A
:1027500045B900BF064808B503680BB102F004FB99
:10276000044803681BB1BDE8084003F0ABBA08BDDC
:10277000703F002468390024064808B503680BB18F
:1027800002F0F2FA044803681BB1BDE8084003F008
:1027900099BA08BD703F002468390024064808B57E
:1027A00003680BB102F0E0FA044803681BB1BDE80E
:1027B000084003F087BA08BD703F00246839002440
:1027C000364BDA6A520062D59A6A9A6A9A6A9B6AAA
:1027D000180600D500BE314B9B6A990600D500BE95
:1027E0002E4B9B6ADA0600D500BE2C4B9B6A1B075A
:1027F00000D500BE294B9B6A980700D500BE274B29
:102800009B6AD90700D500BE244B9B6A1A0400D5E9
:1028100000BE224B9B6A9B0400D500BE1F4B9B6AE7
:10282000D80400D500BE1D4B9B6A190500D500BE1B
:102830001A4B9B6A5A0500D500BE184B9B6A9B0534
:1028400000D500BE154B9B6AD80500D500BE134BC2
:102850009B6A990100D500BE104B9B6ADA0100D536
:1028600000BE0E4B9B6A1B0300D500BE0B4B9B6A40
:10287000580300D500BE094B9B6A990300D500BEE2
:10288000064B9B6ADA0306D400BE00BEFEE7DB6A95
:102890009B07FAD5F8E700BEF6E700BF00ED00E0C1
:1028A00000F0AABF2DE9F041CEB004464C22002131
:1028B0000AA80DF017F92022002102A80DF012F944
:1028C000BC2200211EA80DF00DF9022003F0F6FE37
:1028D0002368012B4FF0000354D0534A0225019383
:1028E000C820D16A514B21F00101D162D26A02F0B5
:1028F000010201929A6942F440429A619B6903F491
:1029000040430193019B494A93699B04FCD5484984
:102910000224002201268B6A04274FF0080823F0C6
:10292000030323438B62052316900AA818934FF4E0
:1029300080331096179419941597CDF86880CDE9D7
:102940001B222122CDE91344CDE90A2304F0A0FB88
:1029500000B1FEE73F220323294602A8CDE9022366
:1029600000220823CDE9042340224023CDE9062399
:1029700040234FF48062CDE9082304F0B7FE0346FC
:10298000B8B1FEE7294A04250093F0209169264B4F
:1029900041F440419161926902F440420092DA6A46
:1029A00042F00102DA62DB6A03F001030093009B4C
:1029B000A9E720224FF4805125934FF440152B9224
:1029C00080222D931EA83093269135914FF480716B
:1029D000249234920C223394439140F22711209296
:1029E0001022CDF884802A971F96CDE92E34CDE9A8
:1029F0003B334FF48033CDE9224631930024469394
:102A00000623CDE93E4527934FF48063094C2C9370
:102A10001E94CDE9281205F0C5F800B1FEE703F0D9
:102A200073FE4EB0BDE8F081000400580048025823
:102A3000004402580F130F032DE9F0410D460446E0
:102A400084B0D1E9000184E8030000F093FEAE7980
:102A5000002E37D06F460AF0EDF9FEF7A9FF08F017
:102A6000C3FE09F07BFF2B79002B54D16B799BB10E
:102A7000BFF34F8FBFF36F8F3C4B0022C3F8502240
:102A8000BFF34F8FBFF36F8F5A6942F400325A6120
:102A9000BFF34F8FBFF36F8F4FF0FF32002300243F
:102AA00000253946324802928DF80C30CDE90045B8
:102AB00009F0BAFA2E4809F01FFB08F0C5FA04B075
:102AC000BDE8F08120466F46FFF7ECFE012400F0E0
:102AD00033FF4FF040534FF4807838460193254B35
:102AE000ADF80040CDE9023800F044FF19224FF064
:102AF000404338468DF80F40ADF80D808DF8014009
:102B00008DF80A608DF80820019300F033FF04204F
:102B100000F020FF9FE7154C0023C4F88430BFF37A
:102B20004F8FD4F8803043F6E07EC3F3C906C3F379
:102B30004E334FEA431C0CEA0E00334640EA8372E0
:102B4000013BC4F860225A1CF8D1ACF1200C1CF1F6
:102B5000200FF0D1BFF34F8F636943F4803363617B
:102B6000BFF34F8FBFF36F8F80E700BF00ED00E032
:102B7000541500240E00010304F0E8BE1C4B9B68B2
:102B800003F17842B2F5003F25D3B3F5803F20D35F
:102B900003F16042B2F5003F1FD303F15C42B2F58E
:102BA000002F1CD303F17042B2F5902F19D303F11B
:102BB0004842B2F5803F16D303F18042B2F1806FF4
:102BC00013D303F1E043B3F5000F2CBF0820072017
:102BD0007047012070470020704702207047032093
:102BE000704704207047052070470620704700BFDB
:102BF00000ED00E003480023034A044903600CF0A1
:102C00001BBF00BF5415002400000024412700080A
:102C100010B4204C0022204B83B0D4F888101F48F9
:102C200041F47001C4F8881019681D4C41F001018D
:102C300019601A61196808401A4918609A61DA61C6
:102C40001A629A62DA621A635A639A63DA631A64DE
:102C50005A64186820F4802018601A66D3F8DC20C3
:102C600042F06042C3F8DC20D3F8DC300193019BD2
:102C700023681940B1F1005F03D20B4B0122C3F866
:102C80000821044B4FF000629A6003B05DF8044BDA
:102C9000704700BF00ED00E0004402587FEDF6EA07
:102CA0000010005C0000FFFF00800051704700BF73
:102CB0000020704770B50446074E0D463046214649
:102CC00007F0D8FC304607F0F7FC044B20462946B5
:102CD0001B689847002070BD8407002458350024E5
:102CE00070B50446074E0D463046214607F0C2FC3B
:102CF000304607F0E1FC044B204629461B68984704
:102D0000002070BD200A00245C35002400220949FF
:102D1000094808B507F0A4FC0849074807F0AAFCD1
:102D2000074B1A680AB1002008BD064A00201A6045
:102D300008BD00BF5825002484070024581500242E
:102D400058350024AD2C000800220949094808B56F
:102D500007F086FC0849074807F08CFC074B1A6807
:102D60000AB1002008BD064A00201A6008BD00BF55
:102D7000582D0024200A0024581D00245C3500240E
:102D8000AD2C000820280AD0212806D1094B18684C
:102D90009A889B7908608A808B7100207047054B68
:102DA0000868B1F804C08A7918600020A3F804C04C
:102DB0009A7170479000002420280AD0212806D15B
:102DC000094B18689A889B7908608A808B7100206B
:102DD0007047054B0868B1F804C08A791860002074
:102DE000A3F804C09A71704798000024002070472F
:102DF00010B5094CD4F89032D3F814320BB101203D
:102E000010BD0A460146204607F02AFC2046BDE8D0
:102E1000104007F037BC00BF840700244B4A03680A
:102E200030B593428BB04FF00004CDE90444CDE9B6
:102E30000644089404D0464A934249D00BB030BDB2
:102E4000444D4FF4C0524448D5F8E03043F00103FC
:102E5000C5F8E030D5F8E03003F001030093022319
:102E6000009904A9CDE904230A23089301F06AFD1F
:102E70004FF40072002304A937480694CDE90423D7
:102E800001F060FDD5F8D8302246214643F00063BA
:102E90006220C5F8D830D5F8D83003F0006301932C
:102EA000019B00F0D3FC622000F00EFD224621467B
:102EB000632000F0CBFC632000F006FD2246214693
:102EC000652000F0C3FC652000F0FEFC0BB030BDB7
:102ED000204D4FF4404204A9D5F8E03043F00203FE
:102EE000C5F8E030D5F8E03003F002030293022386
:102EF00002981A48CDE904230C23089301F022FD1F
:102F0000D5F8D830224621464A2043F00073C5F850
:102F1000D830D5F8D83003F000730393039B00F04A
:102F200095FC4A2000F0D0FC224621464B2000F0C0
:102F30008DFC4B2000F0C8FC224621464D2000F0BD
:102F400085FC4D2000F0C0FC0BB030BD00000840F7
:102F500000000440004402580000025800040258D7
:102F600000F57171D0F8040407F012BCC1EBC10385
:102F700000EB8303D0F80404D3F8082207F036BC32
:102F8000C1EBC10300EB8303D0F804049A6C07F093
:102F90006BBC00BFD0F8040407F00ABDC16810B5CF
:102FA000044619B1022900D0FEE70121D4F8040437
:102FB00007F0E8FCD4F80404BDE8104007F0BABC00
:102FC00010B50446D0F8040407F0E0FC2268D2F8FB
:102FD000003E43F00103C2F8003E236A23B1034AD6
:102FE000136943F00603136110BD00BF00ED00E05C
:102FF000D0F8040407F0D4BCD0F8040407F0E8BC0F
:10300000D0F8040407F0E2BCD0F8040407F0E2BCF6
:10301000D0F8040407F0E0BC70B5067804461EB191
:10302000012E30D0002070BD304D0923304AC5F844
:103030000404C0F8985228462E612E63C5E9002387
:1030400002230222EB600023C5E9062300220023AD
:10305000C5E9082301220123C5E90A2302F07AFD0C
:1030600000B1FEE78021284603F008FB31464022EC
:10307000284603F0D9FA80220121284603F0D4FA29
:103080002678012ECED11B4D09221B4B00216A60F0
:1030900002222B600223C5F804442846EB6000237B
:1030A000C4F898522961C5E9062300220023C5E926
:1030B0000823C5E90C2301220023C5E90A2302F0F5
:1030C00049FD044600B1FEE74FF40071284603F0C5
:1030D000D5FA21468022284603F0A6FA4FF4BA72A8
:1030E0003146284603F0A0FA9CE700BF6035002473
:1030F000000008406839002400000440D0F898021D
:1031000008B502F0BDFD032802D8024B185C08BDCB
:10311000022008BD001001089446D0F898021A4613
:1031200008B5634603F032F9032802D8024B185C55
:1031300008BD022008BD00BF00100108D0F89802A9
:1031400008B503F061F9032802D8024B185C08BDEA
:10315000022008BD00100108D0F8980208B503F05D
:10316000E3F9032802D8024B185C08BD022008BD11
:1031700000100108D0F8980208B503F019FA0328E6
:1031800002D8024B185C08BD022008BD00100108DF
:103190000A06D0F8983206D4C1EBC10103EB8101D5
:1031A00091F8FE01704701F07F01C1EBC10103EB13
:1031B000810191F83E007047D0F8980208B503F0FD
:1031C000CFF8032802D8024B185C08BD022008BDC6
:1031D00000100108D0F8980208B503F07DF9032823
:1031E00002D8024B185C08BD022008BD001001087F
:1031F000D0F8980208B503F03DF9032802D8024B35
:10320000185C08BD022008BD00100108D0F8980223
:1032100003F058B9122301480B807047EC000024DA
:10322000122301480B807047D80000240423014872
:103230000B8070470001002410B5044C0A46044876
:10324000214607F049FE204610BD00BF703D002416
:103250000410010810B5044C0A460448214607F042
:103260003BFE204610BD00BF703D00241410010835
:1032700010B5044C0A460448214607F02DFE2046AE
:1032800010BD00BF703D00242810010810B5044C8B
:103290000A460448214607F01FFE204610BD00BF25
:1032A000703D00243410010810B5044C0A4604484F
:1032B000214607F011FE204610BD00BF703D0024DE
:1032C00044100108042301480B80704700010024CA
:1032D00010B5044C0A460448214607F0FDFD20467F
:1032E00010BD00BF703D002404100108464A4FF095
:1032F0001A0CD2F80008D2F80838A1F800C0C31898
:1033000001D142487047180FB3F1204FD2F804188A
:103310004FF0000C3D4A2CBF3730303082F803C0EC
:103320004FF0000C9070C3F3036082F805C04FF0BB
:10333000000C092882F807C04FF0000C8CBF373012
:10334000303082F809C04FF0000C1071C3F3035005
:1033500082F80BC04FF0000C092882F80DC08CBF1A
:10336000373030309071C3F3034009288CBF3730B9
:1033700030301072C3F3033009288CBF373030303F
:103380009072C3F3032009288CBF3730303010739C
:10339000C3F3031003F00F0309288CBF373030301C
:1033A000092B90734FF0000094BF30333733B1F1E5
:1033B000204FD07313744FEA11734FF000002CBFED
:1033C00037333033507400209374C1F30363D074E7
:1033D0000020092B50754FF000008CBF373330337D
:1033E000D0751375C1F303530848092B8CBF3733CD
:1033F00030339375C1F30343092B94BF3033373314
:10340000137600235376704700E0F11F0401002477
:10341000464A4FF01A0CD2F80008D2F80838A1F842
:1034200000C0C31801D142487047180FB3F1204FB4
:10343000D2F804184FF0000C3D4A2CBF3730303022
:1034400082F803C04FF0000C9070C3F3036082F861
:1034500005C04FF0000C092882F807C04FF0000C9F
:103460008CBF3730303082F809C04FF0000C10713B
:10347000C3F3035082F80BC04FF0000C092882F808
:103480000DC08CBF373030309071C3F30340092832
:103490008CBF373030301072C3F3033009288CBF33
:1034A000373030309072C3F3032009288CBF373097
:1034B00030301073C3F3031003F00F0309288CBFDF
:1034C00037303030092B90734FF0000094BF303309
:1034D0003733B1F1204FD07313744FEA11734FF0AB
:1034E00000002CBF37333033507400209374C1F385
:1034F0000363D0740020092B50754FF000008CBF7F
:1035000037333033D0751375C1F303530848092B93
:103510008CBF373330339375C1F30343092B94BF0A
:1035200030333733137600235376704700E0F11FB2
:103530000401002410B5044C0A460448214607F053
:10354000CBFC204610BD00BF703D002434100108A4
:1035500010B5044C0A460448214607F0BDFC20463D
:1035600010BD00BF703D002428100108D0F8C00233
:1035700007F024BDD0F8C00207F038BDD0F8C00273
:1035800007F040BD704700BFD0F8C00207F026BD6D
:10359000D0F8C00207F026BDD0F8D00308B501F07E
:1035A000A3FF032802D8024B185C08BD022008BD07
:1035B00058100108024B027853F82200704700BFF0
:1035C0007C100108024B427833F81200704700BFAC
:1035D0005C1001088CB00A2814D8DFE800F015232D
:1035E000313F4D5B6977859306004D4BD3F8E02062
:1035F00042F48062C3F8E020D3F8E03003F4806343
:103600000B930B9B0CB07047454BD3F8E02042F076
:103610000102C3F8E020D3F8E03003F00103019386
:10362000019BEFE73E4BD3F8E02042F00202C3F8E3
:10363000E020D3F8E03003F002030293029BE1E7BD
:10364000374BD3F8E02042F00402C3F8E020D3F86F
:10365000E03003F004030393039BD3E7304BD3F82C
:10366000E02042F00802C3F8E020D3F8E03003F095
:1036700008030493049BC5E7294BD3F8E02042F0EC
:103680001002C3F8E020D3F8E03003F010030593F4
:10369000059BB7E7224BD3F8E02042F02002C3F8A5
:1036A000E020D3F8E03003F020030693069BA9E75F
:1036B0001B4BD3F8E02042F04002C3F8E020D3F8DF
:1036C000E03003F040030793079B9BE7144BD3F8CC
:1036D000E02042F08002C3F8E020D3F8E03003F0AD
:1036E00080030893089B8DE70D4BD3F8E02042F44C
:1036F0008072C3F8E020D3F8E03003F480730993BC
:10370000099B7FE7064BD3F8E02042F40072C3F830
:10371000E020D3F8E03003F400730A930A9B71E7CA
:1037200000440258704700BF0F4B1B780BB90120B3
:10373000704710B504464FF47A700C4AB0FBF3F3AF
:103740001068B0FBF3F000F0E1F80F2C00D808B1DE
:10375000012010BD002221464FF0FF3000F076F826
:10376000034B00201C6010BD1E01002468000024D3
:103770002001002438B50320124D00F055F8124CFA
:1037800003F014FF114A12499369C3F30323CB5C7E
:1037900003F01F0320FA03F30E202B60926902F05E
:1037A0000F028A5C02F01F02D3402360FFF7BCFFC8
:1037B00010B10124204638BD0446FFF7B3FF204670
:1037C00038BD00BF680000246C000024004402588B
:1037D000F00F0108034A044B11681B780B44136077
:1037E000704700BF344200241E010024014B1868BA
:1037F000704700BF3442002438B50446FFF7F6FF97
:103800000546631C02D0044B1B781C44FFF7EEFFF7
:10381000431BA342FAD338BD1E010024014B186894
:10382000000C70470010005C06494FF6FF0C0002C8
:10383000054BCA6800F4E06002EA0C02104303433F
:10384000CB60704700ED00E00000FA051B4BDB6821
:10385000C3F3022300B5C3F1070E03F1040CBEF15C
:10386000040F28BF4FF0040EBCF1060F1AD9033B1A
:103870004FF0FF3C0CFA03FC22EA0C024FF0FF3C35
:1038800000280CFA0EFC21EA0C0101FA03F141EACE
:1038900002010ADB09010A4BC9B2034483F8001391
:1038A0005DF804FB00221346E8E700F00F00090171
:1038B000044BC9B2034419765DF804FB00ED00E047
:1038C00000E100E0FCEC00E0002807DB00F01F0155
:1038D00001234009024A8B4042F82030704700BF64
:1038E00000E100E000280DDB4309012200F01F0089
:1038F0000549203302FA00F041F82300BFF34F8F4F
:10390000BFF36F8F704700BF00E100E0431EB3F1CB
:10391000807F0CD24FF0E022002006494FF0F00CDF
:103920005361072381F823C0906113617047012020
:10393000704700BF00ED00E0BFF35F8F044B002134
:103940005A6A22F480325A62C3F89410704700BF5A
:1039500000ED00E0064B40F00100C3F894005A6A05
:1039600042F480325A62BFF34F8FBFF36F8F7047BC
:1039700000ED00E0174A4378C2F89830017821B38F
:10398000436800B5C2F89C30C37A90F80CC01B069F
:1039900090F80FE043EA0C7390F80AC00B43817B68
:1039A00043EACC4390F80DC043EA8C4390F809C039
:1039B00043EA4143017A43EA0E4343EA0C2343EAD4
:1039C0004103C2F8A0305DF804FBC2F89C10C2F8B5
:1039D000A010704700ED00E0704700BF08B5FFF78A
:1039E000FBFF08BD0268344B344930B4344D354CCC
:1039F000AA4218BF9A420CBF012300238A4208BF83
:103A000043F001033031A24208BF43F001033034D8
:103A10008A4208BF43F001033031A24208BF43F09D
:103A2000010330348A4208BF43F0010301F55C71A1
:103A3000A24208BF43F0010304F55C748A4208BF48
:103A400043F001033031A24208BF43F00103303498
:103A50008A4208BF43F001033031A24208BF43F05D
:103A6000010330348A4208BF43F001033031A242DF
:103A700008BF43F001038A4208BF43F0010313B9B2
:103A8000114B9A4213D1D3B21049114C103BA1FBF8
:103A900003515F2B0F4BC1F3021103EA0203615C78
:103AA00088BF0433C1658365184630BC704722F077
:103AB000FF038365F8E700BF1000024040000240AA
:103AC0002800024058000240B8040240ABAAAAAA4B
:103AD000AC10010800FCFFFF0368294A294930B4F3
:103AE000294D2A4CAB4218BF93420CBF0122002241
:103AF0008B4208BF42F001022831A34208BF42F0C6
:103B0000010228348B4208BF42F001022831A3424F
:103B100008BF42F001028B4208BF42F0010212B915
:103B20001B4A934213D1DBB21A4C1B4A0121083BBA
:103B30001A4DA4FB0343456602EB1312C3F30413AF
:103B4000920001FA03F30266836630BC7047DAB272
:103B50001349144C1944103AA829A4FB02234FEA34
:103B6000131300D80833104A03F01F0501210F4C2E
:103B70001A44A9404466920081660266E5E700BFE8
:103B800008540258305402581C54025844540258E5
:103B900094540258CDCCCCCC0096001680580258D4
:103BA000F0FBFDBFABAAAAAA008200108008024069
:103BB00070B50446FFF71AFE002C00F0C68023689B
:103BC0000546954A934248D01832934245D0303248
:103BD00092498B4218BF934201F130010CBF012280
:103BE00000228B4208BF42F0010218318B4208BF0D
:103BF00042F0010218318B4208BF42F00102183135
:103C00008B4208BF42F0010201F556718B4208BF9A
:103C100042F0010218318B4208BF42F00102183114
:103C20008B4208BF42F0010218318B4208BF42F0BC
:103C3000010218318B4208BF42F0010218318B4259
:103C400008BF42F0010218318B4208BF42F0010266
:103C50001AB9734A934240F0F5800222002184F899
:103C6000352084F834101A6822F001021A6005E049
:103C7000FFF7BCFD431B052B40D823681A68D1070A
:103C8000F6D4D4E9022521692A43A0691D680A43B4
:103C900061690A43E16902430A4362492940256A8E
:103CA0002A430A43616A04292FD01A605A6922F014
:103CB0000702114359612046FFF794FEE26D3F234E
:103CC00002F01F02934083602046FFF705FFA368C0
:103CD000802B3CD06368A06EDAB2013BD4E9185166
:103CE000072B2A60486026D90023C4E91B33636789
:103CF00000200123606584F8353070BD2022032345
:103D00000120626584F8353070BDD4E90B51294338
:103D10000A431A605969A26A21F00701114341F070
:103D20000401002DC6D000284FD1012A6ED032F0F8
:103D30000202BFD151E0501E072810D9626FD4E9AA
:103D40001B31002018604A60D2E7012070BD0023BB
:103D5000A16ED4E91802636003605160C4E7216872
:103D6000314B324DA94218BF994205F114050CBFE1
:103D700001230023A94208BF43F001031435A942DF
:103D800008BF43F001031435A94208BF43F0010303
:103D90001435A94208BF43F001031435A94208BFF6
:103DA00043F001033BB9224B994204D0214B2249F5
:103DB00013449B0003E0214B214913449B00012243
:103DC0008240C4E91B316267BBE7B0F5005F0ED0EB
:103DD000022A05D9032A7FF46DAFEA017FF56AAFA5
:103DE000012340221846626584F8353070BD032AED
:103DF0003FF660AF01A050F822F000BFE13D00089F
:103E0000DB3D0008E13D00080D3E0008B5F1C07F34
:103E10007FF450AFE4E700BF1000024040000240D2
:103E2000B80402403F8010FE085402581C54025847
:103E3000945402583F820010400902403F960016F9
:103E400040590258324A33483349834218BF93429B
:103E500000F128000CBF012200228B4208BF42F073
:103E600001022831834208BF42F0010228308B4210
:103E700008BF42F001022831834208BF42F001022C
:103E80008B4208BF42F0010212B9244A934238D152
:103E900002220021224D84F8341084F835201A685B
:103EA0001540A268402A2AD0802A0CBF4FF48040D7
:103EB0000846266AD4E90312D20842EAD1026169AF
:103EC00042EAD102A16942EAD102E16942EAD102A1
:103ED000144942EA161219442A4302431248A0FB2D
:103EE000010120461A600B099B00E365FFF77AFD8C
:103EF000E26D012302F01F0293404360E4E61020CC
:103F0000D7E7402203230120626584F8353070BD75
:103F1000085402581C540258305402589454025801
:103F20000F00FEFFF8ABFDA7CDCCCCCC002800F0F5
:103F3000BC80844690F83400012800F0B88001204D
:103F40002DE9F0419CF835408CF83400844208D0CB
:103F500000224FF400638CF83420CCF85430BDE8D4
:103F6000F0810220DCF800507A4C8CF835000020FB
:103F7000794ECCF854007948854218BFA54200F12B
:103F800018000CBF01240024854208BF44F001043E
:103F90001830854208BF44F001041830854208BF3C
:103FA00044F001041830854208BF44F0010400F5D4
:103FB0005670854208BF44F001041830854208BF9E
:103FC00044F001041830854208BF44F00104183061
:103FD000854208BF44F001041830854208BF44F010
:103FE00001041830854208BF44F0010418308542AE
:103FF00008BF44F001041830854208BF44F00104B2
:10400000A0F59560B54218BF8542DCF86C600CBF26
:104010000120002054EA0008286820F001002860F0
:10402000DCF86400DCF86840DCF85870446040D08C
:1040300016B1DCE91C044460DCF85C004FF03F0E74
:1040400000F01F000EFA00F0B860286820F480200D
:1040500028606B60DCF80830402B23D0A960EA6050
:104060002B6823F01E0343F016032B60DCF840306E
:104070001BB12B6843F008032B60DCF860301A6832
:10408000D20303D51A6842F480721A601EB13368F5
:1040900043F4807333602B68002043F001032B60EE
:1040A000BDE8F081AA60E960DAE7012070470220EC
:1040B000704716B1DCE91C0444602948DFF8A8E029
:1040C000754518BF85420EF1140E0CBF012000206B
:1040D000754508BF40F001000EF1140E754508BF8C
:1040E00040F001000EF1140E754508BF40F00100CC
:1040F0000EF1140E754508BF40F001000EF1140ECC
:10410000754508BF40F0010010B9164885420ED130
:10411000DCF85C0000F01F0E012000FA0EF0786061
:104120006B60DCF80830402B10D0A960EA602B6887
:1041300023F00E0343F00A032B60DCF84030002B21
:104140009BD02B6843F004032B6096E7AA60E960DC
:10415000EDE700BF40000240280002405800024046
:1041600008540258945402581C54025800285FD036
:1041700038B590F835200346022A55D10168444AE3
:10418000914248D01832914245D03032414C424899
:10419000A14218BF914204F148040CBF0122002241
:1041A000814208BF42F001023030A14208BF42F014
:1041B00001023034814208BF42F0010200F55C7018
:1041C000A14208BF42F0010204F55C74814208BFBD
:1041D00042F001023030A14208BF42F00102303407
:1041E000814208BF42F001023030A14208BF42F0D4
:1041F00001023034814208BF42F001023030A14256
:1042000008BF42F00102814208BF42F0010212B928
:10421000224A91420ED10422002083F835200B68F7
:1042200023F001030B6038BD802201205A6538BDA0
:10423000012070470A681C6E22F00E02D86D9D6D39
:104240000A6000F01F000A6822F001020A600122E1
:104250002168824021F4807121606A60DA6ED3E9BE
:104260001910486032B11168D3E91C0421F480713F
:1042700011604460002401211A6D83F8344083F8F2
:1042800035101AB118469047204638BD104638BD43
:10429000100002404000024070000240B80402409A
:1042A0002DE9F04300229C4B83B09C4E1D68814653
:1042B000019203689A4A846D934218BFB3422768FB
:1042C00008BF0126216818BF002645D0183295483E
:1042D000834218BF934200F118000CBF0122002254
:1042E000834208BF42F001021830834208BF42F007
:1042F00001021830834208BF42F0010218308342A5
:1043000008BF42F0010200F55670834208BF42F038
:1043100001021830834208BF42F001021830834284
:1043200008BF42F001021830834208BF42F0010288
:104330001830834208BF42F001021830834208BFA0
:1043400042F001021830834208BF42F001021AB95C
:10435000754A934240F05082D9F85C10082201F06F
:104360001F0C02FA0CF2174240F0888127FA0CF277
:10437000D2070CD55A69100609D5012202FA0CF2AF
:10438000A260D9F8542042F00202C9F854204FF03C
:10439000040E0EFA0CF038425BD0002E4FD1634A67
:1043A000DFF88081434518BF934208F118080CBF1D
:1043B00001220022434508BF42F0010208F118081B
:1043C000434508BF42F0010208F11808434508BF01
:1043D00042F0010208F11808434508BF42F001020B
:1043E00008F55678434508BF42F0010208F1180865
:1043F000434508BF42F0010208F11808434508BFD1
:1044000042F0010208F11808434508BF42F00102DA
:1044100008F11808434508BF42F0010208F11808E6
:10442000434508BF42F0010208F11808434508BFA0
:1044300042F001021AB93C4A934240F019821A68CC
:10444000920706D5A060D9F8542042F00402C9F8BA
:104450005420102202FA0CFC1CEA070F6CD0002E2C
:1044600045D1324A2F4EB34218BF934206F1180687
:104470000CBF01220022B34208BF42F001021836ED
:10448000B34208BF42F001021836B34208BF42F0FF
:1044900001021836B34208BF42F0010206F5567613
:1044A000B34208BF42F001021836B34208BF42F0DF
:1044B00001021836B34208BF42F001021836B34277
:1044C00008BF42F001021836B34208BF42F00102B1
:1044D0001836B34208BF42F001021836B34208BF93
:1044E00042F001021AB9104A934240F0C9811A6899
:1044F000100721D5C4F808C01A68560300F14C8192
:104500001A68D20503D41A6822F008021A60D9F892
:1045100040308BB10CE000BF680000241000024066
:104520002800024058000240B80402404000024007
:1045300048469847D9F85C1001F01F0120268E40AC
:104540003E4268D0D9F80020A54BA64FBA4218BF0A
:104550009A4207F118070CBF01230023BA4208BF93
:1045600043F001031837BA4208BF43F0010318377C
:10457000BA4208BF43F001031837BA4208BF43F0FC
:1045800001031837BA4208BF43F001031837BA4293
:1045900008BF43F0010307F55677BA4208BF43F05E
:1045A00001031837BA4208BF43F001031837BA4273
:1045B00008BF43F001031837BA4208BF43F00103B4
:1045C0001837BA4208BF43F001031837BA4208BF90
:1045D00043F001031837BA4208BF43F001031BB987
:1045E000814B9A4240F062811368DB0613D5A660C6
:1045F00099F83530042B136800F0AE8013F4802F47
:10460000136800F0D3801C0340F1DE80D9F83C3001
:104610000BB148469847D9F85430002B00F0B980C8
:10462000D9F85430D8071FD5D9F80020042189F8CB
:104630003510136823F0010313606C4BA3FB0535A1
:10464000AD0A02E01368D90704D5019B0133AB42E0
:104650000193F7D9002389F834301368DB074CBF86
:104660000323012389F83530D9F84C30002B00F0B2
:104670009080484603B0BDE8F043184718684007EB
:104680000AD5186820F004001860A260D9F85420F8
:1046900042F00102C9F8542027FA0CF2D2077FF544
:1046A00076AE534A5348834218BF934200F130001C
:1046B0000CBF01220022834208BF42F001021830E1
:1046C000834208BF42F001021830834208BF42F023
:1046D00001021830834208BF42F0010200F5567013
:1046E000834208BF42F001021830834208BF42F003
:1046F00001021830834208BF42F0010218308342A1
:1047000008BF42F001021830834208BF42F00102A4
:104710001830834208BF42F001021830834208BFBC
:1047200042F001021830834208BF42F00102002A21
:104730007FF420AE002E7FF41DAE1A68042202FA28
:104740000CF23A4240F09480102202FA0CFC17EA74
:104750000C0F3FF4F1AE84E623F0160313605369A7
:1047600023F080035361D9F840309BB3136823F0E2
:10477000080313603F230025012203FA01F1D9F851
:104780005030A16089F8345089F83520002B7FF42F
:1047900070AF03B0BDE8F0831B6818037FF5B7AEB8
:1047A000D9F84830002B7FF4C3AEC5E613F480730C
:1047B0007FF42CAF116821F010011160012289F8FB
:1047C000343089F8352021E7D9F84430002B7FF4C4
:1047D00020AF20E7D9F84830002BC7D1CAE700BF87
:1047E0001000024028000240B8040240B5814E1B70
:1047F00058000240400002404E4A4F4DAB4218BFA5
:10480000934205F114050CBF01220022AB4208BF00
:1048100042F001021435AB4208BF42F001021435E8
:10482000AB4208BF42F001021435AB4208BF42F070
:1048300001021435AB4208BF42F0010212B93F4AEF
:104840009342A6D1D9F85C5004261A6805F01F05DA
:10485000AE400E4219D0570717D5100466604BD5ED
:10486000D1034FD4D9F84830002B7FF402AF90E742
:104870001A68102202FA0CFC17EA0C0F3FF45CAE27
:104880001A6852077FF558AE34E60226AE400E4253
:1048900011D097070FD56660140439D5D00343D4DF
:1048A000D9F84430002B7FF4E4AE72E713689F0719
:1048B0007FF5B1AE9BE60826AE400E423FF469AFED
:1048C00011077FF566AF1A68002122F00E021A6008
:1048D0000123D9F84C2003FA05F56560C9F8543076
:1048E00089F8341089F83530002A3FF452AF484631
:1048F00003B0BDE8F0431047920603D41A6822F0D3
:1049000004021A60D9F84030002B7FF4B2AE40E7C1
:1049100012F0200208D11968012421F00A0119605F
:1049200089F8342089F83540D9F83C30002B7FF4E1
:10493000A0AE2EE7085402581C5402589454025852
:10494000406D70472DE9F04F0D6883B0002D00F0E9
:10495000D5800023DFF8688201229A4012EA050C14
:1049600000F0C7804E6826F01009B9F1020F40F040
:10497000C88003F007044FEAD30E4FF00F0A4FEA46
:10498000840900EB8E0E0AFA09FADEF8204024EAC8
:104990000A0A0C6904FA09F406F0030944EA0A0455
:1049A000CEF820404FEA430E0324D0F800A009FAC5
:1049B0000EF904FA0EF42AEA040AE44349EA0A0961
:1049C000C0F80090D0F808A0CF6804EA0A0A07FAF5
:1049D0000EF949EA0A09C0F80890C6F30019D0F8A0
:1049E00004A009FA03F92AEA020249EA0202426033
:1049F000C268F70004EA02048A6802FA0EF242EA88
:104A00000402C26075D5644C23F0030E03F0030961
:104A1000D4F8F420C6444FEA890942F00202C4F8EF
:104A2000F420D4F8F42002F002020192019A0F223D
:104A3000DEF8084002FA09F224EA0202574CA042CA
:104A400025D004F58064A0427BD0554CA0427ED096
:104A5000544CA0426FD0544CA04200F08480534C80
:104A6000A04200F08680524CA04276D0514CA04229
:104A700000F08580504CA04200F087804F4CA0424F
:104A80000CBF09240A2404FA09F942EA0902CEF803
:104A900008204FF0B0426FEA0C0EF403D2F88020E9
:104AA0004FF0B04454BF0EEA02024CEA0202C4F8CE
:104AB0008020B203D4F884404FF0B04254BF0EEAD5
:104AC00004044CEA0404F702C2F8844014684FF06E
:104AD000B04254BF0EEA04044CEA04041460B40269
:104AE00052684FF0B04454BF0EEA02024CEA020290
:104AF0006260013335FA03F27FF42EAF03B0BDE8F4
:104B0000F08F4FEA430E0324D0F800B006F0030AFA
:104B100004FA0EF409F1FF390AFA0EFA2BEA040B33
:104B2000B9F1010F6FEA04044AEA0B0AC0F800A0C9
:104B30003FF65EAF46E7032404FA09F942EA0902A8
:104B4000A5E7012404FA09F942EA09029FE70224D1
:104B500004FA09F942EA090299E7062404FA09F974
:104B600042EA090293E7042404FA09F942EA090235
:104B70008DE7052404FA09F942EA090287E70724C8
:104B800004FA09F942EA090281E7082404FA09F95A
:104B900042EA09027BE700BF0044025800000258C5
:104BA00000080258000C0258001002580014025865
:104BB00000180258001C0258002002580024025815
:104BC00000040058002900F0A88000232DE9F04FD0
:104BD000DFF8689183B0DFF86881DFF868A1DFF85B
:104BE00068B14FF0010E0EFA03F212EA010C6FD019
:104BF00023F0030503F003040F2640454D444FEA1C
:104C0000C404AF6806FA04F607EA0607019721D044
:104C1000504566D0584567D0434FB8426ED0434F99
:104C2000B84270D0424FB84263D0424FB84256D0DB
:104C3000414FB84272D0DFF814E1704568D0DFF818
:104C400010E1704514BF4FF00A0E4FF0090E0EFA36
:104C500004F400E00024019FA74219D1AC6824EAC3
:104C600006064FF0B044AE60D4F8805025EA0C053B
:104C7000C4F88050D4F8845025EA0C05C4F8845058
:104C8000256825EA0C052560656825EA0C05656040
:104C900003255C0003F007070F2605FA04F40568F6
:104CA000BF00254306FA07F70560DD0800EB850520
:104CB0002E6A26EA07062E62856825EA04058560C5
:104CC000456825EA02024260C26822EA0404C46020
:104CD000013331FA03F284D103B0BDE8F08F4FF015
:104CE000060E0EFA04F4B6E74FF0020E0EFA04F4C4
:104CF000B1E74FF0050E0EFA04F4ACE74FF0030EE7
:104D00000EFA04F4A7E74FF0040E0EFA04F4A2E73B
:104D10004FF0080E0EFA04F49DE770474FF0070EAF
:104D20000EFA04F497E700BF000C02580010025876
:104D30000014025800180258001C025800040058C1
:104D400000000258000402580008025800200258CF
:104D5000002402580369194214BF01200020704743
:104D600002B90904816170472DE9F04F056885B0EB
:104D70000446284605F0BEF8012802D005B0BDE87B
:104D8000F08F206805F066F80028F7D0206805F05D
:104D900061F810F4001F206802D04FF40013436143
:104DA00005F058F810F4801F206802D04FF48013EB
:104DB000436105F04FF810F0806F206802D04FF08B
:104DC0008063436105F046F810F0020F20682FD190
:104DD00005F040F8870000F11381206805F03AF8EB
:104DE000C60100F1CF80206805F034F8000700F11B
:104DF000BE80206805F02EF810F0007F20681AD1E0
:104E000005F028F8C306B9D52568AB6923F010036F
:104E1000AB612E6AC6F34341C6F30A17022902D1D9
:104E2000002F40F0C681AB6943F01003AB61A5E7EA
:104E300002234361CCE705F0CBF8D4F808E08046C4
:104E40002068BEF1000F00F0998005F5A0650026EE
:104E50004FF0280B4FF0020A4AE000F5A0694A0122
:104E600009EB4117BB685B075DD50423BB60FB689A
:104E700043F00203FB60BB68980500F1FD80BB684E
:104E8000DB0740F1CF80236953B101EB81003B691F
:104E900004EBC000C3F3120C836CA3EB0C03C364DC
:104EA0008B004FF0010C4FF0000E581804EBC000BF
:104EB000C0F858E080F85DC0C7F808C090F83FE03F
:104EC0001EF0FD0F00F06481BEF1030F00F0408280
:104ED0000B4404EBC30393F8502082F0010283F8E3
:104EE0005020D4F808E0206801362035764545D2B8
:104EF00006F00F0328FA03F3D907F5D52B68F1B2B2
:104F00001A04AAD400F5A0624FEA411C02EB411733
:104F1000BB6813F004090DD00423BB60FB6843F0A9
:104F20000203FB60E0E7BB689B0640F1B3802023EF
:104F3000BB60A0E7BB6813F0200300F0CA8001EB60
:104F40008103202204EBC303BA6093F83D20012AB9
:104F5000CAD183F83D9083F85CA0FB6843F002035C
:104F6000FB6005F039F8D4F808E02068BCE720467B
:104F7000FEF7FCFA2068082343613BE74FF000731B
:104F800043613DE72668D6F840340293D6F84034B2
:104F90000393039B23F02E030393029B980707D5EB
:104FA000029BD90700F16381039B43F00203039343
:104FB000029B1A0718D5039B43F008030393029B37
:104FC0005B0740F15C81A169022900F09A81E368E6
:104FD000012B03D14EF66022C6F804242046FEF7CA
:104FE000D3FA2046FEF7C6FA2068029B9F0603D537
:104FF000039B43F020030393039BC6F84034F3E67E
:10500000D5F84034204623F02E03C5F84034FEF78F
:10501000B5FA0121206804F0B9FF20684FF0005371
:105020004361DBE6BB68980740F18E80FB6801EBCB
:10503000810C23F0020304EBCC0CFB608B009CF88A
:105040005D00012800F0B280052800F0AF8006283E
:1050500000F0A381082800F0A081032800F0DC8183
:105060009CF85C000246C7F808A02046FEF78AFAC2
:10507000D4F808E0206837E7FB68206843F00203B3
:10508000FB6004F0A9FF4FF400732068BB60D4F804
:1050900008E029E7BB681B0700F1BB80BB685B0524
:1050A0007FF5E9AEFB68019243F002030091FB60DB
:1050B00004F092FF00991020019A01EB8103B8607F
:1050C000082004EBC30383F85D004FF48063BB60EA
:1050D000D1E6D7F8089019F0400F40F0B180BB68D6
:1050E00013F4007340F02F81D7F8089019F0010FE6
:1050F00040F03F81BB6813F0080340F06881D7F8A7
:10510000089019F0100F00F0C98001EB810204EB48
:10511000C2029365032382F85D3092F83D303BB9BB
:105120000BFB014393F83C2012B9012283F83D2088
:10513000FB6843F00203FB6004F04EFF102320687D
:10514000BB60D4F808E0CFE6BB6813F0800340F002
:10515000E380BA68D20640F1D08001EB810004EB15
:10516000C00090F83F20032A00F04B8112F0FD02AE
:10517000E4D123698265002BE0D10BFB01430322BC
:1051800083F85D20FB68206843F00203FB60D3E7EF
:10519000FA68206842F0020201930091FA6004F07C
:1051A0001BFF1022DDE90013BA6091E68CF85C0069
:1051B00058E706F00F0606EB860804EBC808D8F897
:1051C000441000293FF42FAE284605F5A0653A4665
:1051D00004F0A2FDD8F8443005EB46123B441169B7
:1051E000D8F84C20C8F8443073013A44C8F84C2031
:1051F000BC4A0A405AB1EA5822F0804242F00042CA
:10520000EA5098F8503083F0010388F85030256850
:1052100009E6FB684FF0050C019243F00203009190
:10522000FB6001EB810304EBC30383F85DC0102333
:10523000BB600823BB6004F0CFFEDDE900121AE674
:1052400001EB810204EBC2029365042382F85D3016
:10525000012382F83D30FB6843F00203FB6004F059
:10526000BBFE40232068BB60D4F808E03CE6B3698D
:10527000204623F00053B361FEF77CF994E6204604
:10528000FEF786F9D6F84034206823F02E03C6F8DE
:105290004034836943F000538361A6E6BB681B0674
:1052A00000F1C880BB685B0500F1D780BB689B0735
:1052B0007FF51AAEFB680BFB014023F00203FB6095
:1052C00090F85D30012B00F0E180032B00F0DB80D3
:1052D000042B00F0D880052B00F0FC80062B00F09A
:1052E000E480082B00F0E1800BFB01432046C7F867
:1052F00008A093F85C20FEF745F9D4F808E0206890
:10530000F2E5029B206803F4C023B3F5802F18BF99
:10531000012104F03BFE61E6FB6801EB810243F0F2
:10532000020304EBC202FB60936D01339365062315
:1053300082F85D30206804F04FFE80232068BB6057
:10534000D4F808E0D0E5FB6843F00203FB6098E680
:1053500052F80970019347F00057009142F8097024
:10536000624680F85CC02046FEF70CF9DDE90013C8
:10537000AEE5FA6801EB810942F0020204EBC909CB
:10538000C9F85830FA6004F027FE0123BB6089F8A1
:105390005D30D4F808E02068A6E503EB010C04EBCF
:1053A000CC0CDCF858000130032825D8CCF8580084
:1053B00002200B4404EBC30383F85C0052F809306D
:1053C00023F0804343F0004342F809304AE60823C3
:1053D0000091BB60FB6843F00203FB6004F0FCFD3E
:1053E0000099052201EB810104EBC10383F85D20E4
:1053F000D4F808E0206877E50020CCF858000420B5
:10540000D7E7FA680BFB014042F00202836520688F
:10541000FA6004F0E1FD91E60BFB0143022083F802
:105420005CA052F8093023F0804343F0004342F877
:10543000093017E6FB68009143F00203FB6004F0BB
:10544000CBFD009906230BFB014181F85D308023E1
:105450002068BB60D4F808E046E5FB68009143F0A3
:105460000203FB6004F0B8FD10230099BB604FF409
:1054700080630BFB0141BB60082381F85D30D4F8E9
:1054800008E0206830E580F85CA02DE780F85C300B
:1054900090F83F30023B012B3FF626AF90F8513099
:1054A00083F0010380F851301EE70BFB0140836D50
:1054B0000133032B11D8836502230BFB014080F8D5
:1054C0005C3052F80C3023F0804343F0004342F844
:1054D0000C3009E780F85C3006E70023836504237D
:1054E000EBE700BF0000F81F90F8B832012B0CD09A
:1054F000012310B50446006884F8B83204F0CCFDEE
:105500000023184684F8B83210BD0220704700BF4F
:10551000F8B505460E461746701C2C682CD1A369B9
:10552000990727D4A369DA06F9D5A3699A06FCD5A9
:1055300020231022E261E361A3699F0701D50023C4
:10554000A362A369DE0703D4A36943F00103A36147
:10555000636800221B4820210340012063606B6CBC
:1055600085F8402043F004036B6485F8411085F80A
:105570004220F8BD0020F8BDA3699B07FAD4A369B7
:10558000D9061BD4FEF732F9C01BB04201D8002E59
:10559000C2D16B6C2021002201200B4385F84020F2
:1055A0006B6485F8411085F84220F8BDFEF71EF9BE
:1055B000C01B8642EDD3002EEBD02C68A3699B065E
:1055C000F4D5B5E700E800FEF8B505460E461746E7
:1055D0002C68A3699B0649D4A369DA0626D5731CF7
:1055E00038D1A3699E06FCD520231022E261E36135
:1055F000A369990701D50023A362A369DA0703D43D
:10560000A36943F00103A3616368002218482021C5
:105610000340012063606B6C85F8402043F0040375
:105620006B6485F8411085F84220F8BDFEF7DEF87E
:10563000C01BB04201D8002ECAD16B6C20210022C1
:1056400001200B4385F840206B6485F8411085F8F4
:105650004220F8BDA3699806C6D4FEF7C7F8C01B60
:105660008642EAD3002EE8D02C68B8E70020F8BDC7
:1056700000E800FE00284ED010B590F841300446F6
:1056800003F0FF02002B41D023682421626884F8D4
:105690004110196822F07062E06821F001010128D0
:1056A00019601A619A6822F400429A60A26829D0AF
:1056B00042F4044202289A6002D14FF400625A6018
:1056C00058684FF0200C1549226901435960D96888
:1056D00021F40041D960D4E90501024342EA0122E4
:1056E000D4E90710DA6000220143104619601968F6
:1056F00041F001011960626484F841C0226384F8BA
:10570000422010BD42F400429A60D9E780F8402060
:10571000FCF774F8B8E70120704700BF0080000272
:105720002DE9F047984690F84130089E202B40F034
:10573000878090F840300446012B00F081800123DF
:105740008946174680F84030FEF750F8054604E0D9
:10575000FEF74CF8401B192875D82368986910F497
:105760000040F5D1212267626063C9F3090784F81C
:105770004120102284F842206064A4F82A80628DBF
:1057800092B2FF2A6DD8628D494892B2D1B2228579
:105790005A6802403A4342EA01424649114359607D
:1057A000DFF81C814FF0FF0ADFF81891638D2A465D
:1057B000314620469BB2002B30D0FFF7A9FE0028CF
:1057C00073D1606A216810F8012B238D8A62628D83
:1057D000013B6062013A9BB292B223856285628D81
:1057E00092B2002BE2D1002AE0D0701C43D18B6929
:1057F0001A06FCD5638D9BB2FF2B48D94B682A460D
:10580000A4F828A0204603EA08033B4343EA09031F
:105810004B603146638D9BB2002BCED1FFF7D4FE97
:10582000002842D123682021234DD9615A682A409B
:105830005A6084F8411084F8400084F8420000E087
:105840000220BDE8F087636C2021002201200B4379
:1058500084F84020636484F8411084F84220BDE855
:10586000F0875A6812490A4014493A431143FF220B
:105870002285596094E78B691B06BBD4FDF7B6FF00
:10588000401B8642DFD3002EDDD02168ADE7638D5B
:105890009BB2DAB223854B6803EA080343EA02436A
:1058A0003B4343F000734B6080E70120BDE8F08785
:1058B000009800FC0020008200E800FE0020FF812C
:1058C000009C00FC0000FF012DE9F0471F4690F806
:1058D0004130202B40F08E8004460D46002900F018
:1058E0008380B2FA82F916464FEA5919002A7BD012
:1058F0005FFA83FA90F84030012B7BD0012380F8C7
:105900004030FDF773FF212365628046256884F8E7
:10591000413084F842A0C4F8449066856B68C4F8AE
:10592000349023F400436B607B1C66D1AE6936076C
:10593000FCD50823EB61E368022B06D0AE69F603C1
:1059400028D4AE69F603F9D524E0AB691907FCD574
:105950000823EB617B1CF1D0AB69DD031AD4FDF7A2
:1059600045FFA0EB0800874253D3002F51D0256894
:10597000F0E7424639462046FFF7CAFD00285BD1D2
:10598000636A226813F8011B9162658D6362013DB1
:10599000ADB26585638D9BB2002BEAD14246394694
:1059A0002046FFF711FE00284DD02268536843F4CB
:1059B00000435360636C042B54D1002363642023A1
:1059C000D361781C41D193691904FCD45168002338
:1059D000202041F40041516084F84100184684F8C9
:1059E000423084F8403003E04FF4007301206364D8
:1059F000BDE8F0870220BDE8F087AB69180733D413
:105A0000FDF7F4FEA0EB0800874202D30FB1256832
:105A10008AE7636C202000212268034384F8401049
:105A2000636484F84100012084F84210536843F411
:105A300000435360BDE8F08722680120536843F4B7
:105A400000435360D4E72268B9E793691B04BDD5CE
:105A5000FDF7CCFEA0EB08008742DAD3002FD8D0A8
:105A60002268AEE70120C3E70823EB61E368022B5D
:105A70007FF470AF08E0FDF7B9FEA0EB08008742A5
:105A8000C7D3002FC5D02568AB691A07F3D55FE7E8
:105A90000268436B9169126803B11847704700BFF1
:105AA00090F84100704700BF90F84120202A23D190
:105AB0005FFA82FC90F840200346012A1CD002685D
:105AC000242000B583F841004FF0000E106820F04C
:105AD00001001060106820F48050106010680143CD
